{
	"contracts/Candidate.sol": {
		"CandidateContract": {
			"abi": [
				{
					"inputs": [
						{
							"internalType": "address",
							"name": "_electionCommissionAddress",
							"type": "address"
						}
					],
					"stateMutability": "nonpayable",
					"type": "constructor"
				},
				{
					"inputs": [
						{
							"internalType": "string",
							"name": "_partyName",
							"type": "string"
						}
					],
					"name": "getCandidateAddressByPartyName",
					"outputs": [
						{
							"internalType": "address",
							"name": "_candidateAddress",
							"type": "address"
						}
					],
					"stateMutability": "view",
					"type": "function"
				},
				{
					"inputs": [
						{
							"internalType": "string",
							"name": "_partyName",
							"type": "string"
						}
					],
					"name": "getCandidateByPartyName",
					"outputs": [
						{
							"components": [
								{
									"internalType": "string",
									"name": "fname",
									"type": "string"
								},
								{
									"internalType": "string",
									"name": "lname",
									"type": "string"
								},
								{
									"internalType": "string",
									"name": "partyName",
									"type": "string"
								},
								{
									"internalType": "string",
									"name": "partySymbol",
									"type": "string"
								},
								{
									"internalType": "address",
									"name": "ethereumAddress",
									"type": "address"
								}
							],
							"internalType": "struct CandidateContract.CandidateData",
							"name": "_candidate",
							"type": "tuple"
						}
					],
					"stateMutability": "view",
					"type": "function"
				},
				{
					"inputs": [],
					"name": "getPartiesList",
					"outputs": [
						{
							"internalType": "string[]",
							"name": "parties",
							"type": "string[]"
						}
					],
					"stateMutability": "view",
					"type": "function"
				},
				{
					"inputs": [
						{
							"internalType": "string",
							"name": "_fname",
							"type": "string"
						},
						{
							"internalType": "string",
							"name": "_lname",
							"type": "string"
						},
						{
							"internalType": "string",
							"name": "_partyName",
							"type": "string"
						},
						{
							"internalType": "string",
							"name": "_partySymbol",
							"type": "string"
						},
						{
							"internalType": "address",
							"name": "_candidateAddress",
							"type": "address"
						}
					],
					"name": "setCandidateData",
					"outputs": [],
					"stateMutability": "nonpayable",
					"type": "function"
				}
			],
			"devdoc": {
				"kind": "dev",
				"methods": {},
				"version": 1
			},
			"evm": {
				"assembly": "    /* \"contracts/Candidate.sol\":60:2056  contract CandidateContract{... */\n  mstore(0x40, 0x80)\n    /* \"contracts/Candidate.sol\":333:452  constructor(address _electionCommissionAddress) {... */\n  callvalue\n  dup1\n  iszero\n  tag_1\n  jumpi\n  0x00\n  dup1\n  revert\ntag_1:\n  pop\n  mload(0x40)\n  sub(codesize, bytecodeSize)\n  dup1\n  bytecodeSize\n  dup4\n  codecopy\n  dup2\n  dup2\n  add\n  0x40\n  mstore\n  dup2\n  add\n  swap1\n  tag_2\n  swap2\n  swap1\n  tag_3\n  jump\t// in\ntag_2:\n    /* \"contracts/Candidate.sol\":419:445  _electionCommissionAddress */\n  dup1\n    /* \"contracts/Candidate.sol\":391:416  electionCommissionAddress */\n  0x01\n  0x00\n    /* \"contracts/Candidate.sol\":391:445  electionCommissionAddress = _electionCommissionAddress */\n  0x0100\n  exp\n  dup2\n  sload\n  dup2\n  0xffffffffffffffffffffffffffffffffffffffff\n  mul\n  not\n  and\n  swap1\n  dup4\n  0xffffffffffffffffffffffffffffffffffffffff\n  and\n  mul\n  or\n  swap1\n  sstore\n  pop\n    /* \"contracts/Candidate.sol\":333:452  constructor(address _electionCommissionAddress) {... */\n  pop\n    /* \"contracts/Candidate.sol\":60:2056  contract CandidateContract{... */\n  jump(tag_6)\n    /* \"#utility.yul\":88:205   */\ntag_8:\n    /* \"#utility.yul\":197:198   */\n  0x00\n    /* \"#utility.yul\":194:195   */\n  dup1\n    /* \"#utility.yul\":187:199   */\n  revert\n    /* \"#utility.yul\":334:460   */\ntag_10:\n    /* \"#utility.yul\":371:378   */\n  0x00\n    /* \"#utility.yul\":411:453   */\n  0xffffffffffffffffffffffffffffffffffffffff\n    /* \"#utility.yul\":404:409   */\n  dup3\n    /* \"#utility.yul\":400:454   */\n  and\n    /* \"#utility.yul\":389:454   */\n  swap1\n  pop\n    /* \"#utility.yul\":334:460   */\n  swap2\n  swap1\n  pop\n  jump\t// out\n    /* \"#utility.yul\":466:562   */\ntag_11:\n    /* \"#utility.yul\":503:510   */\n  0x00\n    /* \"#utility.yul\":532:556   */\n  tag_20\n    /* \"#utility.yul\":550:555   */\n  dup3\n    /* \"#utility.yul\":532:556   */\n  tag_10\n  jump\t// in\ntag_20:\n    /* \"#utility.yul\":521:556   */\n  swap1\n  pop\n    /* \"#utility.yul\":466:562   */\n  swap2\n  swap1\n  pop\n  jump\t// out\n    /* \"#utility.yul\":568:690   */\ntag_12:\n    /* \"#utility.yul\":641:665   */\n  tag_22\n    /* \"#utility.yul\":659:664   */\n  dup2\n    /* \"#utility.yul\":641:665   */\n  tag_11\n  jump\t// in\ntag_22:\n    /* \"#utility.yul\":634:639   */\n  dup2\n    /* \"#utility.yul\":631:666   */\n  eq\n    /* \"#utility.yul\":621:684   */\n  tag_23\n  jumpi\n    /* \"#utility.yul\":680:681   */\n  0x00\n    /* \"#utility.yul\":677:678   */\n  dup1\n    /* \"#utility.yul\":670:682   */\n  revert\n    /* \"#utility.yul\":621:684   */\ntag_23:\n    /* \"#utility.yul\":568:690   */\n  pop\n  jump\t// out\n    /* \"#utility.yul\":696:839   */\ntag_13:\n    /* \"#utility.yul\":753:758   */\n  0x00\n    /* \"#utility.yul\":784:790   */\n  dup2\n    /* \"#utility.yul\":778:791   */\n  mload\n    /* \"#utility.yul\":769:791   */\n  swap1\n  pop\n    /* \"#utility.yul\":800:833   */\n  tag_25\n    /* \"#utility.yul\":827:832   */\n  dup2\n    /* \"#utility.yul\":800:833   */\n  tag_12\n  jump\t// in\ntag_25:\n    /* \"#utility.yul\":696:839   */\n  swap3\n  swap2\n  pop\n  pop\n  jump\t// out\n    /* \"#utility.yul\":845:1196   */\ntag_3:\n    /* \"#utility.yul\":915:921   */\n  0x00\n    /* \"#utility.yul\":964:966   */\n  0x20\n    /* \"#utility.yul\":952:961   */\n  dup3\n    /* \"#utility.yul\":943:950   */\n  dup5\n    /* \"#utility.yul\":939:962   */\n  sub\n    /* \"#utility.yul\":935:967   */\n  slt\n    /* \"#utility.yul\":932:1051   */\n  iszero\n  tag_27\n  jumpi\n    /* \"#utility.yul\":970:1049   */\n  tag_28\n  tag_8\n  jump\t// in\ntag_28:\n    /* \"#utility.yul\":932:1051   */\ntag_27:\n    /* \"#utility.yul\":1090:1091   */\n  0x00\n    /* \"#utility.yul\":1115:1179   */\n  tag_29\n    /* \"#utility.yul\":1171:1178   */\n  dup5\n    /* \"#utility.yul\":1162:1168   */\n  dup3\n    /* \"#utility.yul\":1151:1160   */\n  dup6\n    /* \"#utility.yul\":1147:1169   */\n  add\n    /* \"#utility.yul\":1115:1179   */\n  tag_13\n  jump\t// in\ntag_29:\n    /* \"#utility.yul\":1105:1179   */\n  swap2\n  pop\n    /* \"#utility.yul\":1061:1189   */\n  pop\n    /* \"#utility.yul\":845:1196   */\n  swap3\n  swap2\n  pop\n  pop\n  jump\t// out\n    /* \"contracts/Candidate.sol\":60:2056  contract CandidateContract{... */\ntag_6:\n  dataSize(sub_0)\n  dup1\n  dataOffset(sub_0)\n  0x00\n  codecopy\n  0x00\n  return\nstop\n\nsub_0: assembly {\n        /* \"contracts/Candidate.sol\":60:2056  contract CandidateContract{... */\n      mstore(0x40, 0x80)\n      callvalue\n      dup1\n      iszero\n      tag_1\n      jumpi\n      0x00\n      dup1\n      revert\n    tag_1:\n      pop\n      jumpi(tag_2, lt(calldatasize, 0x04))\n      shr(0xe0, calldataload(0x00))\n      dup1\n      0x37a811a1\n      eq\n      tag_3\n      jumpi\n      dup1\n      0x8ec9bc6a\n      eq\n      tag_4\n      jumpi\n      dup1\n      0xa02d3697\n      eq\n      tag_5\n      jumpi\n      dup1\n      0xe96f77ee\n      eq\n      tag_6\n      jumpi\n    tag_2:\n      0x00\n      dup1\n      revert\n        /* \"contracts/Candidate.sol\":1781:2053  function getPartiesList() external view returns (string [] memory parties)... */\n    tag_3:\n      tag_7\n      tag_8\n      jump\t// in\n    tag_7:\n      mload(0x40)\n      tag_9\n      swap2\n      swap1\n      tag_10\n      jump\t// in\n    tag_9:\n      mload(0x40)\n      dup1\n      swap2\n      sub\n      swap1\n      return\n        /* \"contracts/Candidate.sol\":1394:1775  function getCandidateAddressByPartyName(string calldata _partyName) public view returns(address _candidateAddress)... */\n    tag_4:\n      tag_11\n      0x04\n      dup1\n      calldatasize\n      sub\n      dup2\n      add\n      swap1\n      tag_12\n      swap2\n      swap1\n      tag_13\n      jump\t// in\n    tag_12:\n      tag_14\n      jump\t// in\n    tag_11:\n      mload(0x40)\n      tag_15\n      swap2\n      swap1\n      tag_16\n      jump\t// in\n    tag_15:\n      mload(0x40)\n      dup1\n      swap2\n      sub\n      swap1\n      return\n        /* \"contracts/Candidate.sol\":1022:1387  function getCandidateByPartyName(string calldata _partyName) public view returns (CandidateData memory _candidate)... */\n    tag_5:\n      tag_17\n      0x04\n      dup1\n      calldatasize\n      sub\n      dup2\n      add\n      swap1\n      tag_18\n      swap2\n      swap1\n      tag_13\n      jump\t// in\n    tag_18:\n      tag_19\n      jump\t// in\n    tag_17:\n      mload(0x40)\n      tag_20\n      swap2\n      swap1\n      tag_21\n      jump\t// in\n    tag_20:\n      mload(0x40)\n      dup1\n      swap2\n      sub\n      swap1\n      return\n        /* \"contracts/Candidate.sol\":458:1016  function setCandidateData(string calldata _fname, string calldata _lname, ... */\n    tag_6:\n      tag_22\n      0x04\n      dup1\n      calldatasize\n      sub\n      dup2\n      add\n      swap1\n      tag_23\n      swap2\n      swap1\n      tag_24\n      jump\t// in\n    tag_23:\n      tag_25\n      jump\t// in\n    tag_22:\n      stop\n        /* \"contracts/Candidate.sol\":1781:2053  function getPartiesList() external view returns (string [] memory parties)... */\n    tag_8:\n        /* \"contracts/Candidate.sol\":1830:1854  string [] memory parties */\n      0x60\n        /* \"contracts/Candidate.sol\":1895:1909  candidatesData */\n      0x00\n        /* \"contracts/Candidate.sol\":1895:1916  candidatesData.length */\n      dup1\n      sload\n      swap1\n      pop\n        /* \"contracts/Candidate.sol\":1880:1917  new string [] (candidatesData.length) */\n      0xffffffffffffffff\n      dup2\n      gt\n      iszero\n      tag_27\n      jumpi\n      tag_28\n      tag_29\n      jump\t// in\n    tag_28:\n    tag_27:\n      mload(0x40)\n      swap1\n      dup1\n      dup3\n      mstore\n      dup1\n      0x20\n      mul\n      0x20\n      add\n      dup3\n      add\n      0x40\n      mstore\n      dup1\n      iszero\n      tag_30\n      jumpi\n      dup2\n      0x20\n      add\n    tag_31:\n      0x60\n      dup2\n      mstore\n      0x20\n      add\n      swap1\n      0x01\n      swap1\n      sub\n      swap1\n      dup2\n      tag_31\n      jumpi\n      swap1\n      pop\n    tag_30:\n      pop\n        /* \"contracts/Candidate.sol\":1870:1917  parties = new string [] (candidatesData.length) */\n      swap1\n      pop\n        /* \"contracts/Candidate.sol\":1931:1937  uint i */\n      0x00\n        /* \"contracts/Candidate.sol\":1927:2047  for(uint i = 0; i < candidatesData.length;i++)... */\n    tag_32:\n        /* \"contracts/Candidate.sol\":1947:1961  candidatesData */\n      0x00\n        /* \"contracts/Candidate.sol\":1947:1968  candidatesData.length */\n      dup1\n      sload\n      swap1\n      pop\n        /* \"contracts/Candidate.sol\":1943:1944  i */\n      dup2\n        /* \"contracts/Candidate.sol\":1943:1968  i < candidatesData.length */\n      lt\n        /* \"contracts/Candidate.sol\":1927:2047  for(uint i = 0; i < candidatesData.length;i++)... */\n      iszero\n      tag_33\n      jumpi\n        /* \"contracts/Candidate.sol\":2009:2023  candidatesData */\n      0x00\n        /* \"contracts/Candidate.sol\":2024:2025  i */\n      dup2\n        /* \"contracts/Candidate.sol\":2009:2026  candidatesData[i] */\n      dup2\n      sload\n      dup2\n      lt\n      tag_35\n      jumpi\n      tag_36\n      tag_37\n      jump\t// in\n    tag_36:\n    tag_35:\n      swap1\n      0x00\n      mstore\n      keccak256(0x00, 0x20)\n      swap1\n      0x05\n      mul\n      add\n        /* \"contracts/Candidate.sol\":2009:2036  candidatesData[i].partyName */\n      0x02\n      add\n        /* \"contracts/Candidate.sol\":1996:2036  parties[i] = candidatesData[i].partyName */\n      dup1\n      sload\n      tag_39\n      swap1\n      tag_40\n      jump\t// in\n    tag_39:\n      dup1\n      0x1f\n      add\n      0x20\n      dup1\n      swap2\n      div\n      mul\n      0x20\n      add\n      mload(0x40)\n      swap1\n      dup2\n      add\n      0x40\n      mstore\n      dup1\n      swap3\n      swap2\n      swap1\n      dup2\n      dup2\n      mstore\n      0x20\n      add\n      dup3\n      dup1\n      sload\n      tag_41\n      swap1\n      tag_40\n      jump\t// in\n    tag_41:\n      dup1\n      iszero\n      tag_42\n      jumpi\n      dup1\n      0x1f\n      lt\n      tag_43\n      jumpi\n      0x0100\n      dup1\n      dup4\n      sload\n      div\n      mul\n      dup4\n      mstore\n      swap2\n      0x20\n      add\n      swap2\n      jump(tag_42)\n    tag_43:\n      dup3\n      add\n      swap2\n      swap1\n      0x00\n      mstore\n      keccak256(0x00, 0x20)\n      swap1\n    tag_44:\n      dup2\n      sload\n      dup2\n      mstore\n      swap1\n      0x01\n      add\n      swap1\n      0x20\n      add\n      dup1\n      dup4\n      gt\n      tag_44\n      jumpi\n      dup3\n      swap1\n      sub\n      0x1f\n      and\n      dup3\n      add\n      swap2\n    tag_42:\n      pop\n      pop\n      pop\n      pop\n      pop\n        /* \"contracts/Candidate.sol\":1996:2003  parties */\n      dup3\n        /* \"contracts/Candidate.sol\":2004:2005  i */\n      dup3\n        /* \"contracts/Candidate.sol\":1996:2006  parties[i] */\n      dup2\n      mload\n      dup2\n      lt\n      tag_45\n      jumpi\n      tag_46\n      tag_37\n      jump\t// in\n    tag_46:\n    tag_45:\n      0x20\n      mul\n      0x20\n      add\n      add\n        /* \"contracts/Candidate.sol\":1996:2036  parties[i] = candidatesData[i].partyName */\n      dup2\n      swap1\n      mstore\n      pop\n        /* \"contracts/Candidate.sol\":1969:1972  i++ */\n      dup1\n      dup1\n      tag_47\n      swap1\n      tag_48\n      jump\t// in\n    tag_47:\n      swap2\n      pop\n      pop\n        /* \"contracts/Candidate.sol\":1927:2047  for(uint i = 0; i < candidatesData.length;i++)... */\n      jump(tag_32)\n    tag_33:\n      pop\n        /* \"contracts/Candidate.sol\":1781:2053  function getPartiesList() external view returns (string [] memory parties)... */\n      swap1\n      jump\t// out\n        /* \"contracts/Candidate.sol\":1394:1775  function getCandidateAddressByPartyName(string calldata _partyName) public view returns(address _candidateAddress)... */\n    tag_14:\n        /* \"contracts/Candidate.sol\":1482:1507  address _candidateAddress */\n      0x00\n        /* \"contracts/Candidate.sol\":1527:1533  uint i */\n      dup1\n        /* \"contracts/Candidate.sol\":1536:1537  0 */\n      0x00\n        /* \"contracts/Candidate.sol\":1527:1537  uint i = 0 */\n      swap1\n      pop\n        /* \"contracts/Candidate.sol\":1523:1769  for(uint i = 0; i < candidatesData.length; i++)... */\n    tag_50:\n        /* \"contracts/Candidate.sol\":1543:1557  candidatesData */\n      0x00\n        /* \"contracts/Candidate.sol\":1543:1564  candidatesData.length */\n      dup1\n      sload\n      swap1\n      pop\n        /* \"contracts/Candidate.sol\":1539:1540  i */\n      dup2\n        /* \"contracts/Candidate.sol\":1539:1564  i < candidatesData.length */\n      lt\n        /* \"contracts/Candidate.sol\":1523:1769  for(uint i = 0; i < candidatesData.length; i++)... */\n      iszero\n      tag_51\n      jumpi\n        /* \"contracts/Candidate.sol\":1660:1670  _partyName */\n      dup4\n      dup4\n        /* \"contracts/Candidate.sol\":1644:1672  keccak256(bytes(_partyName)) */\n      mload(0x40)\n      tag_53\n      swap3\n      swap2\n      swap1\n      tag_54\n      jump\t// in\n    tag_53:\n      mload(0x40)\n      dup1\n      swap2\n      sub\n      swap1\n      keccak256\n        /* \"contracts/Candidate.sol\":1612:1626  candidatesData */\n      0x00\n        /* \"contracts/Candidate.sol\":1627:1628  i */\n      dup3\n        /* \"contracts/Candidate.sol\":1612:1629  candidatesData[i] */\n      dup2\n      sload\n      dup2\n      lt\n      tag_55\n      jumpi\n      tag_56\n      tag_37\n      jump\t// in\n    tag_56:\n    tag_55:\n      swap1\n      0x00\n      mstore\n      keccak256(0x00, 0x20)\n      swap1\n      0x05\n      mul\n      add\n        /* \"contracts/Candidate.sol\":1612:1639  candidatesData[i].partyName */\n      0x02\n      add\n        /* \"contracts/Candidate.sol\":1596:1641  keccak256(bytes(candidatesData[i].partyName)) */\n      mload(0x40)\n      tag_58\n      swap2\n      swap1\n      tag_59\n      jump\t// in\n    tag_58:\n      mload(0x40)\n      dup1\n      swap2\n      sub\n      swap1\n      keccak256\n        /* \"contracts/Candidate.sol\":1596:1672  keccak256(bytes(candidatesData[i].partyName))== keccak256(bytes(_partyName)) */\n      sub\n        /* \"contracts/Candidate.sol\":1593:1759  if(keccak256(bytes(candidatesData[i].partyName))== keccak256(bytes(_partyName)))... */\n      tag_60\n      jumpi\n        /* \"contracts/Candidate.sol\":1711:1725  candidatesData */\n      0x00\n        /* \"contracts/Candidate.sol\":1726:1727  i */\n      dup2\n        /* \"contracts/Candidate.sol\":1711:1728  candidatesData[i] */\n      dup2\n      sload\n      dup2\n      lt\n      tag_61\n      jumpi\n      tag_62\n      tag_37\n      jump\t// in\n    tag_62:\n    tag_61:\n      swap1\n      0x00\n      mstore\n      keccak256(0x00, 0x20)\n      swap1\n      0x05\n      mul\n      add\n        /* \"contracts/Candidate.sol\":1711:1744  candidatesData[i].ethereumAddress */\n      0x04\n      add\n      0x00\n      swap1\n      sload\n      swap1\n      0x0100\n      exp\n      swap1\n      div\n      0xffffffffffffffffffffffffffffffffffffffff\n      and\n        /* \"contracts/Candidate.sol\":1704:1744  return candidatesData[i].ethereumAddress */\n      swap2\n      pop\n      pop\n      jump(tag_49)\n        /* \"contracts/Candidate.sol\":1593:1759  if(keccak256(bytes(candidatesData[i].partyName))== keccak256(bytes(_partyName)))... */\n    tag_60:\n        /* \"contracts/Candidate.sol\":1566:1569  i++ */\n      dup1\n      dup1\n      tag_64\n      swap1\n      tag_48\n      jump\t// in\n    tag_64:\n      swap2\n      pop\n      pop\n        /* \"contracts/Candidate.sol\":1523:1769  for(uint i = 0; i < candidatesData.length; i++)... */\n      jump(tag_50)\n    tag_51:\n      pop\n        /* \"contracts/Candidate.sol\":1394:1775  function getCandidateAddressByPartyName(string calldata _partyName) public view returns(address _candidateAddress)... */\n    tag_49:\n      swap3\n      swap2\n      pop\n      pop\n      jump\t// out\n        /* \"contracts/Candidate.sol\":1022:1387  function getCandidateByPartyName(string calldata _partyName) public view returns (CandidateData memory _candidate)... */\n    tag_19:\n        /* \"contracts/Candidate.sol\":1104:1135  CandidateData memory _candidate */\n      tag_65\n      tag_66\n      jump\t// in\n    tag_65:\n        /* \"contracts/Candidate.sol\":1156:1162  uint i */\n      0x00\n        /* \"contracts/Candidate.sol\":1151:1381  for (uint i = 0; i < candidatesData.length; i++)... */\n    tag_68:\n        /* \"contracts/Candidate.sol\":1172:1186  candidatesData */\n      0x00\n        /* \"contracts/Candidate.sol\":1172:1193  candidatesData.length */\n      dup1\n      sload\n      swap1\n      pop\n        /* \"contracts/Candidate.sol\":1168:1169  i */\n      dup2\n        /* \"contracts/Candidate.sol\":1168:1193  i < candidatesData.length */\n      lt\n        /* \"contracts/Candidate.sol\":1151:1381  for (uint i = 0; i < candidatesData.length; i++)... */\n      iszero\n      tag_69\n      jumpi\n        /* \"contracts/Candidate.sol\":1288:1298  _partyName */\n      dup4\n      dup4\n        /* \"contracts/Candidate.sol\":1272:1300  keccak256(bytes(_partyName)) */\n      mload(0x40)\n      tag_71\n      swap3\n      swap2\n      swap1\n      tag_54\n      jump\t// in\n    tag_71:\n      mload(0x40)\n      dup1\n      swap2\n      sub\n      swap1\n      keccak256\n        /* \"contracts/Candidate.sol\":1241:1255  candidatesData */\n      0x00\n        /* \"contracts/Candidate.sol\":1256:1257  i */\n      dup3\n        /* \"contracts/Candidate.sol\":1241:1258  candidatesData[i] */\n      dup2\n      sload\n      dup2\n      lt\n      tag_72\n      jumpi\n      tag_73\n      tag_37\n      jump\t// in\n    tag_73:\n    tag_72:\n      swap1\n      0x00\n      mstore\n      keccak256(0x00, 0x20)\n      swap1\n      0x05\n      mul\n      add\n        /* \"contracts/Candidate.sol\":1241:1268  candidatesData[i].partyName */\n      0x02\n      add\n        /* \"contracts/Candidate.sol\":1225:1270  keccak256(bytes(candidatesData[i].partyName)) */\n      mload(0x40)\n      tag_75\n      swap2\n      swap1\n      tag_59\n      jump\t// in\n    tag_75:\n      mload(0x40)\n      dup1\n      swap2\n      sub\n      swap1\n      keccak256\n        /* \"contracts/Candidate.sol\":1225:1300  keccak256(bytes(candidatesData[i].partyName))==keccak256(bytes(_partyName)) */\n      sub\n        /* \"contracts/Candidate.sol\":1222:1371  if(keccak256(bytes(candidatesData[i].partyName))==keccak256(bytes(_partyName)))... */\n      tag_76\n      jumpi\n        /* \"contracts/Candidate.sol\":1339:1353  candidatesData */\n      0x00\n        /* \"contracts/Candidate.sol\":1354:1355  i */\n      dup2\n        /* \"contracts/Candidate.sol\":1339:1356  candidatesData[i] */\n      dup2\n      sload\n      dup2\n      lt\n      tag_77\n      jumpi\n      tag_78\n      tag_37\n      jump\t// in\n    tag_78:\n    tag_77:\n      swap1\n      0x00\n      mstore\n      keccak256(0x00, 0x20)\n      swap1\n      0x05\n      mul\n      add\n        /* \"contracts/Candidate.sol\":1332:1356  return candidatesData[i] */\n      mload(0x40)\n      dup1\n      0xa0\n      add\n      0x40\n      mstore\n      swap1\n      dup2\n      0x00\n      dup3\n      add\n      dup1\n      sload\n      tag_80\n      swap1\n      tag_40\n      jump\t// in\n    tag_80:\n      dup1\n      0x1f\n      add\n      0x20\n      dup1\n      swap2\n      div\n      mul\n      0x20\n      add\n      mload(0x40)\n      swap1\n      dup2\n      add\n      0x40\n      mstore\n      dup1\n      swap3\n      swap2\n      swap1\n      dup2\n      dup2\n      mstore\n      0x20\n      add\n      dup3\n      dup1\n      sload\n      tag_81\n      swap1\n      tag_40\n      jump\t// in\n    tag_81:\n      dup1\n      iszero\n      tag_82\n      jumpi\n      dup1\n      0x1f\n      lt\n      tag_83\n      jumpi\n      0x0100\n      dup1\n      dup4\n      sload\n      div\n      mul\n      dup4\n      mstore\n      swap2\n      0x20\n      add\n      swap2\n      jump(tag_82)\n    tag_83:\n      dup3\n      add\n      swap2\n      swap1\n      0x00\n      mstore\n      keccak256(0x00, 0x20)\n      swap1\n    tag_84:\n      dup2\n      sload\n      dup2\n      mstore\n      swap1\n      0x01\n      add\n      swap1\n      0x20\n      add\n      dup1\n      dup4\n      gt\n      tag_84\n      jumpi\n      dup3\n      swap1\n      sub\n      0x1f\n      and\n      dup3\n      add\n      swap2\n    tag_82:\n      pop\n      pop\n      pop\n      pop\n      pop\n      dup2\n      mstore\n      0x20\n      add\n      0x01\n      dup3\n      add\n      dup1\n      sload\n      tag_85\n      swap1\n      tag_40\n      jump\t// in\n    tag_85:\n      dup1\n      0x1f\n      add\n      0x20\n      dup1\n      swap2\n      div\n      mul\n      0x20\n      add\n      mload(0x40)\n      swap1\n      dup2\n      add\n      0x40\n      mstore\n      dup1\n      swap3\n      swap2\n      swap1\n      dup2\n      dup2\n      mstore\n      0x20\n      add\n      dup3\n      dup1\n      sload\n      tag_86\n      swap1\n      tag_40\n      jump\t// in\n    tag_86:\n      dup1\n      iszero\n      tag_87\n      jumpi\n      dup1\n      0x1f\n      lt\n      tag_88\n      jumpi\n      0x0100\n      dup1\n      dup4\n      sload\n      div\n      mul\n      dup4\n      mstore\n      swap2\n      0x20\n      add\n      swap2\n      jump(tag_87)\n    tag_88:\n      dup3\n      add\n      swap2\n      swap1\n      0x00\n      mstore\n      keccak256(0x00, 0x20)\n      swap1\n    tag_89:\n      dup2\n      sload\n      dup2\n      mstore\n      swap1\n      0x01\n      add\n      swap1\n      0x20\n      add\n      dup1\n      dup4\n      gt\n      tag_89\n      jumpi\n      dup3\n      swap1\n      sub\n      0x1f\n      and\n      dup3\n      add\n      swap2\n    tag_87:\n      pop\n      pop\n      pop\n      pop\n      pop\n      dup2\n      mstore\n      0x20\n      add\n      0x02\n      dup3\n      add\n      dup1\n      sload\n      tag_90\n      swap1\n      tag_40\n      jump\t// in\n    tag_90:\n      dup1\n      0x1f\n      add\n      0x20\n      dup1\n      swap2\n      div\n      mul\n      0x20\n      add\n      mload(0x40)\n      swap1\n      dup2\n      add\n      0x40\n      mstore\n      dup1\n      swap3\n      swap2\n      swap1\n      dup2\n      dup2\n      mstore\n      0x20\n      add\n      dup3\n      dup1\n      sload\n      tag_91\n      swap1\n      tag_40\n      jump\t// in\n    tag_91:\n      dup1\n      iszero\n      tag_92\n      jumpi\n      dup1\n      0x1f\n      lt\n      tag_93\n      jumpi\n      0x0100\n      dup1\n      dup4\n      sload\n      div\n      mul\n      dup4\n      mstore\n      swap2\n      0x20\n      add\n      swap2\n      jump(tag_92)\n    tag_93:\n      dup3\n      add\n      swap2\n      swap1\n      0x00\n      mstore\n      keccak256(0x00, 0x20)\n      swap1\n    tag_94:\n      dup2\n      sload\n      dup2\n      mstore\n      swap1\n      0x01\n      add\n      swap1\n      0x20\n      add\n      dup1\n      dup4\n      gt\n      tag_94\n      jumpi\n      dup3\n      swap1\n      sub\n      0x1f\n      and\n      dup3\n      add\n      swap2\n    tag_92:\n      pop\n      pop\n      pop\n      pop\n      pop\n      dup2\n      mstore\n      0x20\n      add\n      0x03\n      dup3\n      add\n      dup1\n      sload\n      tag_95\n      swap1\n      tag_40\n      jump\t// in\n    tag_95:\n      dup1\n      0x1f\n      add\n      0x20\n      dup1\n      swap2\n      div\n      mul\n      0x20\n      add\n      mload(0x40)\n      swap1\n      dup2\n      add\n      0x40\n      mstore\n      dup1\n      swap3\n      swap2\n      swap1\n      dup2\n      dup2\n      mstore\n      0x20\n      add\n      dup3\n      dup1\n      sload\n      tag_96\n      swap1\n      tag_40\n      jump\t// in\n    tag_96:\n      dup1\n      iszero\n      tag_97\n      jumpi\n      dup1\n      0x1f\n      lt\n      tag_98\n      jumpi\n      0x0100\n      dup1\n      dup4\n      sload\n      div\n      mul\n      dup4\n      mstore\n      swap2\n      0x20\n      add\n      swap2\n      jump(tag_97)\n    tag_98:\n      dup3\n      add\n      swap2\n      swap1\n      0x00\n      mstore\n      keccak256(0x00, 0x20)\n      swap1\n    tag_99:\n      dup2\n      sload\n      dup2\n      mstore\n      swap1\n      0x01\n      add\n      swap1\n      0x20\n      add\n      dup1\n      dup4\n      gt\n      tag_99\n      jumpi\n      dup3\n      swap1\n      sub\n      0x1f\n      and\n      dup3\n      add\n      swap2\n    tag_97:\n      pop\n      pop\n      pop\n      pop\n      pop\n      dup2\n      mstore\n      0x20\n      add\n      0x04\n      dup3\n      add\n      0x00\n      swap1\n      sload\n      swap1\n      0x0100\n      exp\n      swap1\n      div\n      0xffffffffffffffffffffffffffffffffffffffff\n      and\n      0xffffffffffffffffffffffffffffffffffffffff\n      and\n      0xffffffffffffffffffffffffffffffffffffffff\n      and\n      dup2\n      mstore\n      pop\n      pop\n      swap2\n      pop\n      pop\n      jump(tag_67)\n        /* \"contracts/Candidate.sol\":1222:1371  if(keccak256(bytes(candidatesData[i].partyName))==keccak256(bytes(_partyName)))... */\n    tag_76:\n        /* \"contracts/Candidate.sol\":1195:1198  i++ */\n      dup1\n      dup1\n      tag_100\n      swap1\n      tag_48\n      jump\t// in\n    tag_100:\n      swap2\n      pop\n      pop\n        /* \"contracts/Candidate.sol\":1151:1381  for (uint i = 0; i < candidatesData.length; i++)... */\n      jump(tag_68)\n    tag_69:\n      pop\n        /* \"contracts/Candidate.sol\":1022:1387  function getCandidateByPartyName(string calldata _partyName) public view returns (CandidateData memory _candidate)... */\n    tag_67:\n      swap3\n      swap2\n      pop\n      pop\n      jump\t// out\n        /* \"contracts/Candidate.sol\":458:1016  function setCandidateData(string calldata _fname, string calldata _lname, ... */\n    tag_25:\n        /* \"contracts/Candidate.sol\":677:702  electionCommissionAddress */\n      0x01\n      0x00\n      swap1\n      sload\n      swap1\n      0x0100\n      exp\n      swap1\n      div\n      0xffffffffffffffffffffffffffffffffffffffff\n      and\n        /* \"contracts/Candidate.sol\":663:702  msg.sender == electionCommissionAddress */\n      0xffffffffffffffffffffffffffffffffffffffff\n      and\n        /* \"contracts/Candidate.sol\":663:673  msg.sender */\n      caller\n        /* \"contracts/Candidate.sol\":663:702  msg.sender == electionCommissionAddress */\n      0xffffffffffffffffffffffffffffffffffffffff\n      and\n      eq\n        /* \"contracts/Candidate.sol\":655:755  require(msg.sender == electionCommissionAddress, \"Only election-commission can call this contract.\") */\n      tag_102\n      jumpi\n      mload(0x40)\n      0x08c379a000000000000000000000000000000000000000000000000000000000\n      dup2\n      mstore\n      0x04\n      add\n      tag_103\n      swap1\n      tag_104\n      jump\t// in\n    tag_103:\n      mload(0x40)\n      dup1\n      swap2\n      sub\n      swap1\n      revert\n    tag_102:\n        /* \"contracts/Candidate.sol\":765:789  CandidateData memory obj */\n      tag_105\n      tag_66\n      jump\t// in\n    tag_105:\n        /* \"contracts/Candidate.sol\":812:818  _fname */\n      dup10\n      dup10\n        /* \"contracts/Candidate.sol\":800:818  obj.fname = _fname */\n      dup1\n      dup1\n      0x1f\n      add\n      0x20\n      dup1\n      swap2\n      div\n      mul\n      0x20\n      add\n      mload(0x40)\n      swap1\n      dup2\n      add\n      0x40\n      mstore\n      dup1\n      swap4\n      swap3\n      swap2\n      swap1\n      dup2\n      dup2\n      mstore\n      0x20\n      add\n      dup4\n      dup4\n      dup1\n      dup3\n      dup5\n      calldatacopy\n      0x00\n      dup2\n      dup5\n      add\n      mstore\n      not(0x1f)\n      0x1f\n      dup3\n      add\n      and\n      swap1\n      pop\n      dup1\n      dup4\n      add\n      swap3\n      pop\n      pop\n      pop\n      pop\n      pop\n      pop\n      pop\n        /* \"contracts/Candidate.sol\":800:803  obj */\n      dup2\n        /* \"contracts/Candidate.sol\":800:809  obj.fname */\n      0x00\n      add\n        /* \"contracts/Candidate.sol\":800:818  obj.fname = _fname */\n      dup2\n      swap1\n      mstore\n      pop\n        /* \"contracts/Candidate.sol\":840:846  _lname */\n      dup8\n      dup8\n        /* \"contracts/Candidate.sol\":828:846  obj.lname = _lname */\n      dup1\n      dup1\n      0x1f\n      add\n      0x20\n      dup1\n      swap2\n      div\n      mul\n      0x20\n      add\n      mload(0x40)\n      swap1\n      dup2\n      add\n      0x40\n      mstore\n      dup1\n      swap4\n      swap3\n      swap2\n      swap1\n      dup2\n      dup2\n      mstore\n      0x20\n      add\n      dup4\n      dup4\n      dup1\n      dup3\n      dup5\n      calldatacopy\n      0x00\n      dup2\n      dup5\n      add\n      mstore\n      not(0x1f)\n      0x1f\n      dup3\n      add\n      and\n      swap1\n      pop\n      dup1\n      dup4\n      add\n      swap3\n      pop\n      pop\n      pop\n      pop\n      pop\n      pop\n      pop\n        /* \"contracts/Candidate.sol\":828:831  obj */\n      dup2\n        /* \"contracts/Candidate.sol\":828:837  obj.lname */\n      0x20\n      add\n        /* \"contracts/Candidate.sol\":828:846  obj.lname = _lname */\n      dup2\n      swap1\n      mstore\n      pop\n        /* \"contracts/Candidate.sol\":872:882  _partyName */\n      dup6\n      dup6\n        /* \"contracts/Candidate.sol\":856:882  obj.partyName = _partyName */\n      dup1\n      dup1\n      0x1f\n      add\n      0x20\n      dup1\n      swap2\n      div\n      mul\n      0x20\n      add\n      mload(0x40)\n      swap1\n      dup2\n      add\n      0x40\n      mstore\n      dup1\n      swap4\n      swap3\n      swap2\n      swap1\n      dup2\n      dup2\n      mstore\n      0x20\n      add\n      dup4\n      dup4\n      dup1\n      dup3\n      dup5\n      calldatacopy\n      0x00\n      dup2\n      dup5\n      add\n      mstore\n      not(0x1f)\n      0x1f\n      dup3\n      add\n      and\n      swap1\n      pop\n      dup1\n      dup4\n      add\n      swap3\n      pop\n      pop\n      pop\n      pop\n      pop\n      pop\n      pop\n        /* \"contracts/Candidate.sol\":856:859  obj */\n      dup2\n        /* \"contracts/Candidate.sol\":856:869  obj.partyName */\n      0x40\n      add\n        /* \"contracts/Candidate.sol\":856:882  obj.partyName = _partyName */\n      dup2\n      swap1\n      mstore\n      pop\n        /* \"contracts/Candidate.sol\":910:922  _partySymbol */\n      dup4\n      dup4\n        /* \"contracts/Candidate.sol\":892:922  obj.partySymbol = _partySymbol */\n      dup1\n      dup1\n      0x1f\n      add\n      0x20\n      dup1\n      swap2\n      div\n      mul\n      0x20\n      add\n      mload(0x40)\n      swap1\n      dup2\n      add\n      0x40\n      mstore\n      dup1\n      swap4\n      swap3\n      swap2\n      swap1\n      dup2\n      dup2\n      mstore\n      0x20\n      add\n      dup4\n      dup4\n      dup1\n      dup3\n      dup5\n      calldatacopy\n      0x00\n      dup2\n      dup5\n      add\n      mstore\n      not(0x1f)\n      0x1f\n      dup3\n      add\n      and\n      swap1\n      pop\n      dup1\n      dup4\n      add\n      swap3\n      pop\n      pop\n      pop\n      pop\n      pop\n      pop\n      pop\n        /* \"contracts/Candidate.sol\":892:895  obj */\n      dup2\n        /* \"contracts/Candidate.sol\":892:907  obj.partySymbol */\n      0x60\n      add\n        /* \"contracts/Candidate.sol\":892:922  obj.partySymbol = _partySymbol */\n      dup2\n      swap1\n      mstore\n      pop\n        /* \"contracts/Candidate.sol\":954:971  _candidateAddress */\n      dup2\n        /* \"contracts/Candidate.sol\":932:935  obj */\n      dup2\n        /* \"contracts/Candidate.sol\":932:951  obj.ethereumAddress */\n      0x80\n      add\n        /* \"contracts/Candidate.sol\":932:971  obj.ethereumAddress = _candidateAddress */\n      swap1\n      0xffffffffffffffffffffffffffffffffffffffff\n      and\n      swap1\n      dup2\n      0xffffffffffffffffffffffffffffffffffffffff\n      and\n      dup2\n      mstore\n      pop\n      pop\n        /* \"contracts/Candidate.sol\":985:999  candidatesData */\n      0x00\n        /* \"contracts/Candidate.sol\":1005:1008  obj */\n      dup2\n        /* \"contracts/Candidate.sol\":985:1009  candidatesData.push(obj) */\n      swap1\n      dup1\n      0x01\n      dup2\n      sload\n      add\n      dup1\n      dup3\n      sstore\n      dup1\n      swap2\n      pop\n      pop\n      0x01\n      swap1\n      sub\n      swap1\n      0x00\n      mstore\n      keccak256(0x00, 0x20)\n      swap1\n      0x05\n      mul\n      add\n      0x00\n      swap1\n      swap2\n      swap1\n      swap2\n      swap1\n      swap2\n      pop\n      0x00\n      dup3\n      add\n      mload\n      dup2\n      0x00\n      add\n      swap1\n      dup2\n      tag_107\n      swap2\n      swap1\n      tag_108\n      jump\t// in\n    tag_107:\n      pop\n      0x20\n      dup3\n      add\n      mload\n      dup2\n      0x01\n      add\n      swap1\n      dup2\n      tag_109\n      swap2\n      swap1\n      tag_108\n      jump\t// in\n    tag_109:\n      pop\n      0x40\n      dup3\n      add\n      mload\n      dup2\n      0x02\n      add\n      swap1\n      dup2\n      tag_110\n      swap2\n      swap1\n      tag_108\n      jump\t// in\n    tag_110:\n      pop\n      0x60\n      dup3\n      add\n      mload\n      dup2\n      0x03\n      add\n      swap1\n      dup2\n      tag_111\n      swap2\n      swap1\n      tag_108\n      jump\t// in\n    tag_111:\n      pop\n      0x80\n      dup3\n      add\n      mload\n      dup2\n      0x04\n      add\n      exp(0x0100, 0x00)\n      dup2\n      sload\n      dup2\n      0xffffffffffffffffffffffffffffffffffffffff\n      mul\n      not\n      and\n      swap1\n      dup4\n      0xffffffffffffffffffffffffffffffffffffffff\n      and\n      mul\n      or\n      swap1\n      sstore\n      pop\n      pop\n      pop\n        /* \"contracts/Candidate.sol\":641:1016  {    ... */\n      pop\n        /* \"contracts/Candidate.sol\":458:1016  function setCandidateData(string calldata _fname, string calldata _lname, ... */\n      pop\n      pop\n      pop\n      pop\n      pop\n      pop\n      pop\n      pop\n      pop\n      jump\t// out\n    tag_66:\n      mload(0x40)\n      dup1\n      0xa0\n      add\n      0x40\n      mstore\n      dup1\n      0x60\n      dup2\n      mstore\n      0x20\n      add\n      0x60\n      dup2\n      mstore\n      0x20\n      add\n      0x60\n      dup2\n      mstore\n      0x20\n      add\n      0x60\n      dup2\n      mstore\n      0x20\n      add\n      and(0xffffffffffffffffffffffffffffffffffffffff, 0x00)\n      dup2\n      mstore\n      pop\n      swap1\n      jump\t// out\n        /* \"#utility.yul\":7:131   */\n    tag_112:\n        /* \"#utility.yul\":84:90   */\n      0x00\n        /* \"#utility.yul\":118:123   */\n      dup2\n        /* \"#utility.yul\":112:124   */\n      mload\n        /* \"#utility.yul\":102:124   */\n      swap1\n      pop\n        /* \"#utility.yul\":7:131   */\n      swap2\n      swap1\n      pop\n      jump\t// out\n        /* \"#utility.yul\":137:331   */\n    tag_113:\n        /* \"#utility.yul\":246:257   */\n      0x00\n        /* \"#utility.yul\":280:286   */\n      dup3\n        /* \"#utility.yul\":275:278   */\n      dup3\n        /* \"#utility.yul\":268:287   */\n      mstore\n        /* \"#utility.yul\":320:324   */\n      0x20\n        /* \"#utility.yul\":315:318   */\n      dup3\n        /* \"#utility.yul\":311:325   */\n      add\n        /* \"#utility.yul\":296:325   */\n      swap1\n      pop\n        /* \"#utility.yul\":137:331   */\n      swap3\n      swap2\n      pop\n      pop\n      jump\t// out\n        /* \"#utility.yul\":337:479   */\n    tag_114:\n        /* \"#utility.yul\":414:418   */\n      0x00\n        /* \"#utility.yul\":437:440   */\n      dup2\n        /* \"#utility.yul\":429:440   */\n      swap1\n      pop\n        /* \"#utility.yul\":467:471   */\n      0x20\n        /* \"#utility.yul\":462:465   */\n      dup3\n        /* \"#utility.yul\":458:472   */\n      add\n        /* \"#utility.yul\":450:472   */\n      swap1\n      pop\n        /* \"#utility.yul\":337:479   */\n      swap2\n      swap1\n      pop\n      jump\t// out\n        /* \"#utility.yul\":485:584   */\n    tag_115:\n        /* \"#utility.yul\":537:543   */\n      0x00\n        /* \"#utility.yul\":571:576   */\n      dup2\n        /* \"#utility.yul\":565:577   */\n      mload\n        /* \"#utility.yul\":555:577   */\n      swap1\n      pop\n        /* \"#utility.yul\":485:584   */\n      swap2\n      swap1\n      pop\n      jump\t// out\n        /* \"#utility.yul\":590:749   */\n    tag_116:\n        /* \"#utility.yul\":664:675   */\n      0x00\n        /* \"#utility.yul\":698:704   */\n      dup3\n        /* \"#utility.yul\":693:696   */\n      dup3\n        /* \"#utility.yul\":686:705   */\n      mstore\n        /* \"#utility.yul\":738:742   */\n      0x20\n        /* \"#utility.yul\":733:736   */\n      dup3\n        /* \"#utility.yul\":729:743   */\n      add\n        /* \"#utility.yul\":714:743   */\n      swap1\n      pop\n        /* \"#utility.yul\":590:749   */\n      swap3\n      swap2\n      pop\n      pop\n      jump\t// out\n        /* \"#utility.yul\":755:1001   */\n    tag_117:\n        /* \"#utility.yul\":836:837   */\n      0x00\n        /* \"#utility.yul\":846:959   */\n    tag_170:\n        /* \"#utility.yul\":860:866   */\n      dup4\n        /* \"#utility.yul\":857:858   */\n      dup2\n        /* \"#utility.yul\":854:867   */\n      lt\n        /* \"#utility.yul\":846:959   */\n      iszero\n      tag_172\n      jumpi\n        /* \"#utility.yul\":945:946   */\n      dup1\n        /* \"#utility.yul\":940:943   */\n      dup3\n        /* \"#utility.yul\":936:947   */\n      add\n        /* \"#utility.yul\":930:948   */\n      mload\n        /* \"#utility.yul\":926:927   */\n      dup2\n        /* \"#utility.yul\":921:924   */\n      dup5\n        /* \"#utility.yul\":917:928   */\n      add\n        /* \"#utility.yul\":910:949   */\n      mstore\n        /* \"#utility.yul\":882:884   */\n      0x20\n        /* \"#utility.yul\":879:880   */\n      dup2\n        /* \"#utility.yul\":875:885   */\n      add\n        /* \"#utility.yul\":870:885   */\n      swap1\n      pop\n        /* \"#utility.yul\":846:959   */\n      jump(tag_170)\n    tag_172:\n        /* \"#utility.yul\":993:994   */\n      0x00\n        /* \"#utility.yul\":984:990   */\n      dup5\n        /* \"#utility.yul\":979:982   */\n      dup5\n        /* \"#utility.yul\":975:991   */\n      add\n        /* \"#utility.yul\":968:995   */\n      mstore\n        /* \"#utility.yul\":817:1001   */\n      pop\n        /* \"#utility.yul\":755:1001   */\n      pop\n      pop\n      pop\n      jump\t// out\n        /* \"#utility.yul\":1007:1109   */\n    tag_118:\n        /* \"#utility.yul\":1048:1054   */\n      0x00\n        /* \"#utility.yul\":1099:1101   */\n      0x1f\n        /* \"#utility.yul\":1095:1102   */\n      not\n        /* \"#utility.yul\":1090:1092   */\n      0x1f\n        /* \"#utility.yul\":1083:1088   */\n      dup4\n        /* \"#utility.yul\":1079:1093   */\n      add\n        /* \"#utility.yul\":1075:1103   */\n      and\n        /* \"#utility.yul\":1065:1103   */\n      swap1\n      pop\n        /* \"#utility.yul\":1007:1109   */\n      swap2\n      swap1\n      pop\n      jump\t// out\n        /* \"#utility.yul\":1115:1472   */\n    tag_119:\n        /* \"#utility.yul\":1193:1196   */\n      0x00\n        /* \"#utility.yul\":1221:1260   */\n      tag_175\n        /* \"#utility.yul\":1254:1259   */\n      dup3\n        /* \"#utility.yul\":1221:1260   */\n      tag_115\n      jump\t// in\n    tag_175:\n        /* \"#utility.yul\":1276:1337   */\n      tag_176\n        /* \"#utility.yul\":1330:1336   */\n      dup2\n        /* \"#utility.yul\":1325:1328   */\n      dup6\n        /* \"#utility.yul\":1276:1337   */\n      tag_116\n      jump\t// in\n    tag_176:\n        /* \"#utility.yul\":1269:1337   */\n      swap4\n      pop\n        /* \"#utility.yul\":1346:1411   */\n      tag_177\n        /* \"#utility.yul\":1404:1410   */\n      dup2\n        /* \"#utility.yul\":1399:1402   */\n      dup6\n        /* \"#utility.yul\":1392:1396   */\n      0x20\n        /* \"#utility.yul\":1385:1390   */\n      dup7\n        /* \"#utility.yul\":1381:1397   */\n      add\n        /* \"#utility.yul\":1346:1411   */\n      tag_117\n      jump\t// in\n    tag_177:\n        /* \"#utility.yul\":1436:1465   */\n      tag_178\n        /* \"#utility.yul\":1458:1464   */\n      dup2\n        /* \"#utility.yul\":1436:1465   */\n      tag_118\n      jump\t// in\n    tag_178:\n        /* \"#utility.yul\":1431:1434   */\n      dup5\n        /* \"#utility.yul\":1427:1466   */\n      add\n        /* \"#utility.yul\":1420:1466   */\n      swap2\n      pop\n        /* \"#utility.yul\":1197:1472   */\n      pop\n        /* \"#utility.yul\":1115:1472   */\n      swap3\n      swap2\n      pop\n      pop\n      jump\t// out\n        /* \"#utility.yul\":1478:1674   */\n    tag_120:\n        /* \"#utility.yul\":1567:1577   */\n      0x00\n        /* \"#utility.yul\":1602:1668   */\n      tag_180\n        /* \"#utility.yul\":1664:1667   */\n      dup4\n        /* \"#utility.yul\":1656:1662   */\n      dup4\n        /* \"#utility.yul\":1602:1668   */\n      tag_119\n      jump\t// in\n    tag_180:\n        /* \"#utility.yul\":1588:1668   */\n      swap1\n      pop\n        /* \"#utility.yul\":1478:1674   */\n      swap3\n      swap2\n      pop\n      pop\n      jump\t// out\n        /* \"#utility.yul\":1680:1803   */\n    tag_121:\n        /* \"#utility.yul\":1760:1764   */\n      0x00\n        /* \"#utility.yul\":1792:1796   */\n      0x20\n        /* \"#utility.yul\":1787:1790   */\n      dup3\n        /* \"#utility.yul\":1783:1797   */\n      add\n        /* \"#utility.yul\":1775:1797   */\n      swap1\n      pop\n        /* \"#utility.yul\":1680:1803   */\n      swap2\n      swap1\n      pop\n      jump\t// out\n        /* \"#utility.yul\":1837:2828   */\n    tag_122:\n        /* \"#utility.yul\":1976:1979   */\n      0x00\n        /* \"#utility.yul\":2005:2069   */\n      tag_183\n        /* \"#utility.yul\":2063:2068   */\n      dup3\n        /* \"#utility.yul\":2005:2069   */\n      tag_112\n      jump\t// in\n    tag_183:\n        /* \"#utility.yul\":2085:2181   */\n      tag_184\n        /* \"#utility.yul\":2174:2180   */\n      dup2\n        /* \"#utility.yul\":2169:2172   */\n      dup6\n        /* \"#utility.yul\":2085:2181   */\n      tag_113\n      jump\t// in\n    tag_184:\n        /* \"#utility.yul\":2078:2181   */\n      swap4\n      pop\n        /* \"#utility.yul\":2207:2210   */\n      dup4\n        /* \"#utility.yul\":2252:2256   */\n      0x20\n        /* \"#utility.yul\":2244:2250   */\n      dup3\n        /* \"#utility.yul\":2240:2257   */\n      mul\n        /* \"#utility.yul\":2235:2238   */\n      dup6\n        /* \"#utility.yul\":2231:2258   */\n      add\n        /* \"#utility.yul\":2282:2348   */\n      tag_185\n        /* \"#utility.yul\":2342:2347   */\n      dup6\n        /* \"#utility.yul\":2282:2348   */\n      tag_114\n      jump\t// in\n    tag_185:\n        /* \"#utility.yul\":2371:2378   */\n      dup1\n        /* \"#utility.yul\":2402:2403   */\n      0x00\n        /* \"#utility.yul\":2387:2783   */\n    tag_186:\n        /* \"#utility.yul\":2412:2418   */\n      dup6\n        /* \"#utility.yul\":2409:2410   */\n      dup2\n        /* \"#utility.yul\":2406:2419   */\n      lt\n        /* \"#utility.yul\":2387:2783   */\n      iszero\n      tag_188\n      jumpi\n        /* \"#utility.yul\":2483:2492   */\n      dup5\n        /* \"#utility.yul\":2477:2481   */\n      dup5\n        /* \"#utility.yul\":2473:2493   */\n      sub\n        /* \"#utility.yul\":2468:2471   */\n      dup10\n        /* \"#utility.yul\":2461:2494   */\n      mstore\n        /* \"#utility.yul\":2534:2540   */\n      dup2\n        /* \"#utility.yul\":2528:2541   */\n      mload\n        /* \"#utility.yul\":2562:2646   */\n      tag_189\n        /* \"#utility.yul\":2641:2645   */\n      dup6\n        /* \"#utility.yul\":2626:2639   */\n      dup3\n        /* \"#utility.yul\":2562:2646   */\n      tag_120\n      jump\t// in\n    tag_189:\n        /* \"#utility.yul\":2554:2646   */\n      swap5\n      pop\n        /* \"#utility.yul\":2669:2739   */\n      tag_190\n        /* \"#utility.yul\":2732:2738   */\n      dup4\n        /* \"#utility.yul\":2669:2739   */\n      tag_121\n      jump\t// in\n    tag_190:\n        /* \"#utility.yul\":2659:2739   */\n      swap3\n      pop\n        /* \"#utility.yul\":2768:2772   */\n      0x20\n        /* \"#utility.yul\":2763:2766   */\n      dup11\n        /* \"#utility.yul\":2759:2773   */\n      add\n        /* \"#utility.yul\":2752:2773   */\n      swap10\n      pop\n        /* \"#utility.yul\":2447:2783   */\n      pop\n        /* \"#utility.yul\":2434:2435   */\n      0x01\n        /* \"#utility.yul\":2431:2432   */\n      dup2\n        /* \"#utility.yul\":2427:2436   */\n      add\n        /* \"#utility.yul\":2422:2436   */\n      swap1\n      pop\n        /* \"#utility.yul\":2387:2783   */\n      jump(tag_186)\n    tag_188:\n        /* \"#utility.yul\":2391:2405   */\n      pop\n        /* \"#utility.yul\":2799:2803   */\n      dup3\n        /* \"#utility.yul\":2792:2803   */\n      swap8\n      pop\n        /* \"#utility.yul\":2819:2822   */\n      dup8\n        /* \"#utility.yul\":2812:2822   */\n      swap6\n      pop\n        /* \"#utility.yul\":1981:2828   */\n      pop\n      pop\n      pop\n      pop\n      pop\n        /* \"#utility.yul\":1837:2828   */\n      swap3\n      swap2\n      pop\n      pop\n      jump\t// out\n        /* \"#utility.yul\":2834:3247   */\n    tag_10:\n        /* \"#utility.yul\":2997:3001   */\n      0x00\n        /* \"#utility.yul\":3035:3037   */\n      0x20\n        /* \"#utility.yul\":3024:3033   */\n      dup3\n        /* \"#utility.yul\":3020:3038   */\n      add\n        /* \"#utility.yul\":3012:3038   */\n      swap1\n      pop\n        /* \"#utility.yul\":3084:3093   */\n      dup2\n        /* \"#utility.yul\":3078:3082   */\n      dup2\n        /* \"#utility.yul\":3074:3094   */\n      sub\n        /* \"#utility.yul\":3070:3071   */\n      0x00\n        /* \"#utility.yul\":3059:3068   */\n      dup4\n        /* \"#utility.yul\":3055:3072   */\n      add\n        /* \"#utility.yul\":3048:3095   */\n      mstore\n        /* \"#utility.yul\":3112:3240   */\n      tag_192\n        /* \"#utility.yul\":3235:3239   */\n      dup2\n        /* \"#utility.yul\":3226:3232   */\n      dup5\n        /* \"#utility.yul\":3112:3240   */\n      tag_122\n      jump\t// in\n    tag_192:\n        /* \"#utility.yul\":3104:3240   */\n      swap1\n      pop\n        /* \"#utility.yul\":2834:3247   */\n      swap3\n      swap2\n      pop\n      pop\n      jump\t// out\n        /* \"#utility.yul\":3334:3451   */\n    tag_124:\n        /* \"#utility.yul\":3443:3444   */\n      0x00\n        /* \"#utility.yul\":3440:3441   */\n      dup1\n        /* \"#utility.yul\":3433:3445   */\n      revert\n        /* \"#utility.yul\":3457:3574   */\n    tag_125:\n        /* \"#utility.yul\":3566:3567   */\n      0x00\n        /* \"#utility.yul\":3563:3564   */\n      dup1\n        /* \"#utility.yul\":3556:3568   */\n      revert\n        /* \"#utility.yul\":3580:3697   */\n    tag_126:\n        /* \"#utility.yul\":3689:3690   */\n      0x00\n        /* \"#utility.yul\":3686:3687   */\n      dup1\n        /* \"#utility.yul\":3679:3691   */\n      revert\n        /* \"#utility.yul\":3703:3820   */\n    tag_127:\n        /* \"#utility.yul\":3812:3813   */\n      0x00\n        /* \"#utility.yul\":3809:3810   */\n      dup1\n        /* \"#utility.yul\":3802:3814   */\n      revert\n        /* \"#utility.yul\":3826:3943   */\n    tag_128:\n        /* \"#utility.yul\":3935:3936   */\n      0x00\n        /* \"#utility.yul\":3932:3933   */\n      dup1\n        /* \"#utility.yul\":3925:3937   */\n      revert\n        /* \"#utility.yul\":3963:4516   */\n    tag_129:\n        /* \"#utility.yul\":4021:4029   */\n      0x00\n        /* \"#utility.yul\":4031:4037   */\n      dup1\n        /* \"#utility.yul\":4081:4084   */\n      dup4\n        /* \"#utility.yul\":4074:4078   */\n      0x1f\n        /* \"#utility.yul\":4066:4072   */\n      dup5\n        /* \"#utility.yul\":4062:4079   */\n      add\n        /* \"#utility.yul\":4058:4085   */\n      slt\n        /* \"#utility.yul\":4048:4170   */\n      tag_200\n      jumpi\n        /* \"#utility.yul\":4089:4168   */\n      tag_201\n      tag_126\n      jump\t// in\n    tag_201:\n        /* \"#utility.yul\":4048:4170   */\n    tag_200:\n        /* \"#utility.yul\":4202:4208   */\n      dup3\n        /* \"#utility.yul\":4189:4209   */\n      calldataload\n        /* \"#utility.yul\":4179:4209   */\n      swap1\n      pop\n        /* \"#utility.yul\":4232:4250   */\n      0xffffffffffffffff\n        /* \"#utility.yul\":4224:4230   */\n      dup2\n        /* \"#utility.yul\":4221:4251   */\n      gt\n        /* \"#utility.yul\":4218:4335   */\n      iszero\n      tag_202\n      jumpi\n        /* \"#utility.yul\":4254:4333   */\n      tag_203\n      tag_127\n      jump\t// in\n    tag_203:\n        /* \"#utility.yul\":4218:4335   */\n    tag_202:\n        /* \"#utility.yul\":4368:4372   */\n      0x20\n        /* \"#utility.yul\":4360:4366   */\n      dup4\n        /* \"#utility.yul\":4356:4373   */\n      add\n        /* \"#utility.yul\":4344:4373   */\n      swap2\n      pop\n        /* \"#utility.yul\":4422:4425   */\n      dup4\n        /* \"#utility.yul\":4414:4418   */\n      0x01\n        /* \"#utility.yul\":4406:4412   */\n      dup3\n        /* \"#utility.yul\":4402:4419   */\n      mul\n        /* \"#utility.yul\":4392:4400   */\n      dup4\n        /* \"#utility.yul\":4388:4420   */\n      add\n        /* \"#utility.yul\":4385:4426   */\n      gt\n        /* \"#utility.yul\":4382:4510   */\n      iszero\n      tag_204\n      jumpi\n        /* \"#utility.yul\":4429:4508   */\n      tag_205\n      tag_128\n      jump\t// in\n    tag_205:\n        /* \"#utility.yul\":4382:4510   */\n    tag_204:\n        /* \"#utility.yul\":3963:4516   */\n      swap3\n      pop\n      swap3\n      swap1\n      pop\n      jump\t// out\n        /* \"#utility.yul\":4522:5051   */\n    tag_13:\n        /* \"#utility.yul\":4593:4599   */\n      0x00\n        /* \"#utility.yul\":4601:4607   */\n      dup1\n        /* \"#utility.yul\":4650:4652   */\n      0x20\n        /* \"#utility.yul\":4638:4647   */\n      dup4\n        /* \"#utility.yul\":4629:4636   */\n      dup6\n        /* \"#utility.yul\":4625:4648   */\n      sub\n        /* \"#utility.yul\":4621:4653   */\n      slt\n        /* \"#utility.yul\":4618:4737   */\n      iszero\n      tag_207\n      jumpi\n        /* \"#utility.yul\":4656:4735   */\n      tag_208\n      tag_124\n      jump\t// in\n    tag_208:\n        /* \"#utility.yul\":4618:4737   */\n    tag_207:\n        /* \"#utility.yul\":4804:4805   */\n      0x00\n        /* \"#utility.yul\":4793:4802   */\n      dup4\n        /* \"#utility.yul\":4789:4806   */\n      add\n        /* \"#utility.yul\":4776:4807   */\n      calldataload\n        /* \"#utility.yul\":4834:4852   */\n      0xffffffffffffffff\n        /* \"#utility.yul\":4826:4832   */\n      dup2\n        /* \"#utility.yul\":4823:4853   */\n      gt\n        /* \"#utility.yul\":4820:4937   */\n      iszero\n      tag_209\n      jumpi\n        /* \"#utility.yul\":4856:4935   */\n      tag_210\n      tag_125\n      jump\t// in\n    tag_210:\n        /* \"#utility.yul\":4820:4937   */\n    tag_209:\n        /* \"#utility.yul\":4969:5034   */\n      tag_211\n        /* \"#utility.yul\":5026:5033   */\n      dup6\n        /* \"#utility.yul\":5017:5023   */\n      dup3\n        /* \"#utility.yul\":5006:5015   */\n      dup7\n        /* \"#utility.yul\":5002:5024   */\n      add\n        /* \"#utility.yul\":4969:5034   */\n      tag_129\n      jump\t// in\n    tag_211:\n        /* \"#utility.yul\":4951:5034   */\n      swap3\n      pop\n      swap3\n      pop\n        /* \"#utility.yul\":4747:5044   */\n      pop\n        /* \"#utility.yul\":4522:5051   */\n      swap3\n      pop\n      swap3\n      swap1\n      pop\n      jump\t// out\n        /* \"#utility.yul\":5057:5183   */\n    tag_130:\n        /* \"#utility.yul\":5094:5101   */\n      0x00\n        /* \"#utility.yul\":5134:5176   */\n      0xffffffffffffffffffffffffffffffffffffffff\n        /* \"#utility.yul\":5127:5132   */\n      dup3\n        /* \"#utility.yul\":5123:5177   */\n      and\n        /* \"#utility.yul\":5112:5177   */\n      swap1\n      pop\n        /* \"#utility.yul\":5057:5183   */\n      swap2\n      swap1\n      pop\n      jump\t// out\n        /* \"#utility.yul\":5189:5285   */\n    tag_131:\n        /* \"#utility.yul\":5226:5233   */\n      0x00\n        /* \"#utility.yul\":5255:5279   */\n      tag_214\n        /* \"#utility.yul\":5273:5278   */\n      dup3\n        /* \"#utility.yul\":5255:5279   */\n      tag_130\n      jump\t// in\n    tag_214:\n        /* \"#utility.yul\":5244:5279   */\n      swap1\n      pop\n        /* \"#utility.yul\":5189:5285   */\n      swap2\n      swap1\n      pop\n      jump\t// out\n        /* \"#utility.yul\":5291:5409   */\n    tag_132:\n        /* \"#utility.yul\":5378:5402   */\n      tag_216\n        /* \"#utility.yul\":5396:5401   */\n      dup2\n        /* \"#utility.yul\":5378:5402   */\n      tag_131\n      jump\t// in\n    tag_216:\n        /* \"#utility.yul\":5373:5376   */\n      dup3\n        /* \"#utility.yul\":5366:5403   */\n      mstore\n        /* \"#utility.yul\":5291:5409   */\n      pop\n      pop\n      jump\t// out\n        /* \"#utility.yul\":5415:5637   */\n    tag_16:\n        /* \"#utility.yul\":5508:5512   */\n      0x00\n        /* \"#utility.yul\":5546:5548   */\n      0x20\n        /* \"#utility.yul\":5535:5544   */\n      dup3\n        /* \"#utility.yul\":5531:5549   */\n      add\n        /* \"#utility.yul\":5523:5549   */\n      swap1\n      pop\n        /* \"#utility.yul\":5559:5630   */\n      tag_218\n        /* \"#utility.yul\":5627:5628   */\n      0x00\n        /* \"#utility.yul\":5616:5625   */\n      dup4\n        /* \"#utility.yul\":5612:5629   */\n      add\n        /* \"#utility.yul\":5603:5609   */\n      dup5\n        /* \"#utility.yul\":5559:5630   */\n      tag_132\n      jump\t// in\n    tag_218:\n        /* \"#utility.yul\":5415:5637   */\n      swap3\n      swap2\n      pop\n      pop\n      jump\t// out\n        /* \"#utility.yul\":5643:5751   */\n    tag_133:\n        /* \"#utility.yul\":5720:5744   */\n      tag_220\n        /* \"#utility.yul\":5738:5743   */\n      dup2\n        /* \"#utility.yul\":5720:5744   */\n      tag_131\n      jump\t// in\n    tag_220:\n        /* \"#utility.yul\":5715:5718   */\n      dup3\n        /* \"#utility.yul\":5708:5745   */\n      mstore\n        /* \"#utility.yul\":5643:5751   */\n      pop\n      pop\n      jump\t// out\n        /* \"#utility.yul\":5845:7219   */\n    tag_134:\n        /* \"#utility.yul\":5972:5975   */\n      0x00\n        /* \"#utility.yul\":6008:6012   */\n      0xa0\n        /* \"#utility.yul\":6003:6006   */\n      dup4\n        /* \"#utility.yul\":5999:6013   */\n      add\n        /* \"#utility.yul\":6096:6100   */\n      0x00\n        /* \"#utility.yul\":6089:6094   */\n      dup4\n        /* \"#utility.yul\":6085:6101   */\n      add\n        /* \"#utility.yul\":6079:6102   */\n      mload\n        /* \"#utility.yul\":6149:6152   */\n      dup5\n        /* \"#utility.yul\":6143:6147   */\n      dup3\n        /* \"#utility.yul\":6139:6153   */\n      sub\n        /* \"#utility.yul\":6132:6136   */\n      0x00\n        /* \"#utility.yul\":6127:6130   */\n      dup7\n        /* \"#utility.yul\":6123:6137   */\n      add\n        /* \"#utility.yul\":6116:6154   */\n      mstore\n        /* \"#utility.yul\":6175:6248   */\n      tag_222\n        /* \"#utility.yul\":6243:6247   */\n      dup3\n        /* \"#utility.yul\":6229:6241   */\n      dup3\n        /* \"#utility.yul\":6175:6248   */\n      tag_119\n      jump\t// in\n    tag_222:\n        /* \"#utility.yul\":6167:6248   */\n      swap2\n      pop\n        /* \"#utility.yul\":6023:6259   */\n      pop\n        /* \"#utility.yul\":6342:6346   */\n      0x20\n        /* \"#utility.yul\":6335:6340   */\n      dup4\n        /* \"#utility.yul\":6331:6347   */\n      add\n        /* \"#utility.yul\":6325:6348   */\n      mload\n        /* \"#utility.yul\":6395:6398   */\n      dup5\n        /* \"#utility.yul\":6389:6393   */\n      dup3\n        /* \"#utility.yul\":6385:6399   */\n      sub\n        /* \"#utility.yul\":6378:6382   */\n      0x20\n        /* \"#utility.yul\":6373:6376   */\n      dup7\n        /* \"#utility.yul\":6369:6383   */\n      add\n        /* \"#utility.yul\":6362:6400   */\n      mstore\n        /* \"#utility.yul\":6421:6494   */\n      tag_223\n        /* \"#utility.yul\":6489:6493   */\n      dup3\n        /* \"#utility.yul\":6475:6487   */\n      dup3\n        /* \"#utility.yul\":6421:6494   */\n      tag_119\n      jump\t// in\n    tag_223:\n        /* \"#utility.yul\":6413:6494   */\n      swap2\n      pop\n        /* \"#utility.yul\":6269:6505   */\n      pop\n        /* \"#utility.yul\":6592:6596   */\n      0x40\n        /* \"#utility.yul\":6585:6590   */\n      dup4\n        /* \"#utility.yul\":6581:6597   */\n      add\n        /* \"#utility.yul\":6575:6598   */\n      mload\n        /* \"#utility.yul\":6645:6648   */\n      dup5\n        /* \"#utility.yul\":6639:6643   */\n      dup3\n        /* \"#utility.yul\":6635:6649   */\n      sub\n        /* \"#utility.yul\":6628:6632   */\n      0x40\n        /* \"#utility.yul\":6623:6626   */\n      dup7\n        /* \"#utility.yul\":6619:6633   */\n      add\n        /* \"#utility.yul\":6612:6650   */\n      mstore\n        /* \"#utility.yul\":6671:6744   */\n      tag_224\n        /* \"#utility.yul\":6739:6743   */\n      dup3\n        /* \"#utility.yul\":6725:6737   */\n      dup3\n        /* \"#utility.yul\":6671:6744   */\n      tag_119\n      jump\t// in\n    tag_224:\n        /* \"#utility.yul\":6663:6744   */\n      swap2\n      pop\n        /* \"#utility.yul\":6515:6755   */\n      pop\n        /* \"#utility.yul\":6844:6848   */\n      0x60\n        /* \"#utility.yul\":6837:6842   */\n      dup4\n        /* \"#utility.yul\":6833:6849   */\n      add\n        /* \"#utility.yul\":6827:6850   */\n      mload\n        /* \"#utility.yul\":6897:6900   */\n      dup5\n        /* \"#utility.yul\":6891:6895   */\n      dup3\n        /* \"#utility.yul\":6887:6901   */\n      sub\n        /* \"#utility.yul\":6880:6884   */\n      0x60\n        /* \"#utility.yul\":6875:6878   */\n      dup7\n        /* \"#utility.yul\":6871:6885   */\n      add\n        /* \"#utility.yul\":6864:6902   */\n      mstore\n        /* \"#utility.yul\":6923:6996   */\n      tag_225\n        /* \"#utility.yul\":6991:6995   */\n      dup3\n        /* \"#utility.yul\":6977:6989   */\n      dup3\n        /* \"#utility.yul\":6923:6996   */\n      tag_119\n      jump\t// in\n    tag_225:\n        /* \"#utility.yul\":6915:6996   */\n      swap2\n      pop\n        /* \"#utility.yul\":6765:7007   */\n      pop\n        /* \"#utility.yul\":7100:7104   */\n      0x80\n        /* \"#utility.yul\":7093:7098   */\n      dup4\n        /* \"#utility.yul\":7089:7105   */\n      add\n        /* \"#utility.yul\":7083:7106   */\n      mload\n        /* \"#utility.yul\":7119:7182   */\n      tag_226\n        /* \"#utility.yul\":7176:7180   */\n      0x80\n        /* \"#utility.yul\":7171:7174   */\n      dup7\n        /* \"#utility.yul\":7167:7181   */\n      add\n        /* \"#utility.yul\":7153:7165   */\n      dup3\n        /* \"#utility.yul\":7119:7182   */\n      tag_133\n      jump\t// in\n    tag_226:\n        /* \"#utility.yul\":7017:7192   */\n      pop\n        /* \"#utility.yul\":7209:7213   */\n      dup1\n        /* \"#utility.yul\":7202:7213   */\n      swap2\n      pop\n        /* \"#utility.yul\":5977:7219   */\n      pop\n        /* \"#utility.yul\":5845:7219   */\n      swap3\n      swap2\n      pop\n      pop\n      jump\t// out\n        /* \"#utility.yul\":7225:7614   */\n    tag_21:\n        /* \"#utility.yul\":7376:7380   */\n      0x00\n        /* \"#utility.yul\":7414:7416   */\n      0x20\n        /* \"#utility.yul\":7403:7412   */\n      dup3\n        /* \"#utility.yul\":7399:7417   */\n      add\n        /* \"#utility.yul\":7391:7417   */\n      swap1\n      pop\n        /* \"#utility.yul\":7463:7472   */\n      dup2\n        /* \"#utility.yul\":7457:7461   */\n      dup2\n        /* \"#utility.yul\":7453:7473   */\n      sub\n        /* \"#utility.yul\":7449:7450   */\n      0x00\n        /* \"#utility.yul\":7438:7447   */\n      dup4\n        /* \"#utility.yul\":7434:7451   */\n      add\n        /* \"#utility.yul\":7427:7474   */\n      mstore\n        /* \"#utility.yul\":7491:7607   */\n      tag_228\n        /* \"#utility.yul\":7602:7606   */\n      dup2\n        /* \"#utility.yul\":7593:7599   */\n      dup5\n        /* \"#utility.yul\":7491:7607   */\n      tag_134\n      jump\t// in\n    tag_228:\n        /* \"#utility.yul\":7483:7607   */\n      swap1\n      pop\n        /* \"#utility.yul\":7225:7614   */\n      swap3\n      swap2\n      pop\n      pop\n      jump\t// out\n        /* \"#utility.yul\":7620:7742   */\n    tag_135:\n        /* \"#utility.yul\":7693:7717   */\n      tag_230\n        /* \"#utility.yul\":7711:7716   */\n      dup2\n        /* \"#utility.yul\":7693:7717   */\n      tag_131\n      jump\t// in\n    tag_230:\n        /* \"#utility.yul\":7686:7691   */\n      dup2\n        /* \"#utility.yul\":7683:7718   */\n      eq\n        /* \"#utility.yul\":7673:7736   */\n      tag_231\n      jumpi\n        /* \"#utility.yul\":7732:7733   */\n      0x00\n        /* \"#utility.yul\":7729:7730   */\n      dup1\n        /* \"#utility.yul\":7722:7734   */\n      revert\n        /* \"#utility.yul\":7673:7736   */\n    tag_231:\n        /* \"#utility.yul\":7620:7742   */\n      pop\n      jump\t// out\n        /* \"#utility.yul\":7748:7887   */\n    tag_136:\n        /* \"#utility.yul\":7794:7799   */\n      0x00\n        /* \"#utility.yul\":7832:7838   */\n      dup2\n        /* \"#utility.yul\":7819:7839   */\n      calldataload\n        /* \"#utility.yul\":7810:7839   */\n      swap1\n      pop\n        /* \"#utility.yul\":7848:7881   */\n      tag_233\n        /* \"#utility.yul\":7875:7880   */\n      dup2\n        /* \"#utility.yul\":7848:7881   */\n      tag_135\n      jump\t// in\n    tag_233:\n        /* \"#utility.yul\":7748:7887   */\n      swap3\n      swap2\n      pop\n      pop\n      jump\t// out\n        /* \"#utility.yul\":7893:9604   */\n    tag_24:\n        /* \"#utility.yul\":8036:8042   */\n      0x00\n        /* \"#utility.yul\":8044:8050   */\n      dup1\n        /* \"#utility.yul\":8052:8058   */\n      0x00\n        /* \"#utility.yul\":8060:8066   */\n      dup1\n        /* \"#utility.yul\":8068:8074   */\n      0x00\n        /* \"#utility.yul\":8076:8082   */\n      dup1\n        /* \"#utility.yul\":8084:8090   */\n      0x00\n        /* \"#utility.yul\":8092:8098   */\n      dup1\n        /* \"#utility.yul\":8100:8106   */\n      0x00\n        /* \"#utility.yul\":8149:8152   */\n      0xa0\n        /* \"#utility.yul\":8137:8146   */\n      dup11\n        /* \"#utility.yul\":8128:8135   */\n      dup13\n        /* \"#utility.yul\":8124:8147   */\n      sub\n        /* \"#utility.yul\":8120:8153   */\n      slt\n        /* \"#utility.yul\":8117:8237   */\n      iszero\n      tag_235\n      jumpi\n        /* \"#utility.yul\":8156:8235   */\n      tag_236\n      tag_124\n      jump\t// in\n    tag_236:\n        /* \"#utility.yul\":8117:8237   */\n    tag_235:\n        /* \"#utility.yul\":8304:8305   */\n      0x00\n        /* \"#utility.yul\":8293:8302   */\n      dup11\n        /* \"#utility.yul\":8289:8306   */\n      add\n        /* \"#utility.yul\":8276:8307   */\n      calldataload\n        /* \"#utility.yul\":8334:8352   */\n      0xffffffffffffffff\n        /* \"#utility.yul\":8326:8332   */\n      dup2\n        /* \"#utility.yul\":8323:8353   */\n      gt\n        /* \"#utility.yul\":8320:8437   */\n      iszero\n      tag_237\n      jumpi\n        /* \"#utility.yul\":8356:8435   */\n      tag_238\n      tag_125\n      jump\t// in\n    tag_238:\n        /* \"#utility.yul\":8320:8437   */\n    tag_237:\n        /* \"#utility.yul\":8469:8534   */\n      tag_239\n        /* \"#utility.yul\":8526:8533   */\n      dup13\n        /* \"#utility.yul\":8517:8523   */\n      dup3\n        /* \"#utility.yul\":8506:8515   */\n      dup14\n        /* \"#utility.yul\":8502:8524   */\n      add\n        /* \"#utility.yul\":8469:8534   */\n      tag_129\n      jump\t// in\n    tag_239:\n        /* \"#utility.yul\":8451:8534   */\n      swap10\n      pop\n      swap10\n      pop\n        /* \"#utility.yul\":8247:8544   */\n      pop\n        /* \"#utility.yul\":8611:8613   */\n      0x20\n        /* \"#utility.yul\":8600:8609   */\n      dup11\n        /* \"#utility.yul\":8596:8614   */\n      add\n        /* \"#utility.yul\":8583:8615   */\n      calldataload\n        /* \"#utility.yul\":8642:8660   */\n      0xffffffffffffffff\n        /* \"#utility.yul\":8634:8640   */\n      dup2\n        /* \"#utility.yul\":8631:8661   */\n      gt\n        /* \"#utility.yul\":8628:8745   */\n      iszero\n      tag_240\n      jumpi\n        /* \"#utility.yul\":8664:8743   */\n      tag_241\n      tag_125\n      jump\t// in\n    tag_241:\n        /* \"#utility.yul\":8628:8745   */\n    tag_240:\n        /* \"#utility.yul\":8777:8842   */\n      tag_242\n        /* \"#utility.yul\":8834:8841   */\n      dup13\n        /* \"#utility.yul\":8825:8831   */\n      dup3\n        /* \"#utility.yul\":8814:8823   */\n      dup14\n        /* \"#utility.yul\":8810:8832   */\n      add\n        /* \"#utility.yul\":8777:8842   */\n      tag_129\n      jump\t// in\n    tag_242:\n        /* \"#utility.yul\":8759:8842   */\n      swap8\n      pop\n      swap8\n      pop\n        /* \"#utility.yul\":8554:8852   */\n      pop\n        /* \"#utility.yul\":8919:8921   */\n      0x40\n        /* \"#utility.yul\":8908:8917   */\n      dup11\n        /* \"#utility.yul\":8904:8922   */\n      add\n        /* \"#utility.yul\":8891:8923   */\n      calldataload\n        /* \"#utility.yul\":8950:8968   */\n      0xffffffffffffffff\n        /* \"#utility.yul\":8942:8948   */\n      dup2\n        /* \"#utility.yul\":8939:8969   */\n      gt\n        /* \"#utility.yul\":8936:9053   */\n      iszero\n      tag_243\n      jumpi\n        /* \"#utility.yul\":8972:9051   */\n      tag_244\n      tag_125\n      jump\t// in\n    tag_244:\n        /* \"#utility.yul\":8936:9053   */\n    tag_243:\n        /* \"#utility.yul\":9085:9150   */\n      tag_245\n        /* \"#utility.yul\":9142:9149   */\n      dup13\n        /* \"#utility.yul\":9133:9139   */\n      dup3\n        /* \"#utility.yul\":9122:9131   */\n      dup14\n        /* \"#utility.yul\":9118:9140   */\n      add\n        /* \"#utility.yul\":9085:9150   */\n      tag_129\n      jump\t// in\n    tag_245:\n        /* \"#utility.yul\":9067:9150   */\n      swap6\n      pop\n      swap6\n      pop\n        /* \"#utility.yul\":8862:9160   */\n      pop\n        /* \"#utility.yul\":9227:9229   */\n      0x60\n        /* \"#utility.yul\":9216:9225   */\n      dup11\n        /* \"#utility.yul\":9212:9230   */\n      add\n        /* \"#utility.yul\":9199:9231   */\n      calldataload\n        /* \"#utility.yul\":9258:9276   */\n      0xffffffffffffffff\n        /* \"#utility.yul\":9250:9256   */\n      dup2\n        /* \"#utility.yul\":9247:9277   */\n      gt\n        /* \"#utility.yul\":9244:9361   */\n      iszero\n      tag_246\n      jumpi\n        /* \"#utility.yul\":9280:9359   */\n      tag_247\n      tag_125\n      jump\t// in\n    tag_247:\n        /* \"#utility.yul\":9244:9361   */\n    tag_246:\n        /* \"#utility.yul\":9393:9458   */\n      tag_248\n        /* \"#utility.yul\":9450:9457   */\n      dup13\n        /* \"#utility.yul\":9441:9447   */\n      dup3\n        /* \"#utility.yul\":9430:9439   */\n      dup14\n        /* \"#utility.yul\":9426:9448   */\n      add\n        /* \"#utility.yul\":9393:9458   */\n      tag_129\n      jump\t// in\n    tag_248:\n        /* \"#utility.yul\":9375:9458   */\n      swap4\n      pop\n      swap4\n      pop\n        /* \"#utility.yul\":9170:9468   */\n      pop\n        /* \"#utility.yul\":9507:9510   */\n      0x80\n        /* \"#utility.yul\":9534:9587   */\n      tag_249\n        /* \"#utility.yul\":9579:9586   */\n      dup13\n        /* \"#utility.yul\":9570:9576   */\n      dup3\n        /* \"#utility.yul\":9559:9568   */\n      dup14\n        /* \"#utility.yul\":9555:9577   */\n      add\n        /* \"#utility.yul\":9534:9587   */\n      tag_136\n      jump\t// in\n    tag_249:\n        /* \"#utility.yul\":9524:9587   */\n      swap2\n      pop\n        /* \"#utility.yul\":9478:9597   */\n      pop\n        /* \"#utility.yul\":7893:9604   */\n      swap3\n      swap6\n      swap9\n      pop\n      swap3\n      swap6\n      swap9\n      pop\n      swap3\n      swap6\n      swap9\n      jump\t// out\n        /* \"#utility.yul\":9610:9790   */\n    tag_29:\n        /* \"#utility.yul\":9658:9735   */\n      0x4e487b7100000000000000000000000000000000000000000000000000000000\n        /* \"#utility.yul\":9655:9656   */\n      0x00\n        /* \"#utility.yul\":9648:9736   */\n      mstore\n        /* \"#utility.yul\":9755:9759   */\n      0x41\n        /* \"#utility.yul\":9752:9753   */\n      0x04\n        /* \"#utility.yul\":9745:9760   */\n      mstore\n        /* \"#utility.yul\":9779:9783   */\n      0x24\n        /* \"#utility.yul\":9776:9777   */\n      0x00\n        /* \"#utility.yul\":9769:9784   */\n      revert\n        /* \"#utility.yul\":9796:9976   */\n    tag_37:\n        /* \"#utility.yul\":9844:9921   */\n      0x4e487b7100000000000000000000000000000000000000000000000000000000\n        /* \"#utility.yul\":9841:9842   */\n      0x00\n        /* \"#utility.yul\":9834:9922   */\n      mstore\n        /* \"#utility.yul\":9941:9945   */\n      0x32\n        /* \"#utility.yul\":9938:9939   */\n      0x04\n        /* \"#utility.yul\":9931:9946   */\n      mstore\n        /* \"#utility.yul\":9965:9969   */\n      0x24\n        /* \"#utility.yul\":9962:9963   */\n      0x00\n        /* \"#utility.yul\":9955:9970   */\n      revert\n        /* \"#utility.yul\":9982:10162   */\n    tag_137:\n        /* \"#utility.yul\":10030:10107   */\n      0x4e487b7100000000000000000000000000000000000000000000000000000000\n        /* \"#utility.yul\":10027:10028   */\n      0x00\n        /* \"#utility.yul\":10020:10108   */\n      mstore\n        /* \"#utility.yul\":10127:10131   */\n      0x22\n        /* \"#utility.yul\":10124:10125   */\n      0x04\n        /* \"#utility.yul\":10117:10132   */\n      mstore\n        /* \"#utility.yul\":10151:10155   */\n      0x24\n        /* \"#utility.yul\":10148:10149   */\n      0x00\n        /* \"#utility.yul\":10141:10156   */\n      revert\n        /* \"#utility.yul\":10168:10488   */\n    tag_40:\n        /* \"#utility.yul\":10212:10218   */\n      0x00\n        /* \"#utility.yul\":10249:10250   */\n      0x02\n        /* \"#utility.yul\":10243:10247   */\n      dup3\n        /* \"#utility.yul\":10239:10251   */\n      div\n        /* \"#utility.yul\":10229:10251   */\n      swap1\n      pop\n        /* \"#utility.yul\":10296:10297   */\n      0x01\n        /* \"#utility.yul\":10290:10294   */\n      dup3\n        /* \"#utility.yul\":10286:10298   */\n      and\n        /* \"#utility.yul\":10317:10335   */\n      dup1\n        /* \"#utility.yul\":10307:10388   */\n      tag_254\n      jumpi\n        /* \"#utility.yul\":10373:10377   */\n      0x7f\n        /* \"#utility.yul\":10365:10371   */\n      dup3\n        /* \"#utility.yul\":10361:10378   */\n      and\n        /* \"#utility.yul\":10351:10378   */\n      swap2\n      pop\n        /* \"#utility.yul\":10307:10388   */\n    tag_254:\n        /* \"#utility.yul\":10435:10437   */\n      0x20\n        /* \"#utility.yul\":10427:10433   */\n      dup3\n        /* \"#utility.yul\":10424:10438   */\n      lt\n        /* \"#utility.yul\":10404:10422   */\n      dup2\n        /* \"#utility.yul\":10401:10439   */\n      sub\n        /* \"#utility.yul\":10398:10482   */\n      tag_255\n      jumpi\n        /* \"#utility.yul\":10454:10472   */\n      tag_256\n      tag_137\n      jump\t// in\n    tag_256:\n        /* \"#utility.yul\":10398:10482   */\n    tag_255:\n        /* \"#utility.yul\":10219:10488   */\n      pop\n        /* \"#utility.yul\":10168:10488   */\n      swap2\n      swap1\n      pop\n      jump\t// out\n        /* \"#utility.yul\":10494:10674   */\n    tag_138:\n        /* \"#utility.yul\":10542:10619   */\n      0x4e487b7100000000000000000000000000000000000000000000000000000000\n        /* \"#utility.yul\":10539:10540   */\n      0x00\n        /* \"#utility.yul\":10532:10620   */\n      mstore\n        /* \"#utility.yul\":10639:10643   */\n      0x11\n        /* \"#utility.yul\":10636:10637   */\n      0x04\n        /* \"#utility.yul\":10629:10644   */\n      mstore\n        /* \"#utility.yul\":10663:10667   */\n      0x24\n        /* \"#utility.yul\":10660:10661   */\n      0x00\n        /* \"#utility.yul\":10653:10668   */\n      revert\n        /* \"#utility.yul\":10680:10757   */\n    tag_139:\n        /* \"#utility.yul\":10717:10724   */\n      0x00\n        /* \"#utility.yul\":10746:10751   */\n      dup2\n        /* \"#utility.yul\":10735:10751   */\n      swap1\n      pop\n        /* \"#utility.yul\":10680:10757   */\n      swap2\n      swap1\n      pop\n      jump\t// out\n        /* \"#utility.yul\":10763:10996   */\n    tag_48:\n        /* \"#utility.yul\":10802:10805   */\n      0x00\n        /* \"#utility.yul\":10825:10849   */\n      tag_260\n        /* \"#utility.yul\":10843:10848   */\n      dup3\n        /* \"#utility.yul\":10825:10849   */\n      tag_139\n      jump\t// in\n    tag_260:\n        /* \"#utility.yul\":10816:10849   */\n      swap2\n      pop\n        /* \"#utility.yul\":10871:10937   */\n      0xffffffffffffffffffffffffffffffffffffffffffffffffffffffffffffffff\n        /* \"#utility.yul\":10864:10869   */\n      dup3\n        /* \"#utility.yul\":10861:10938   */\n      sub\n        /* \"#utility.yul\":10858:10961   */\n      tag_261\n      jumpi\n        /* \"#utility.yul\":10941:10959   */\n      tag_262\n      tag_138\n      jump\t// in\n    tag_262:\n        /* \"#utility.yul\":10858:10961   */\n    tag_261:\n        /* \"#utility.yul\":10988:10989   */\n      0x01\n        /* \"#utility.yul\":10981:10986   */\n      dup3\n        /* \"#utility.yul\":10977:10990   */\n      add\n        /* \"#utility.yul\":10970:10990   */\n      swap1\n      pop\n        /* \"#utility.yul\":10763:10996   */\n      swap2\n      swap1\n      pop\n      jump\t// out\n        /* \"#utility.yul\":11002:11149   */\n    tag_140:\n        /* \"#utility.yul\":11103:11114   */\n      0x00\n        /* \"#utility.yul\":11140:11143   */\n      dup2\n        /* \"#utility.yul\":11125:11143   */\n      swap1\n      pop\n        /* \"#utility.yul\":11002:11149   */\n      swap3\n      swap2\n      pop\n      pop\n      jump\t// out\n        /* \"#utility.yul\":11155:11301   */\n    tag_141:\n        /* \"#utility.yul\":11252:11258   */\n      dup3\n        /* \"#utility.yul\":11247:11250   */\n      dup2\n        /* \"#utility.yul\":11242:11245   */\n      dup4\n        /* \"#utility.yul\":11229:11259   */\n      calldatacopy\n        /* \"#utility.yul\":11293:11294   */\n      0x00\n        /* \"#utility.yul\":11284:11290   */\n      dup4\n        /* \"#utility.yul\":11279:11282   */\n      dup4\n        /* \"#utility.yul\":11275:11291   */\n      add\n        /* \"#utility.yul\":11268:11295   */\n      mstore\n        /* \"#utility.yul\":11155:11301   */\n      pop\n      pop\n      pop\n      jump\t// out\n        /* \"#utility.yul\":11329:11656   */\n    tag_142:\n        /* \"#utility.yul\":11443:11446   */\n      0x00\n        /* \"#utility.yul\":11464:11552   */\n      tag_266\n        /* \"#utility.yul\":11545:11551   */\n      dup4\n        /* \"#utility.yul\":11540:11543   */\n      dup6\n        /* \"#utility.yul\":11464:11552   */\n      tag_140\n      jump\t// in\n    tag_266:\n        /* \"#utility.yul\":11457:11552   */\n      swap4\n      pop\n        /* \"#utility.yul\":11562:11618   */\n      tag_267\n        /* \"#utility.yul\":11611:11617   */\n      dup4\n        /* \"#utility.yul\":11606:11609   */\n      dup6\n        /* \"#utility.yul\":11599:11604   */\n      dup5\n        /* \"#utility.yul\":11562:11618   */\n      tag_141\n      jump\t// in\n    tag_267:\n        /* \"#utility.yul\":11643:11649   */\n      dup3\n        /* \"#utility.yul\":11638:11641   */\n      dup5\n        /* \"#utility.yul\":11634:11650   */\n      add\n        /* \"#utility.yul\":11627:11650   */\n      swap1\n      pop\n        /* \"#utility.yul\":11329:11656   */\n      swap4\n      swap3\n      pop\n      pop\n      pop\n      jump\t// out\n        /* \"#utility.yul\":11662:11953   */\n    tag_54:\n        /* \"#utility.yul\":11802:11805   */\n      0x00\n        /* \"#utility.yul\":11824:11927   */\n      tag_269\n        /* \"#utility.yul\":11923:11926   */\n      dup3\n        /* \"#utility.yul\":11914:11920   */\n      dup5\n        /* \"#utility.yul\":11906:11912   */\n      dup7\n        /* \"#utility.yul\":11824:11927   */\n      tag_142\n      jump\t// in\n    tag_269:\n        /* \"#utility.yul\":11817:11927   */\n      swap2\n      pop\n        /* \"#utility.yul\":11944:11947   */\n      dup2\n        /* \"#utility.yul\":11937:11947   */\n      swap1\n      pop\n        /* \"#utility.yul\":11662:11953   */\n      swap4\n      swap3\n      pop\n      pop\n      pop\n      jump\t// out\n        /* \"#utility.yul\":11959:12103   */\n    tag_143:\n        /* \"#utility.yul\":12011:12015   */\n      0x00\n        /* \"#utility.yul\":12034:12037   */\n      dup2\n        /* \"#utility.yul\":12026:12037   */\n      swap1\n      pop\n        /* \"#utility.yul\":12057:12060   */\n      dup2\n        /* \"#utility.yul\":12054:12055   */\n      0x00\n        /* \"#utility.yul\":12047:12061   */\n      mstore\n        /* \"#utility.yul\":12091:12095   */\n      0x20\n        /* \"#utility.yul\":12088:12089   */\n      0x00\n        /* \"#utility.yul\":12078:12096   */\n      keccak256\n        /* \"#utility.yul\":12070:12096   */\n      swap1\n      pop\n        /* \"#utility.yul\":11959:12103   */\n      swap2\n      swap1\n      pop\n      jump\t// out\n        /* \"#utility.yul\":12131:13009   */\n    tag_144:\n        /* \"#utility.yul\":12236:12239   */\n      0x00\n        /* \"#utility.yul\":12273:12278   */\n      dup2\n        /* \"#utility.yul\":12267:12279   */\n      sload\n        /* \"#utility.yul\":12302:12338   */\n      tag_272\n        /* \"#utility.yul\":12328:12337   */\n      dup2\n        /* \"#utility.yul\":12302:12338   */\n      tag_40\n      jump\t// in\n    tag_272:\n        /* \"#utility.yul\":12354:12442   */\n      tag_273\n        /* \"#utility.yul\":12435:12441   */\n      dup2\n        /* \"#utility.yul\":12430:12433   */\n      dup7\n        /* \"#utility.yul\":12354:12442   */\n      tag_140\n      jump\t// in\n    tag_273:\n        /* \"#utility.yul\":12347:12442   */\n      swap5\n      pop\n        /* \"#utility.yul\":12473:12474   */\n      0x01\n        /* \"#utility.yul\":12462:12471   */\n      dup3\n        /* \"#utility.yul\":12458:12475   */\n      and\n        /* \"#utility.yul\":12489:12490   */\n      0x00\n        /* \"#utility.yul\":12484:12650   */\n      dup2\n      eq\n      tag_275\n      jumpi\n        /* \"#utility.yul\":12664:12665   */\n      0x01\n        /* \"#utility.yul\":12659:13003   */\n      dup2\n      eq\n      tag_276\n      jumpi\n        /* \"#utility.yul\":12451:13003   */\n      jump(tag_274)\n        /* \"#utility.yul\":12484:12650   */\n    tag_275:\n        /* \"#utility.yul\":12568:12572   */\n      0xff\n        /* \"#utility.yul\":12564:12573   */\n      not\n        /* \"#utility.yul\":12553:12562   */\n      dup4\n        /* \"#utility.yul\":12549:12574   */\n      and\n        /* \"#utility.yul\":12544:12547   */\n      dup7\n        /* \"#utility.yul\":12537:12575   */\n      mstore\n        /* \"#utility.yul\":12630:12636   */\n      dup2\n        /* \"#utility.yul\":12623:12637   */\n      iszero\n        /* \"#utility.yul\":12616:12638   */\n      iszero\n        /* \"#utility.yul\":12608:12614   */\n      dup3\n        /* \"#utility.yul\":12604:12639   */\n      mul\n        /* \"#utility.yul\":12599:12602   */\n      dup7\n        /* \"#utility.yul\":12595:12640   */\n      add\n        /* \"#utility.yul\":12588:12640   */\n      swap4\n      pop\n        /* \"#utility.yul\":12484:12650   */\n      jump(tag_274)\n        /* \"#utility.yul\":12659:13003   */\n    tag_276:\n        /* \"#utility.yul\":12726:12767   */\n      tag_277\n        /* \"#utility.yul\":12761:12766   */\n      dup6\n        /* \"#utility.yul\":12726:12767   */\n      tag_143\n      jump\t// in\n    tag_277:\n        /* \"#utility.yul\":12789:12790   */\n      0x00\n        /* \"#utility.yul\":12803:12957   */\n    tag_278:\n        /* \"#utility.yul\":12817:12823   */\n      dup4\n        /* \"#utility.yul\":12814:12815   */\n      dup2\n        /* \"#utility.yul\":12811:12824   */\n      lt\n        /* \"#utility.yul\":12803:12957   */\n      iszero\n      tag_280\n      jumpi\n        /* \"#utility.yul\":12891:12898   */\n      dup2\n        /* \"#utility.yul\":12885:12899   */\n      sload\n        /* \"#utility.yul\":12881:12882   */\n      dup2\n        /* \"#utility.yul\":12876:12879   */\n      dup10\n        /* \"#utility.yul\":12872:12883   */\n      add\n        /* \"#utility.yul\":12865:12900   */\n      mstore\n        /* \"#utility.yul\":12941:12942   */\n      0x01\n        /* \"#utility.yul\":12932:12939   */\n      dup3\n        /* \"#utility.yul\":12928:12943   */\n      add\n        /* \"#utility.yul\":12917:12943   */\n      swap2\n      pop\n        /* \"#utility.yul\":12839:12843   */\n      0x20\n        /* \"#utility.yul\":12836:12837   */\n      dup2\n        /* \"#utility.yul\":12832:12844   */\n      add\n        /* \"#utility.yul\":12827:12844   */\n      swap1\n      pop\n        /* \"#utility.yul\":12803:12957   */\n      jump(tag_278)\n    tag_280:\n        /* \"#utility.yul\":12986:12992   */\n      dup4\n        /* \"#utility.yul\":12981:12984   */\n      dup9\n        /* \"#utility.yul\":12977:12993   */\n      add\n        /* \"#utility.yul\":12970:12993   */\n      swap6\n      pop\n        /* \"#utility.yul\":12666:13003   */\n      pop\n      pop\n        /* \"#utility.yul\":12451:13003   */\n    tag_274:\n      pop\n        /* \"#utility.yul\":12240:13009   */\n      pop\n      pop\n        /* \"#utility.yul\":12131:13009   */\n      swap3\n      swap2\n      pop\n      pop\n      jump\t// out\n        /* \"#utility.yul\":13015:13288   */\n    tag_59:\n        /* \"#utility.yul\":13146:13149   */\n      0x00\n        /* \"#utility.yul\":13168:13262   */\n      tag_282\n        /* \"#utility.yul\":13258:13261   */\n      dup3\n        /* \"#utility.yul\":13249:13255   */\n      dup5\n        /* \"#utility.yul\":13168:13262   */\n      tag_144\n      jump\t// in\n    tag_282:\n        /* \"#utility.yul\":13161:13262   */\n      swap2\n      pop\n        /* \"#utility.yul\":13279:13282   */\n      dup2\n        /* \"#utility.yul\":13272:13282   */\n      swap1\n      pop\n        /* \"#utility.yul\":13015:13288   */\n      swap3\n      swap2\n      pop\n      pop\n      jump\t// out\n        /* \"#utility.yul\":13294:13463   */\n    tag_145:\n        /* \"#utility.yul\":13378:13389   */\n      0x00\n        /* \"#utility.yul\":13412:13418   */\n      dup3\n        /* \"#utility.yul\":13407:13410   */\n      dup3\n        /* \"#utility.yul\":13400:13419   */\n      mstore\n        /* \"#utility.yul\":13452:13456   */\n      0x20\n        /* \"#utility.yul\":13447:13450   */\n      dup3\n        /* \"#utility.yul\":13443:13457   */\n      add\n        /* \"#utility.yul\":13428:13457   */\n      swap1\n      pop\n        /* \"#utility.yul\":13294:13463   */\n      swap3\n      swap2\n      pop\n      pop\n      jump\t// out\n        /* \"#utility.yul\":13469:13704   */\n    tag_146:\n        /* \"#utility.yul\":13609:13643   */\n      0x4f6e6c7920656c656374696f6e2d636f6d6d697373696f6e2063616e2063616c\n        /* \"#utility.yul\":13605:13606   */\n      0x00\n        /* \"#utility.yul\":13597:13603   */\n      dup3\n        /* \"#utility.yul\":13593:13607   */\n      add\n        /* \"#utility.yul\":13586:13644   */\n      mstore\n        /* \"#utility.yul\":13678:13696   */\n      0x6c207468697320636f6e74726163742e00000000000000000000000000000000\n        /* \"#utility.yul\":13673:13675   */\n      0x20\n        /* \"#utility.yul\":13665:13671   */\n      dup3\n        /* \"#utility.yul\":13661:13676   */\n      add\n        /* \"#utility.yul\":13654:13697   */\n      mstore\n        /* \"#utility.yul\":13469:13704   */\n      pop\n      jump\t// out\n        /* \"#utility.yul\":13710:14076   */\n    tag_147:\n        /* \"#utility.yul\":13852:13855   */\n      0x00\n        /* \"#utility.yul\":13873:13940   */\n      tag_286\n        /* \"#utility.yul\":13937:13939   */\n      0x30\n        /* \"#utility.yul\":13932:13935   */\n      dup4\n        /* \"#utility.yul\":13873:13940   */\n      tag_145\n      jump\t// in\n    tag_286:\n        /* \"#utility.yul\":13866:13940   */\n      swap2\n      pop\n        /* \"#utility.yul\":13949:14042   */\n      tag_287\n        /* \"#utility.yul\":14038:14041   */\n      dup3\n        /* \"#utility.yul\":13949:14042   */\n      tag_146\n      jump\t// in\n    tag_287:\n        /* \"#utility.yul\":14067:14069   */\n      0x40\n        /* \"#utility.yul\":14062:14065   */\n      dup3\n        /* \"#utility.yul\":14058:14070   */\n      add\n        /* \"#utility.yul\":14051:14070   */\n      swap1\n      pop\n        /* \"#utility.yul\":13710:14076   */\n      swap2\n      swap1\n      pop\n      jump\t// out\n        /* \"#utility.yul\":14082:14501   */\n    tag_104:\n        /* \"#utility.yul\":14248:14252   */\n      0x00\n        /* \"#utility.yul\":14286:14288   */\n      0x20\n        /* \"#utility.yul\":14275:14284   */\n      dup3\n        /* \"#utility.yul\":14271:14289   */\n      add\n        /* \"#utility.yul\":14263:14289   */\n      swap1\n      pop\n        /* \"#utility.yul\":14335:14344   */\n      dup2\n        /* \"#utility.yul\":14329:14333   */\n      dup2\n        /* \"#utility.yul\":14325:14345   */\n      sub\n        /* \"#utility.yul\":14321:14322   */\n      0x00\n        /* \"#utility.yul\":14310:14319   */\n      dup4\n        /* \"#utility.yul\":14306:14323   */\n      add\n        /* \"#utility.yul\":14299:14346   */\n      mstore\n        /* \"#utility.yul\":14363:14494   */\n      tag_289\n        /* \"#utility.yul\":14489:14493   */\n      dup2\n        /* \"#utility.yul\":14363:14494   */\n      tag_147\n      jump\t// in\n    tag_289:\n        /* \"#utility.yul\":14355:14494   */\n      swap1\n      pop\n        /* \"#utility.yul\":14082:14501   */\n      swap2\n      swap1\n      pop\n      jump\t// out\n        /* \"#utility.yul\":14507:14648   */\n    tag_148:\n        /* \"#utility.yul\":14556:14560   */\n      0x00\n        /* \"#utility.yul\":14579:14582   */\n      dup2\n        /* \"#utility.yul\":14571:14582   */\n      swap1\n      pop\n        /* \"#utility.yul\":14602:14605   */\n      dup2\n        /* \"#utility.yul\":14599:14600   */\n      0x00\n        /* \"#utility.yul\":14592:14606   */\n      mstore\n        /* \"#utility.yul\":14636:14640   */\n      0x20\n        /* \"#utility.yul\":14633:14634   */\n      0x00\n        /* \"#utility.yul\":14623:14641   */\n      keccak256\n        /* \"#utility.yul\":14615:14641   */\n      swap1\n      pop\n        /* \"#utility.yul\":14507:14648   */\n      swap2\n      swap1\n      pop\n      jump\t// out\n        /* \"#utility.yul\":14654:14747   */\n    tag_149:\n        /* \"#utility.yul\":14691:14697   */\n      0x00\n        /* \"#utility.yul\":14738:14740   */\n      0x20\n        /* \"#utility.yul\":14733:14735   */\n      0x1f\n        /* \"#utility.yul\":14726:14731   */\n      dup4\n        /* \"#utility.yul\":14722:14736   */\n      add\n        /* \"#utility.yul\":14718:14741   */\n      div\n        /* \"#utility.yul\":14708:14741   */\n      swap1\n      pop\n        /* \"#utility.yul\":14654:14747   */\n      swap2\n      swap1\n      pop\n      jump\t// out\n        /* \"#utility.yul\":14753:14860   */\n    tag_150:\n        /* \"#utility.yul\":14797:14805   */\n      0x00\n        /* \"#utility.yul\":14847:14852   */\n      dup3\n        /* \"#utility.yul\":14841:14845   */\n      dup3\n        /* \"#utility.yul\":14837:14853   */\n      shl\n        /* \"#utility.yul\":14816:14853   */\n      swap1\n      pop\n        /* \"#utility.yul\":14753:14860   */\n      swap3\n      swap2\n      pop\n      pop\n      jump\t// out\n        /* \"#utility.yul\":14866:15259   */\n    tag_151:\n        /* \"#utility.yul\":14935:14941   */\n      0x00\n        /* \"#utility.yul\":14985:14986   */\n      0x08\n        /* \"#utility.yul\":14973:14983   */\n      dup4\n        /* \"#utility.yul\":14969:14987   */\n      mul\n        /* \"#utility.yul\":15008:15105   */\n      tag_294\n        /* \"#utility.yul\":15038:15104   */\n      0xffffffffffffffffffffffffffffffffffffffffffffffffffffffffffffffff\n        /* \"#utility.yul\":15027:15036   */\n      dup3\n        /* \"#utility.yul\":15008:15105   */\n      tag_150\n      jump\t// in\n    tag_294:\n        /* \"#utility.yul\":15126:15165   */\n      tag_295\n        /* \"#utility.yul\":15156:15164   */\n      dup7\n        /* \"#utility.yul\":15145:15154   */\n      dup4\n        /* \"#utility.yul\":15126:15165   */\n      tag_150\n      jump\t// in\n    tag_295:\n        /* \"#utility.yul\":15114:15165   */\n      swap6\n      pop\n        /* \"#utility.yul\":15198:15202   */\n      dup1\n        /* \"#utility.yul\":15194:15203   */\n      not\n        /* \"#utility.yul\":15187:15192   */\n      dup5\n        /* \"#utility.yul\":15183:15204   */\n      and\n        /* \"#utility.yul\":15174:15204   */\n      swap4\n      pop\n        /* \"#utility.yul\":15247:15251   */\n      dup1\n        /* \"#utility.yul\":15237:15245   */\n      dup7\n        /* \"#utility.yul\":15233:15252   */\n      and\n        /* \"#utility.yul\":15226:15231   */\n      dup5\n        /* \"#utility.yul\":15223:15253   */\n      or\n        /* \"#utility.yul\":15213:15253   */\n      swap3\n      pop\n        /* \"#utility.yul\":14942:15259   */\n      pop\n      pop\n        /* \"#utility.yul\":14866:15259   */\n      swap4\n      swap3\n      pop\n      pop\n      pop\n      jump\t// out\n        /* \"#utility.yul\":15265:15325   */\n    tag_152:\n        /* \"#utility.yul\":15293:15296   */\n      0x00\n        /* \"#utility.yul\":15314:15319   */\n      dup2\n        /* \"#utility.yul\":15307:15319   */\n      swap1\n      pop\n        /* \"#utility.yul\":15265:15325   */\n      swap2\n      swap1\n      pop\n      jump\t// out\n        /* \"#utility.yul\":15331:15473   */\n    tag_153:\n        /* \"#utility.yul\":15381:15390   */\n      0x00\n        /* \"#utility.yul\":15414:15467   */\n      tag_298\n        /* \"#utility.yul\":15432:15466   */\n      tag_299\n        /* \"#utility.yul\":15441:15465   */\n      tag_300\n        /* \"#utility.yul\":15459:15464   */\n      dup5\n        /* \"#utility.yul\":15441:15465   */\n      tag_139\n      jump\t// in\n    tag_300:\n        /* \"#utility.yul\":15432:15466   */\n      tag_152\n      jump\t// in\n    tag_299:\n        /* \"#utility.yul\":15414:15467   */\n      tag_139\n      jump\t// in\n    tag_298:\n        /* \"#utility.yul\":15401:15467   */\n      swap1\n      pop\n        /* \"#utility.yul\":15331:15473   */\n      swap2\n      swap1\n      pop\n      jump\t// out\n        /* \"#utility.yul\":15479:15554   */\n    tag_154:\n        /* \"#utility.yul\":15522:15525   */\n      0x00\n        /* \"#utility.yul\":15543:15548   */\n      dup2\n        /* \"#utility.yul\":15536:15548   */\n      swap1\n      pop\n        /* \"#utility.yul\":15479:15554   */\n      swap2\n      swap1\n      pop\n      jump\t// out\n        /* \"#utility.yul\":15560:15829   */\n    tag_155:\n        /* \"#utility.yul\":15670:15709   */\n      tag_303\n        /* \"#utility.yul\":15701:15708   */\n      dup4\n        /* \"#utility.yul\":15670:15709   */\n      tag_153\n      jump\t// in\n    tag_303:\n        /* \"#utility.yul\":15731:15822   */\n      tag_304\n        /* \"#utility.yul\":15780:15821   */\n      tag_305\n        /* \"#utility.yul\":15804:15820   */\n      dup3\n        /* \"#utility.yul\":15780:15821   */\n      tag_154\n      jump\t// in\n    tag_305:\n        /* \"#utility.yul\":15772:15778   */\n      dup5\n        /* \"#utility.yul\":15765:15769   */\n      dup5\n        /* \"#utility.yul\":15759:15770   */\n      sload\n        /* \"#utility.yul\":15731:15822   */\n      tag_151\n      jump\t// in\n    tag_304:\n        /* \"#utility.yul\":15725:15729   */\n      dup3\n        /* \"#utility.yul\":15718:15823   */\n      sstore\n        /* \"#utility.yul\":15636:15829   */\n      pop\n        /* \"#utility.yul\":15560:15829   */\n      pop\n      pop\n      pop\n      jump\t// out\n        /* \"#utility.yul\":15835:15908   */\n    tag_156:\n        /* \"#utility.yul\":15880:15883   */\n      0x00\n        /* \"#utility.yul\":15835:15908   */\n      swap1\n      jump\t// out\n        /* \"#utility.yul\":15914:16103   */\n    tag_157:\n        /* \"#utility.yul\":15991:16023   */\n      tag_308\n      tag_156\n      jump\t// in\n    tag_308:\n        /* \"#utility.yul\":16032:16097   */\n      tag_309\n        /* \"#utility.yul\":16090:16096   */\n      dup2\n        /* \"#utility.yul\":16082:16088   */\n      dup5\n        /* \"#utility.yul\":16076:16080   */\n      dup5\n        /* \"#utility.yul\":16032:16097   */\n      tag_155\n      jump\t// in\n    tag_309:\n        /* \"#utility.yul\":15967:16103   */\n      pop\n        /* \"#utility.yul\":15914:16103   */\n      pop\n      pop\n      jump\t// out\n        /* \"#utility.yul\":16109:16295   */\n    tag_158:\n        /* \"#utility.yul\":16169:16289   */\n    tag_311:\n        /* \"#utility.yul\":16186:16189   */\n      dup2\n        /* \"#utility.yul\":16179:16184   */\n      dup2\n        /* \"#utility.yul\":16176:16190   */\n      lt\n        /* \"#utility.yul\":16169:16289   */\n      iszero\n      tag_313\n      jumpi\n        /* \"#utility.yul\":16240:16279   */\n      tag_314\n        /* \"#utility.yul\":16277:16278   */\n      0x00\n        /* \"#utility.yul\":16270:16275   */\n      dup3\n        /* \"#utility.yul\":16240:16279   */\n      tag_157\n      jump\t// in\n    tag_314:\n        /* \"#utility.yul\":16213:16214   */\n      0x01\n        /* \"#utility.yul\":16206:16211   */\n      dup2\n        /* \"#utility.yul\":16202:16215   */\n      add\n        /* \"#utility.yul\":16193:16215   */\n      swap1\n      pop\n        /* \"#utility.yul\":16169:16289   */\n      jump(tag_311)\n    tag_313:\n        /* \"#utility.yul\":16109:16295   */\n      pop\n      pop\n      jump\t// out\n        /* \"#utility.yul\":16301:16844   */\n    tag_159:\n        /* \"#utility.yul\":16402:16404   */\n      0x1f\n        /* \"#utility.yul\":16397:16400   */\n      dup3\n        /* \"#utility.yul\":16394:16405   */\n      gt\n        /* \"#utility.yul\":16391:16837   */\n      iszero\n      tag_316\n      jumpi\n        /* \"#utility.yul\":16436:16474   */\n      tag_317\n        /* \"#utility.yul\":16468:16473   */\n      dup2\n        /* \"#utility.yul\":16436:16474   */\n      tag_148\n      jump\t// in\n    tag_317:\n        /* \"#utility.yul\":16520:16549   */\n      tag_318\n        /* \"#utility.yul\":16538:16548   */\n      dup5\n        /* \"#utility.yul\":16520:16549   */\n      tag_149\n      jump\t// in\n    tag_318:\n        /* \"#utility.yul\":16510:16518   */\n      dup2\n        /* \"#utility.yul\":16506:16550   */\n      add\n        /* \"#utility.yul\":16703:16705   */\n      0x20\n        /* \"#utility.yul\":16691:16701   */\n      dup6\n        /* \"#utility.yul\":16688:16706   */\n      lt\n        /* \"#utility.yul\":16685:16734   */\n      iszero\n      tag_319\n      jumpi\n        /* \"#utility.yul\":16724:16732   */\n      dup2\n        /* \"#utility.yul\":16709:16732   */\n      swap1\n      pop\n        /* \"#utility.yul\":16685:16734   */\n    tag_319:\n        /* \"#utility.yul\":16747:16827   */\n      tag_320\n        /* \"#utility.yul\":16803:16825   */\n      tag_321\n        /* \"#utility.yul\":16821:16824   */\n      dup6\n        /* \"#utility.yul\":16803:16825   */\n      tag_149\n      jump\t// in\n    tag_321:\n        /* \"#utility.yul\":16793:16801   */\n      dup4\n        /* \"#utility.yul\":16789:16826   */\n      add\n        /* \"#utility.yul\":16776:16787   */\n      dup3\n        /* \"#utility.yul\":16747:16827   */\n      tag_158\n      jump\t// in\n    tag_320:\n        /* \"#utility.yul\":16406:16837   */\n      pop\n      pop\n        /* \"#utility.yul\":16391:16837   */\n    tag_316:\n        /* \"#utility.yul\":16301:16844   */\n      pop\n      pop\n      pop\n      jump\t// out\n        /* \"#utility.yul\":16850:16967   */\n    tag_160:\n        /* \"#utility.yul\":16904:16912   */\n      0x00\n        /* \"#utility.yul\":16954:16959   */\n      dup3\n        /* \"#utility.yul\":16948:16952   */\n      dup3\n        /* \"#utility.yul\":16944:16960   */\n      shr\n        /* \"#utility.yul\":16923:16960   */\n      swap1\n      pop\n        /* \"#utility.yul\":16850:16967   */\n      swap3\n      swap2\n      pop\n      pop\n      jump\t// out\n        /* \"#utility.yul\":16973:17142   */\n    tag_161:\n        /* \"#utility.yul\":17017:17023   */\n      0x00\n        /* \"#utility.yul\":17050:17101   */\n      tag_324\n        /* \"#utility.yul\":17098:17099   */\n      0x00\n        /* \"#utility.yul\":17094:17100   */\n      not\n        /* \"#utility.yul\":17086:17091   */\n      dup5\n        /* \"#utility.yul\":17083:17084   */\n      0x08\n        /* \"#utility.yul\":17079:17092   */\n      mul\n        /* \"#utility.yul\":17050:17101   */\n      tag_160\n      jump\t// in\n    tag_324:\n        /* \"#utility.yul\":17046:17102   */\n      not\n        /* \"#utility.yul\":17131:17135   */\n      dup1\n        /* \"#utility.yul\":17125:17129   */\n      dup4\n        /* \"#utility.yul\":17121:17136   */\n      and\n        /* \"#utility.yul\":17111:17136   */\n      swap2\n      pop\n        /* \"#utility.yul\":17024:17142   */\n      pop\n        /* \"#utility.yul\":16973:17142   */\n      swap3\n      swap2\n      pop\n      pop\n      jump\t// out\n        /* \"#utility.yul\":17147:17442   */\n    tag_162:\n        /* \"#utility.yul\":17223:17227   */\n      0x00\n        /* \"#utility.yul\":17369:17398   */\n      tag_326\n        /* \"#utility.yul\":17394:17397   */\n      dup4\n        /* \"#utility.yul\":17388:17392   */\n      dup4\n        /* \"#utility.yul\":17369:17398   */\n      tag_161\n      jump\t// in\n    tag_326:\n        /* \"#utility.yul\":17361:17398   */\n      swap2\n      pop\n        /* \"#utility.yul\":17431:17434   */\n      dup3\n        /* \"#utility.yul\":17428:17429   */\n      0x02\n        /* \"#utility.yul\":17424:17435   */\n      mul\n        /* \"#utility.yul\":17418:17422   */\n      dup3\n        /* \"#utility.yul\":17415:17436   */\n      or\n        /* \"#utility.yul\":17407:17436   */\n      swap1\n      pop\n        /* \"#utility.yul\":17147:17442   */\n      swap3\n      swap2\n      pop\n      pop\n      jump\t// out\n        /* \"#utility.yul\":17447:18842   */\n    tag_108:\n        /* \"#utility.yul\":17564:17601   */\n      tag_328\n        /* \"#utility.yul\":17597:17600   */\n      dup3\n        /* \"#utility.yul\":17564:17601   */\n      tag_115\n      jump\t// in\n    tag_328:\n        /* \"#utility.yul\":17666:17684   */\n      0xffffffffffffffff\n        /* \"#utility.yul\":17658:17664   */\n      dup2\n        /* \"#utility.yul\":17655:17685   */\n      gt\n        /* \"#utility.yul\":17652:17708   */\n      iszero\n      tag_329\n      jumpi\n        /* \"#utility.yul\":17688:17706   */\n      tag_330\n      tag_29\n      jump\t// in\n    tag_330:\n        /* \"#utility.yul\":17652:17708   */\n    tag_329:\n        /* \"#utility.yul\":17732:17770   */\n      tag_331\n        /* \"#utility.yul\":17764:17768   */\n      dup3\n        /* \"#utility.yul\":17758:17769   */\n      sload\n        /* \"#utility.yul\":17732:17770   */\n      tag_40\n      jump\t// in\n    tag_331:\n        /* \"#utility.yul\":17817:17884   */\n      tag_332\n        /* \"#utility.yul\":17877:17883   */\n      dup3\n        /* \"#utility.yul\":17869:17875   */\n      dup3\n        /* \"#utility.yul\":17863:17867   */\n      dup6\n        /* \"#utility.yul\":17817:17884   */\n      tag_159\n      jump\t// in\n    tag_332:\n        /* \"#utility.yul\":17911:17912   */\n      0x00\n        /* \"#utility.yul\":17935:17939   */\n      0x20\n        /* \"#utility.yul\":17922:17939   */\n      swap1\n      pop\n        /* \"#utility.yul\":17967:17969   */\n      0x1f\n        /* \"#utility.yul\":17959:17965   */\n      dup4\n        /* \"#utility.yul\":17956:17970   */\n      gt\n        /* \"#utility.yul\":17984:17985   */\n      0x01\n        /* \"#utility.yul\":17979:18597   */\n      dup2\n      eq\n      tag_334\n      jumpi\n        /* \"#utility.yul\":18641:18642   */\n      0x00\n        /* \"#utility.yul\":18658:18664   */\n      dup5\n        /* \"#utility.yul\":18655:18732   */\n      iszero\n      tag_335\n      jumpi\n        /* \"#utility.yul\":18707:18716   */\n      dup3\n        /* \"#utility.yul\":18702:18705   */\n      dup8\n        /* \"#utility.yul\":18698:18717   */\n      add\n        /* \"#utility.yul\":18692:18718   */\n      mload\n        /* \"#utility.yul\":18683:18718   */\n      swap1\n      pop\n        /* \"#utility.yul\":18655:18732   */\n    tag_335:\n        /* \"#utility.yul\":18758:18825   */\n      tag_336\n        /* \"#utility.yul\":18818:18824   */\n      dup6\n        /* \"#utility.yul\":18811:18816   */\n      dup3\n        /* \"#utility.yul\":18758:18825   */\n      tag_162\n      jump\t// in\n    tag_336:\n        /* \"#utility.yul\":18752:18756   */\n      dup7\n        /* \"#utility.yul\":18745:18826   */\n      sstore\n        /* \"#utility.yul\":18614:18836   */\n      pop\n        /* \"#utility.yul\":17949:18836   */\n      jump(tag_333)\n        /* \"#utility.yul\":17979:18597   */\n    tag_334:\n        /* \"#utility.yul\":18031:18035   */\n      0x1f\n        /* \"#utility.yul\":18027:18036   */\n      not\n        /* \"#utility.yul\":18019:18025   */\n      dup5\n        /* \"#utility.yul\":18015:18037   */\n      and\n        /* \"#utility.yul\":18065:18102   */\n      tag_337\n        /* \"#utility.yul\":18097:18101   */\n      dup7\n        /* \"#utility.yul\":18065:18102   */\n      tag_148\n      jump\t// in\n    tag_337:\n        /* \"#utility.yul\":18124:18125   */\n      0x00\n        /* \"#utility.yul\":18138:18346   */\n    tag_338:\n        /* \"#utility.yul\":18152:18159   */\n      dup3\n        /* \"#utility.yul\":18149:18150   */\n      dup2\n        /* \"#utility.yul\":18146:18160   */\n      lt\n        /* \"#utility.yul\":18138:18346   */\n      iszero\n      tag_340\n      jumpi\n        /* \"#utility.yul\":18231:18240   */\n      dup5\n        /* \"#utility.yul\":18226:18229   */\n      dup10\n        /* \"#utility.yul\":18222:18241   */\n      add\n        /* \"#utility.yul\":18216:18242   */\n      mload\n        /* \"#utility.yul\":18208:18214   */\n      dup3\n        /* \"#utility.yul\":18201:18243   */\n      sstore\n        /* \"#utility.yul\":18282:18283   */\n      0x01\n        /* \"#utility.yul\":18274:18280   */\n      dup3\n        /* \"#utility.yul\":18270:18284   */\n      add\n        /* \"#utility.yul\":18260:18284   */\n      swap2\n      pop\n        /* \"#utility.yul\":18329:18331   */\n      0x20\n        /* \"#utility.yul\":18318:18327   */\n      dup6\n        /* \"#utility.yul\":18314:18332   */\n      add\n        /* \"#utility.yul\":18301:18332   */\n      swap5\n      pop\n        /* \"#utility.yul\":18175:18179   */\n      0x20\n        /* \"#utility.yul\":18172:18173   */\n      dup2\n        /* \"#utility.yul\":18168:18180   */\n      add\n        /* \"#utility.yul\":18163:18180   */\n      swap1\n      pop\n        /* \"#utility.yul\":18138:18346   */\n      jump(tag_338)\n    tag_340:\n        /* \"#utility.yul\":18374:18380   */\n      dup7\n        /* \"#utility.yul\":18365:18372   */\n      dup4\n        /* \"#utility.yul\":18362:18381   */\n      lt\n        /* \"#utility.yul\":18359:18538   */\n      iszero\n      tag_341\n      jumpi\n        /* \"#utility.yul\":18432:18441   */\n      dup5\n        /* \"#utility.yul\":18427:18430   */\n      dup10\n        /* \"#utility.yul\":18423:18442   */\n      add\n        /* \"#utility.yul\":18417:18443   */\n      mload\n        /* \"#utility.yul\":18475:18523   */\n      tag_342\n        /* \"#utility.yul\":18517:18521   */\n      0x1f\n        /* \"#utility.yul\":18509:18515   */\n      dup10\n        /* \"#utility.yul\":18505:18522   */\n      and\n        /* \"#utility.yul\":18494:18503   */\n      dup3\n        /* \"#utility.yul\":18475:18523   */\n      tag_161\n      jump\t// in\n    tag_342:\n        /* \"#utility.yul\":18467:18473   */\n      dup4\n        /* \"#utility.yul\":18460:18524   */\n      sstore\n        /* \"#utility.yul\":18382:18538   */\n      pop\n        /* \"#utility.yul\":18359:18538   */\n    tag_341:\n        /* \"#utility.yul\":18584:18585   */\n      0x01\n        /* \"#utility.yul\":18580:18581   */\n      0x02\n        /* \"#utility.yul\":18572:18578   */\n      dup9\n        /* \"#utility.yul\":18568:18582   */\n      mul\n        /* \"#utility.yul\":18564:18586   */\n      add\n        /* \"#utility.yul\":18558:18562   */\n      dup9\n        /* \"#utility.yul\":18551:18587   */\n      sstore\n        /* \"#utility.yul\":17986:18597   */\n      pop\n      pop\n      pop\n        /* \"#utility.yul\":17949:18836   */\n    tag_333:\n      pop\n        /* \"#utility.yul\":17539:18842   */\n      pop\n      pop\n      pop\n        /* \"#utility.yul\":17447:18842   */\n      pop\n      pop\n      jump\t// out\n\n    auxdata: 0xa264697066735822122021926cc6a2db2a00e600a4bd74fe11e1aeb4b3d2fbe07a057a4f3b6a2516d63a64736f6c63430008110033\n}\n",
				"bytecode": {
					"linkReferences": {},
					"object": "60806040523480156200001157600080fd5b50604051620014c1380380620014c18339818101604052810190620000379190620000e9565b80600160006101000a81548173ffffffffffffffffffffffffffffffffffffffff021916908373ffffffffffffffffffffffffffffffffffffffff160217905550506200011b565b600080fd5b600073ffffffffffffffffffffffffffffffffffffffff82169050919050565b6000620000b18262000084565b9050919050565b620000c381620000a4565b8114620000cf57600080fd5b50565b600081519050620000e381620000b8565b92915050565b6000602082840312156200010257620001016200007f565b5b60006200011284828501620000d2565b91505092915050565b611396806200012b6000396000f3fe608060405234801561001057600080fd5b506004361061004c5760003560e01c806337a811a1146100515780638ec9bc6a1461006f578063a02d36971461009f578063e96f77ee146100cf575b600080fd5b6100596100eb565b6040516100669190610adb565b60405180910390f35b61008960048036038101906100849190610b6c565b610235565b6040516100969190610bfa565b60405180910390f35b6100b960048036038101906100b49190610b6c565b61030a565b6040516100c69190610caf565b60405180910390f35b6100e960048036038101906100e49190610cfd565b610667565b005b606060008054905067ffffffffffffffff81111561010c5761010b610df9565b5b60405190808252806020026020018201604052801561013f57816020015b606081526020019060019003908161012a5790505b50905060005b600080549050811015610231576000818154811061016657610165610e28565b5b9060005260206000209060050201600201805461018290610e86565b80601f01602080910402602001604051908101604052809291908181526020018280546101ae90610e86565b80156101fb5780601f106101d0576101008083540402835291602001916101fb565b820191906000526020600020905b8154815290600101906020018083116101de57829003601f168201915b505050505082828151811061021357610212610e28565b5b6020026020010181905250808061022990610ef0565b915050610145565b5090565b600080600090505b60008054905081101561030257838360405161025a929190610f77565b60405180910390206000828154811061027657610275610e28565b5b90600052602060002090600502016002016040516102949190611028565b6040518091039020036102ef57600081815481106102b5576102b4610e28565b5b906000526020600020906005020160040160009054906101000a900473ffffffffffffffffffffffffffffffffffffffff16915050610304565b80806102fa90610ef0565b91505061023d565b505b92915050565b610312610944565b60005b60008054905081101561065f578383604051610332929190610f77565b60405180910390206000828154811061034e5761034d610e28565b5b906000526020600020906005020160020160405161036c9190611028565b60405180910390200361064c576000818154811061038d5761038c610e28565b5b90600052602060002090600502016040518060a00160405290816000820180546103b690610e86565b80601f01602080910402602001604051908101604052809291908181526020018280546103e290610e86565b801561042f5780601f106104045761010080835404028352916020019161042f565b820191906000526020600020905b81548152906001019060200180831161041257829003601f168201915b5050505050815260200160018201805461044890610e86565b80601f016020809104026020016040519081016040528092919081815260200182805461047490610e86565b80156104c15780601f10610496576101008083540402835291602001916104c1565b820191906000526020600020905b8154815290600101906020018083116104a457829003601f168201915b505050505081526020016002820180546104da90610e86565b80601f016020809104026020016040519081016040528092919081815260200182805461050690610e86565b80156105535780601f1061052857610100808354040283529160200191610553565b820191906000526020600020905b81548152906001019060200180831161053657829003601f168201915b5050505050815260200160038201805461056c90610e86565b80601f016020809104026020016040519081016040528092919081815260200182805461059890610e86565b80156105e55780601f106105ba576101008083540402835291602001916105e5565b820191906000526020600020905b8154815290600101906020018083116105c857829003601f168201915b505050505081526020016004820160009054906101000a900473ffffffffffffffffffffffffffffffffffffffff1673ffffffffffffffffffffffffffffffffffffffff1673ffffffffffffffffffffffffffffffffffffffff1681525050915050610661565b808061065790610ef0565b915050610315565b505b92915050565b600160009054906101000a900473ffffffffffffffffffffffffffffffffffffffff1673ffffffffffffffffffffffffffffffffffffffff163373ffffffffffffffffffffffffffffffffffffffff16146106f7576040517f08c379a00000000000000000000000000000000000000000000000000000000081526004016106ee906110c2565b60405180910390fd5b6106ff610944565b89898080601f016020809104026020016040519081016040528093929190818152602001838380828437600081840152601f19601f82011690508083019250505050505050816000018190525087878080601f016020809104026020016040519081016040528093929190818152602001838380828437600081840152601f19601f82011690508083019250505050505050816020018190525085858080601f016020809104026020016040519081016040528093929190818152602001838380828437600081840152601f19601f82011690508083019250505050505050816040018190525083838080601f016020809104026020016040519081016040528093929190818152602001838380828437600081840152601f19601f82011690508083019250505050505050816060018190525081816080019073ffffffffffffffffffffffffffffffffffffffff16908173ffffffffffffffffffffffffffffffffffffffff1681525050600081908060018154018082558091505060019003906000526020600020906005020160009091909190915060008201518160000190816108ac919061128e565b5060208201518160010190816108c2919061128e565b5060408201518160020190816108d8919061128e565b5060608201518160030190816108ee919061128e565b5060808201518160040160006101000a81548173ffffffffffffffffffffffffffffffffffffffff021916908373ffffffffffffffffffffffffffffffffffffffff160217905550505050505050505050505050565b6040518060a0016040528060608152602001606081526020016060815260200160608152602001600073ffffffffffffffffffffffffffffffffffffffff1681525090565b600081519050919050565b600082825260208201905092915050565b6000819050602082019050919050565b600081519050919050565b600082825260208201905092915050565b60005b838110156109ef5780820151818401526020810190506109d4565b60008484015250505050565b6000601f19601f8301169050919050565b6000610a17826109b5565b610a2181856109c0565b9350610a318185602086016109d1565b610a3a816109fb565b840191505092915050565b6000610a518383610a0c565b905092915050565b6000602082019050919050565b6000610a7182610989565b610a7b8185610994565b935083602082028501610a8d856109a5565b8060005b85811015610ac95784840389528151610aaa8582610a45565b9450610ab583610a59565b925060208a01995050600181019050610a91565b50829750879550505050505092915050565b60006020820190508181036000830152610af58184610a66565b905092915050565b600080fd5b600080fd5b600080fd5b600080fd5b600080fd5b60008083601f840112610b2c57610b2b610b07565b5b8235905067ffffffffffffffff811115610b4957610b48610b0c565b5b602083019150836001820283011115610b6557610b64610b11565b5b9250929050565b60008060208385031215610b8357610b82610afd565b5b600083013567ffffffffffffffff811115610ba157610ba0610b02565b5b610bad85828601610b16565b92509250509250929050565b600073ffffffffffffffffffffffffffffffffffffffff82169050919050565b6000610be482610bb9565b9050919050565b610bf481610bd9565b82525050565b6000602082019050610c0f6000830184610beb565b92915050565b610c1e81610bd9565b82525050565b600060a0830160008301518482036000860152610c418282610a0c565b91505060208301518482036020860152610c5b8282610a0c565b91505060408301518482036040860152610c758282610a0c565b91505060608301518482036060860152610c8f8282610a0c565b9150506080830151610ca46080860182610c15565b508091505092915050565b60006020820190508181036000830152610cc98184610c24565b905092915050565b610cda81610bd9565b8114610ce557600080fd5b50565b600081359050610cf781610cd1565b92915050565b600080600080600080600080600060a08a8c031215610d1f57610d1e610afd565b5b60008a013567ffffffffffffffff811115610d3d57610d3c610b02565b5b610d498c828d01610b16565b995099505060208a013567ffffffffffffffff811115610d6c57610d6b610b02565b5b610d788c828d01610b16565b975097505060408a013567ffffffffffffffff811115610d9b57610d9a610b02565b5b610da78c828d01610b16565b955095505060608a013567ffffffffffffffff811115610dca57610dc9610b02565b5b610dd68c828d01610b16565b93509350506080610de98c828d01610ce8565b9150509295985092959850929598565b7f4e487b7100000000000000000000000000000000000000000000000000000000600052604160045260246000fd5b7f4e487b7100000000000000000000000000000000000000000000000000000000600052603260045260246000fd5b7f4e487b7100000000000000000000000000000000000000000000000000000000600052602260045260246000fd5b60006002820490506001821680610e9e57607f821691505b602082108103610eb157610eb0610e57565b5b50919050565b7f4e487b7100000000000000000000000000000000000000000000000000000000600052601160045260246000fd5b6000819050919050565b6000610efb82610ee6565b91507fffffffffffffffffffffffffffffffffffffffffffffffffffffffffffffffff8203610f2d57610f2c610eb7565b5b600182019050919050565b600081905092915050565b82818337600083830152505050565b6000610f5e8385610f38565b9350610f6b838584610f43565b82840190509392505050565b6000610f84828486610f52565b91508190509392505050565b60008190508160005260206000209050919050565b60008154610fb281610e86565b610fbc8186610f38565b94506001821660008114610fd75760018114610fec5761101f565b60ff198316865281151582028601935061101f565b610ff585610f90565b60005b8381101561101757815481890152600182019150602081019050610ff8565b838801955050505b50505092915050565b60006110348284610fa5565b915081905092915050565b600082825260208201905092915050565b7f4f6e6c7920656c656374696f6e2d636f6d6d697373696f6e2063616e2063616c60008201527f6c207468697320636f6e74726163742e00000000000000000000000000000000602082015250565b60006110ac60308361103f565b91506110b782611050565b604082019050919050565b600060208201905081810360008301526110db8161109f565b9050919050565b60008190508160005260206000209050919050565b60006020601f8301049050919050565b600082821b905092915050565b6000600883026111447fffffffffffffffffffffffffffffffffffffffffffffffffffffffffffffffff82611107565b61114e8683611107565b95508019841693508086168417925050509392505050565b6000819050919050565b600061118b61118661118184610ee6565b611166565b610ee6565b9050919050565b6000819050919050565b6111a583611170565b6111b96111b182611192565b848454611114565b825550505050565b600090565b6111ce6111c1565b6111d981848461119c565b505050565b5b818110156111fd576111f26000826111c6565b6001810190506111df565b5050565b601f82111561124257611213816110e2565b61121c846110f7565b8101602085101561122b578190505b61123f611237856110f7565b8301826111de565b50505b505050565b600082821c905092915050565b600061126560001984600802611247565b1980831691505092915050565b600061127e8383611254565b9150826002028217905092915050565b611297826109b5565b67ffffffffffffffff8111156112b0576112af610df9565b5b6112ba8254610e86565b6112c5828285611201565b600060209050601f8311600181146112f857600084156112e6578287015190505b6112f08582611272565b865550611358565b601f198416611306866110e2565b60005b8281101561132e57848901518255600182019150602085019450602081019050611309565b8683101561134b5784890151611347601f891682611254565b8355505b6001600288020188555050505b50505050505056fea264697066735822122021926cc6a2db2a00e600a4bd74fe11e1aeb4b3d2fbe07a057a4f3b6a2516d63a64736f6c63430008110033",
					"opcodes": "PUSH1 0x80 PUSH1 0x40 MSTORE CALLVALUE DUP1 ISZERO PUSH3 0x11 JUMPI PUSH1 0x0 DUP1 REVERT JUMPDEST POP PUSH1 0x40 MLOAD PUSH3 0x14C1 CODESIZE SUB DUP1 PUSH3 0x14C1 DUP4 CODECOPY DUP2 DUP2 ADD PUSH1 0x40 MSTORE DUP2 ADD SWAP1 PUSH3 0x37 SWAP2 SWAP1 PUSH3 0xE9 JUMP JUMPDEST DUP1 PUSH1 0x1 PUSH1 0x0 PUSH2 0x100 EXP DUP2 SLOAD DUP2 PUSH20 0xFFFFFFFFFFFFFFFFFFFFFFFFFFFFFFFFFFFFFFFF MUL NOT AND SWAP1 DUP4 PUSH20 0xFFFFFFFFFFFFFFFFFFFFFFFFFFFFFFFFFFFFFFFF AND MUL OR SWAP1 SSTORE POP POP PUSH3 0x11B JUMP JUMPDEST PUSH1 0x0 DUP1 REVERT JUMPDEST PUSH1 0x0 PUSH20 0xFFFFFFFFFFFFFFFFFFFFFFFFFFFFFFFFFFFFFFFF DUP3 AND SWAP1 POP SWAP2 SWAP1 POP JUMP JUMPDEST PUSH1 0x0 PUSH3 0xB1 DUP3 PUSH3 0x84 JUMP JUMPDEST SWAP1 POP SWAP2 SWAP1 POP JUMP JUMPDEST PUSH3 0xC3 DUP2 PUSH3 0xA4 JUMP JUMPDEST DUP2 EQ PUSH3 0xCF JUMPI PUSH1 0x0 DUP1 REVERT JUMPDEST POP JUMP JUMPDEST PUSH1 0x0 DUP2 MLOAD SWAP1 POP PUSH3 0xE3 DUP2 PUSH3 0xB8 JUMP JUMPDEST SWAP3 SWAP2 POP POP JUMP JUMPDEST PUSH1 0x0 PUSH1 0x20 DUP3 DUP5 SUB SLT ISZERO PUSH3 0x102 JUMPI PUSH3 0x101 PUSH3 0x7F JUMP JUMPDEST JUMPDEST PUSH1 0x0 PUSH3 0x112 DUP5 DUP3 DUP6 ADD PUSH3 0xD2 JUMP JUMPDEST SWAP2 POP POP SWAP3 SWAP2 POP POP JUMP JUMPDEST PUSH2 0x1396 DUP1 PUSH3 0x12B PUSH1 0x0 CODECOPY PUSH1 0x0 RETURN INVALID PUSH1 0x80 PUSH1 0x40 MSTORE CALLVALUE DUP1 ISZERO PUSH2 0x10 JUMPI PUSH1 0x0 DUP1 REVERT JUMPDEST POP PUSH1 0x4 CALLDATASIZE LT PUSH2 0x4C JUMPI PUSH1 0x0 CALLDATALOAD PUSH1 0xE0 SHR DUP1 PUSH4 0x37A811A1 EQ PUSH2 0x51 JUMPI DUP1 PUSH4 0x8EC9BC6A EQ PUSH2 0x6F JUMPI DUP1 PUSH4 0xA02D3697 EQ PUSH2 0x9F JUMPI DUP1 PUSH4 0xE96F77EE EQ PUSH2 0xCF JUMPI JUMPDEST PUSH1 0x0 DUP1 REVERT JUMPDEST PUSH2 0x59 PUSH2 0xEB JUMP JUMPDEST PUSH1 0x40 MLOAD PUSH2 0x66 SWAP2 SWAP1 PUSH2 0xADB JUMP JUMPDEST PUSH1 0x40 MLOAD DUP1 SWAP2 SUB SWAP1 RETURN JUMPDEST PUSH2 0x89 PUSH1 0x4 DUP1 CALLDATASIZE SUB DUP2 ADD SWAP1 PUSH2 0x84 SWAP2 SWAP1 PUSH2 0xB6C JUMP JUMPDEST PUSH2 0x235 JUMP JUMPDEST PUSH1 0x40 MLOAD PUSH2 0x96 SWAP2 SWAP1 PUSH2 0xBFA JUMP JUMPDEST PUSH1 0x40 MLOAD DUP1 SWAP2 SUB SWAP1 RETURN JUMPDEST PUSH2 0xB9 PUSH1 0x4 DUP1 CALLDATASIZE SUB DUP2 ADD SWAP1 PUSH2 0xB4 SWAP2 SWAP1 PUSH2 0xB6C JUMP JUMPDEST PUSH2 0x30A JUMP JUMPDEST PUSH1 0x40 MLOAD PUSH2 0xC6 SWAP2 SWAP1 PUSH2 0xCAF JUMP JUMPDEST PUSH1 0x40 MLOAD DUP1 SWAP2 SUB SWAP1 RETURN JUMPDEST PUSH2 0xE9 PUSH1 0x4 DUP1 CALLDATASIZE SUB DUP2 ADD SWAP1 PUSH2 0xE4 SWAP2 SWAP1 PUSH2 0xCFD JUMP JUMPDEST PUSH2 0x667 JUMP JUMPDEST STOP JUMPDEST PUSH1 0x60 PUSH1 0x0 DUP1 SLOAD SWAP1 POP PUSH8 0xFFFFFFFFFFFFFFFF DUP2 GT ISZERO PUSH2 0x10C JUMPI PUSH2 0x10B PUSH2 0xDF9 JUMP JUMPDEST JUMPDEST PUSH1 0x40 MLOAD SWAP1 DUP1 DUP3 MSTORE DUP1 PUSH1 0x20 MUL PUSH1 0x20 ADD DUP3 ADD PUSH1 0x40 MSTORE DUP1 ISZERO PUSH2 0x13F JUMPI DUP2 PUSH1 0x20 ADD JUMPDEST PUSH1 0x60 DUP2 MSTORE PUSH1 0x20 ADD SWAP1 PUSH1 0x1 SWAP1 SUB SWAP1 DUP2 PUSH2 0x12A JUMPI SWAP1 POP JUMPDEST POP SWAP1 POP PUSH1 0x0 JUMPDEST PUSH1 0x0 DUP1 SLOAD SWAP1 POP DUP2 LT ISZERO PUSH2 0x231 JUMPI PUSH1 0x0 DUP2 DUP2 SLOAD DUP2 LT PUSH2 0x166 JUMPI PUSH2 0x165 PUSH2 0xE28 JUMP JUMPDEST JUMPDEST SWAP1 PUSH1 0x0 MSTORE PUSH1 0x20 PUSH1 0x0 KECCAK256 SWAP1 PUSH1 0x5 MUL ADD PUSH1 0x2 ADD DUP1 SLOAD PUSH2 0x182 SWAP1 PUSH2 0xE86 JUMP JUMPDEST DUP1 PUSH1 0x1F ADD PUSH1 0x20 DUP1 SWAP2 DIV MUL PUSH1 0x20 ADD PUSH1 0x40 MLOAD SWAP1 DUP2 ADD PUSH1 0x40 MSTORE DUP1 SWAP3 SWAP2 SWAP1 DUP2 DUP2 MSTORE PUSH1 0x20 ADD DUP3 DUP1 SLOAD PUSH2 0x1AE SWAP1 PUSH2 0xE86 JUMP JUMPDEST DUP1 ISZERO PUSH2 0x1FB JUMPI DUP1 PUSH1 0x1F LT PUSH2 0x1D0 JUMPI PUSH2 0x100 DUP1 DUP4 SLOAD DIV MUL DUP4 MSTORE SWAP2 PUSH1 0x20 ADD SWAP2 PUSH2 0x1FB JUMP JUMPDEST DUP3 ADD SWAP2 SWAP1 PUSH1 0x0 MSTORE PUSH1 0x20 PUSH1 0x0 KECCAK256 SWAP1 JUMPDEST DUP2 SLOAD DUP2 MSTORE SWAP1 PUSH1 0x1 ADD SWAP1 PUSH1 0x20 ADD DUP1 DUP4 GT PUSH2 0x1DE JUMPI DUP3 SWAP1 SUB PUSH1 0x1F AND DUP3 ADD SWAP2 JUMPDEST POP POP POP POP POP DUP3 DUP3 DUP2 MLOAD DUP2 LT PUSH2 0x213 JUMPI PUSH2 0x212 PUSH2 0xE28 JUMP JUMPDEST JUMPDEST PUSH1 0x20 MUL PUSH1 0x20 ADD ADD DUP2 SWAP1 MSTORE POP DUP1 DUP1 PUSH2 0x229 SWAP1 PUSH2 0xEF0 JUMP JUMPDEST SWAP2 POP POP PUSH2 0x145 JUMP JUMPDEST POP SWAP1 JUMP JUMPDEST PUSH1 0x0 DUP1 PUSH1 0x0 SWAP1 POP JUMPDEST PUSH1 0x0 DUP1 SLOAD SWAP1 POP DUP2 LT ISZERO PUSH2 0x302 JUMPI DUP4 DUP4 PUSH1 0x40 MLOAD PUSH2 0x25A SWAP3 SWAP2 SWAP1 PUSH2 0xF77 JUMP JUMPDEST PUSH1 0x40 MLOAD DUP1 SWAP2 SUB SWAP1 KECCAK256 PUSH1 0x0 DUP3 DUP2 SLOAD DUP2 LT PUSH2 0x276 JUMPI PUSH2 0x275 PUSH2 0xE28 JUMP JUMPDEST JUMPDEST SWAP1 PUSH1 0x0 MSTORE PUSH1 0x20 PUSH1 0x0 KECCAK256 SWAP1 PUSH1 0x5 MUL ADD PUSH1 0x2 ADD PUSH1 0x40 MLOAD PUSH2 0x294 SWAP2 SWAP1 PUSH2 0x1028 JUMP JUMPDEST PUSH1 0x40 MLOAD DUP1 SWAP2 SUB SWAP1 KECCAK256 SUB PUSH2 0x2EF JUMPI PUSH1 0x0 DUP2 DUP2 SLOAD DUP2 LT PUSH2 0x2B5 JUMPI PUSH2 0x2B4 PUSH2 0xE28 JUMP JUMPDEST JUMPDEST SWAP1 PUSH1 0x0 MSTORE PUSH1 0x20 PUSH1 0x0 KECCAK256 SWAP1 PUSH1 0x5 MUL ADD PUSH1 0x4 ADD PUSH1 0x0 SWAP1 SLOAD SWAP1 PUSH2 0x100 EXP SWAP1 DIV PUSH20 0xFFFFFFFFFFFFFFFFFFFFFFFFFFFFFFFFFFFFFFFF AND SWAP2 POP POP PUSH2 0x304 JUMP JUMPDEST DUP1 DUP1 PUSH2 0x2FA SWAP1 PUSH2 0xEF0 JUMP JUMPDEST SWAP2 POP POP PUSH2 0x23D JUMP JUMPDEST POP JUMPDEST SWAP3 SWAP2 POP POP JUMP JUMPDEST PUSH2 0x312 PUSH2 0x944 JUMP JUMPDEST PUSH1 0x0 JUMPDEST PUSH1 0x0 DUP1 SLOAD SWAP1 POP DUP2 LT ISZERO PUSH2 0x65F JUMPI DUP4 DUP4 PUSH1 0x40 MLOAD PUSH2 0x332 SWAP3 SWAP2 SWAP1 PUSH2 0xF77 JUMP JUMPDEST PUSH1 0x40 MLOAD DUP1 SWAP2 SUB SWAP1 KECCAK256 PUSH1 0x0 DUP3 DUP2 SLOAD DUP2 LT PUSH2 0x34E JUMPI PUSH2 0x34D PUSH2 0xE28 JUMP JUMPDEST JUMPDEST SWAP1 PUSH1 0x0 MSTORE PUSH1 0x20 PUSH1 0x0 KECCAK256 SWAP1 PUSH1 0x5 MUL ADD PUSH1 0x2 ADD PUSH1 0x40 MLOAD PUSH2 0x36C SWAP2 SWAP1 PUSH2 0x1028 JUMP JUMPDEST PUSH1 0x40 MLOAD DUP1 SWAP2 SUB SWAP1 KECCAK256 SUB PUSH2 0x64C JUMPI PUSH1 0x0 DUP2 DUP2 SLOAD DUP2 LT PUSH2 0x38D JUMPI PUSH2 0x38C PUSH2 0xE28 JUMP JUMPDEST JUMPDEST SWAP1 PUSH1 0x0 MSTORE PUSH1 0x20 PUSH1 0x0 KECCAK256 SWAP1 PUSH1 0x5 MUL ADD PUSH1 0x40 MLOAD DUP1 PUSH1 0xA0 ADD PUSH1 0x40 MSTORE SWAP1 DUP2 PUSH1 0x0 DUP3 ADD DUP1 SLOAD PUSH2 0x3B6 SWAP1 PUSH2 0xE86 JUMP JUMPDEST DUP1 PUSH1 0x1F ADD PUSH1 0x20 DUP1 SWAP2 DIV MUL PUSH1 0x20 ADD PUSH1 0x40 MLOAD SWAP1 DUP2 ADD PUSH1 0x40 MSTORE DUP1 SWAP3 SWAP2 SWAP1 DUP2 DUP2 MSTORE PUSH1 0x20 ADD DUP3 DUP1 SLOAD PUSH2 0x3E2 SWAP1 PUSH2 0xE86 JUMP JUMPDEST DUP1 ISZERO PUSH2 0x42F JUMPI DUP1 PUSH1 0x1F LT PUSH2 0x404 JUMPI PUSH2 0x100 DUP1 DUP4 SLOAD DIV MUL DUP4 MSTORE SWAP2 PUSH1 0x20 ADD SWAP2 PUSH2 0x42F JUMP JUMPDEST DUP3 ADD SWAP2 SWAP1 PUSH1 0x0 MSTORE PUSH1 0x20 PUSH1 0x0 KECCAK256 SWAP1 JUMPDEST DUP2 SLOAD DUP2 MSTORE SWAP1 PUSH1 0x1 ADD SWAP1 PUSH1 0x20 ADD DUP1 DUP4 GT PUSH2 0x412 JUMPI DUP3 SWAP1 SUB PUSH1 0x1F AND DUP3 ADD SWAP2 JUMPDEST POP POP POP POP POP DUP2 MSTORE PUSH1 0x20 ADD PUSH1 0x1 DUP3 ADD DUP1 SLOAD PUSH2 0x448 SWAP1 PUSH2 0xE86 JUMP JUMPDEST DUP1 PUSH1 0x1F ADD PUSH1 0x20 DUP1 SWAP2 DIV MUL PUSH1 0x20 ADD PUSH1 0x40 MLOAD SWAP1 DUP2 ADD PUSH1 0x40 MSTORE DUP1 SWAP3 SWAP2 SWAP1 DUP2 DUP2 MSTORE PUSH1 0x20 ADD DUP3 DUP1 SLOAD PUSH2 0x474 SWAP1 PUSH2 0xE86 JUMP JUMPDEST DUP1 ISZERO PUSH2 0x4C1 JUMPI DUP1 PUSH1 0x1F LT PUSH2 0x496 JUMPI PUSH2 0x100 DUP1 DUP4 SLOAD DIV MUL DUP4 MSTORE SWAP2 PUSH1 0x20 ADD SWAP2 PUSH2 0x4C1 JUMP JUMPDEST DUP3 ADD SWAP2 SWAP1 PUSH1 0x0 MSTORE PUSH1 0x20 PUSH1 0x0 KECCAK256 SWAP1 JUMPDEST DUP2 SLOAD DUP2 MSTORE SWAP1 PUSH1 0x1 ADD SWAP1 PUSH1 0x20 ADD DUP1 DUP4 GT PUSH2 0x4A4 JUMPI DUP3 SWAP1 SUB PUSH1 0x1F AND DUP3 ADD SWAP2 JUMPDEST POP POP POP POP POP DUP2 MSTORE PUSH1 0x20 ADD PUSH1 0x2 DUP3 ADD DUP1 SLOAD PUSH2 0x4DA SWAP1 PUSH2 0xE86 JUMP JUMPDEST DUP1 PUSH1 0x1F ADD PUSH1 0x20 DUP1 SWAP2 DIV MUL PUSH1 0x20 ADD PUSH1 0x40 MLOAD SWAP1 DUP2 ADD PUSH1 0x40 MSTORE DUP1 SWAP3 SWAP2 SWAP1 DUP2 DUP2 MSTORE PUSH1 0x20 ADD DUP3 DUP1 SLOAD PUSH2 0x506 SWAP1 PUSH2 0xE86 JUMP JUMPDEST DUP1 ISZERO PUSH2 0x553 JUMPI DUP1 PUSH1 0x1F LT PUSH2 0x528 JUMPI PUSH2 0x100 DUP1 DUP4 SLOAD DIV MUL DUP4 MSTORE SWAP2 PUSH1 0x20 ADD SWAP2 PUSH2 0x553 JUMP JUMPDEST DUP3 ADD SWAP2 SWAP1 PUSH1 0x0 MSTORE PUSH1 0x20 PUSH1 0x0 KECCAK256 SWAP1 JUMPDEST DUP2 SLOAD DUP2 MSTORE SWAP1 PUSH1 0x1 ADD SWAP1 PUSH1 0x20 ADD DUP1 DUP4 GT PUSH2 0x536 JUMPI DUP3 SWAP1 SUB PUSH1 0x1F AND DUP3 ADD SWAP2 JUMPDEST POP POP POP POP POP DUP2 MSTORE PUSH1 0x20 ADD PUSH1 0x3 DUP3 ADD DUP1 SLOAD PUSH2 0x56C SWAP1 PUSH2 0xE86 JUMP JUMPDEST DUP1 PUSH1 0x1F ADD PUSH1 0x20 DUP1 SWAP2 DIV MUL PUSH1 0x20 ADD PUSH1 0x40 MLOAD SWAP1 DUP2 ADD PUSH1 0x40 MSTORE DUP1 SWAP3 SWAP2 SWAP1 DUP2 DUP2 MSTORE PUSH1 0x20 ADD DUP3 DUP1 SLOAD PUSH2 0x598 SWAP1 PUSH2 0xE86 JUMP JUMPDEST DUP1 ISZERO PUSH2 0x5E5 JUMPI DUP1 PUSH1 0x1F LT PUSH2 0x5BA JUMPI PUSH2 0x100 DUP1 DUP4 SLOAD DIV MUL DUP4 MSTORE SWAP2 PUSH1 0x20 ADD SWAP2 PUSH2 0x5E5 JUMP JUMPDEST DUP3 ADD SWAP2 SWAP1 PUSH1 0x0 MSTORE PUSH1 0x20 PUSH1 0x0 KECCAK256 SWAP1 JUMPDEST DUP2 SLOAD DUP2 MSTORE SWAP1 PUSH1 0x1 ADD SWAP1 PUSH1 0x20 ADD DUP1 DUP4 GT PUSH2 0x5C8 JUMPI DUP3 SWAP1 SUB PUSH1 0x1F AND DUP3 ADD SWAP2 JUMPDEST POP POP POP POP POP DUP2 MSTORE PUSH1 0x20 ADD PUSH1 0x4 DUP3 ADD PUSH1 0x0 SWAP1 SLOAD SWAP1 PUSH2 0x100 EXP SWAP1 DIV PUSH20 0xFFFFFFFFFFFFFFFFFFFFFFFFFFFFFFFFFFFFFFFF AND PUSH20 0xFFFFFFFFFFFFFFFFFFFFFFFFFFFFFFFFFFFFFFFF AND PUSH20 0xFFFFFFFFFFFFFFFFFFFFFFFFFFFFFFFFFFFFFFFF AND DUP2 MSTORE POP POP SWAP2 POP POP PUSH2 0x661 JUMP JUMPDEST DUP1 DUP1 PUSH2 0x657 SWAP1 PUSH2 0xEF0 JUMP JUMPDEST SWAP2 POP POP PUSH2 0x315 JUMP JUMPDEST POP JUMPDEST SWAP3 SWAP2 POP POP JUMP JUMPDEST PUSH1 0x1 PUSH1 0x0 SWAP1 SLOAD SWAP1 PUSH2 0x100 EXP SWAP1 DIV PUSH20 0xFFFFFFFFFFFFFFFFFFFFFFFFFFFFFFFFFFFFFFFF AND PUSH20 0xFFFFFFFFFFFFFFFFFFFFFFFFFFFFFFFFFFFFFFFF AND CALLER PUSH20 0xFFFFFFFFFFFFFFFFFFFFFFFFFFFFFFFFFFFFFFFF AND EQ PUSH2 0x6F7 JUMPI PUSH1 0x40 MLOAD PUSH32 0x8C379A000000000000000000000000000000000000000000000000000000000 DUP2 MSTORE PUSH1 0x4 ADD PUSH2 0x6EE SWAP1 PUSH2 0x10C2 JUMP JUMPDEST PUSH1 0x40 MLOAD DUP1 SWAP2 SUB SWAP1 REVERT JUMPDEST PUSH2 0x6FF PUSH2 0x944 JUMP JUMPDEST DUP10 DUP10 DUP1 DUP1 PUSH1 0x1F ADD PUSH1 0x20 DUP1 SWAP2 DIV MUL PUSH1 0x20 ADD PUSH1 0x40 MLOAD SWAP1 DUP2 ADD PUSH1 0x40 MSTORE DUP1 SWAP4 SWAP3 SWAP2 SWAP1 DUP2 DUP2 MSTORE PUSH1 0x20 ADD DUP4 DUP4 DUP1 DUP3 DUP5 CALLDATACOPY PUSH1 0x0 DUP2 DUP5 ADD MSTORE PUSH1 0x1F NOT PUSH1 0x1F DUP3 ADD AND SWAP1 POP DUP1 DUP4 ADD SWAP3 POP POP POP POP POP POP POP DUP2 PUSH1 0x0 ADD DUP2 SWAP1 MSTORE POP DUP8 DUP8 DUP1 DUP1 PUSH1 0x1F ADD PUSH1 0x20 DUP1 SWAP2 DIV MUL PUSH1 0x20 ADD PUSH1 0x40 MLOAD SWAP1 DUP2 ADD PUSH1 0x40 MSTORE DUP1 SWAP4 SWAP3 SWAP2 SWAP1 DUP2 DUP2 MSTORE PUSH1 0x20 ADD DUP4 DUP4 DUP1 DUP3 DUP5 CALLDATACOPY PUSH1 0x0 DUP2 DUP5 ADD MSTORE PUSH1 0x1F NOT PUSH1 0x1F DUP3 ADD AND SWAP1 POP DUP1 DUP4 ADD SWAP3 POP POP POP POP POP POP POP DUP2 PUSH1 0x20 ADD DUP2 SWAP1 MSTORE POP DUP6 DUP6 DUP1 DUP1 PUSH1 0x1F ADD PUSH1 0x20 DUP1 SWAP2 DIV MUL PUSH1 0x20 ADD PUSH1 0x40 MLOAD SWAP1 DUP2 ADD PUSH1 0x40 MSTORE DUP1 SWAP4 SWAP3 SWAP2 SWAP1 DUP2 DUP2 MSTORE PUSH1 0x20 ADD DUP4 DUP4 DUP1 DUP3 DUP5 CALLDATACOPY PUSH1 0x0 DUP2 DUP5 ADD MSTORE PUSH1 0x1F NOT PUSH1 0x1F DUP3 ADD AND SWAP1 POP DUP1 DUP4 ADD SWAP3 POP POP POP POP POP POP POP DUP2 PUSH1 0x40 ADD DUP2 SWAP1 MSTORE POP DUP4 DUP4 DUP1 DUP1 PUSH1 0x1F ADD PUSH1 0x20 DUP1 SWAP2 DIV MUL PUSH1 0x20 ADD PUSH1 0x40 MLOAD SWAP1 DUP2 ADD PUSH1 0x40 MSTORE DUP1 SWAP4 SWAP3 SWAP2 SWAP1 DUP2 DUP2 MSTORE PUSH1 0x20 ADD DUP4 DUP4 DUP1 DUP3 DUP5 CALLDATACOPY PUSH1 0x0 DUP2 DUP5 ADD MSTORE PUSH1 0x1F NOT PUSH1 0x1F DUP3 ADD AND SWAP1 POP DUP1 DUP4 ADD SWAP3 POP POP POP POP POP POP POP DUP2 PUSH1 0x60 ADD DUP2 SWAP1 MSTORE POP DUP2 DUP2 PUSH1 0x80 ADD SWAP1 PUSH20 0xFFFFFFFFFFFFFFFFFFFFFFFFFFFFFFFFFFFFFFFF AND SWAP1 DUP2 PUSH20 0xFFFFFFFFFFFFFFFFFFFFFFFFFFFFFFFFFFFFFFFF AND DUP2 MSTORE POP POP PUSH1 0x0 DUP2 SWAP1 DUP1 PUSH1 0x1 DUP2 SLOAD ADD DUP1 DUP3 SSTORE DUP1 SWAP2 POP POP PUSH1 0x1 SWAP1 SUB SWAP1 PUSH1 0x0 MSTORE PUSH1 0x20 PUSH1 0x0 KECCAK256 SWAP1 PUSH1 0x5 MUL ADD PUSH1 0x0 SWAP1 SWAP2 SWAP1 SWAP2 SWAP1 SWAP2 POP PUSH1 0x0 DUP3 ADD MLOAD DUP2 PUSH1 0x0 ADD SWAP1 DUP2 PUSH2 0x8AC SWAP2 SWAP1 PUSH2 0x128E JUMP JUMPDEST POP PUSH1 0x20 DUP3 ADD MLOAD DUP2 PUSH1 0x1 ADD SWAP1 DUP2 PUSH2 0x8C2 SWAP2 SWAP1 PUSH2 0x128E JUMP JUMPDEST POP PUSH1 0x40 DUP3 ADD MLOAD DUP2 PUSH1 0x2 ADD SWAP1 DUP2 PUSH2 0x8D8 SWAP2 SWAP1 PUSH2 0x128E JUMP JUMPDEST POP PUSH1 0x60 DUP3 ADD MLOAD DUP2 PUSH1 0x3 ADD SWAP1 DUP2 PUSH2 0x8EE SWAP2 SWAP1 PUSH2 0x128E JUMP JUMPDEST POP PUSH1 0x80 DUP3 ADD MLOAD DUP2 PUSH1 0x4 ADD PUSH1 0x0 PUSH2 0x100 EXP DUP2 SLOAD DUP2 PUSH20 0xFFFFFFFFFFFFFFFFFFFFFFFFFFFFFFFFFFFFFFFF MUL NOT AND SWAP1 DUP4 PUSH20 0xFFFFFFFFFFFFFFFFFFFFFFFFFFFFFFFFFFFFFFFF AND MUL OR SWAP1 SSTORE POP POP POP POP POP POP POP POP POP POP POP POP POP JUMP JUMPDEST PUSH1 0x40 MLOAD DUP1 PUSH1 0xA0 ADD PUSH1 0x40 MSTORE DUP1 PUSH1 0x60 DUP2 MSTORE PUSH1 0x20 ADD PUSH1 0x60 DUP2 MSTORE PUSH1 0x20 ADD PUSH1 0x60 DUP2 MSTORE PUSH1 0x20 ADD PUSH1 0x60 DUP2 MSTORE PUSH1 0x20 ADD PUSH1 0x0 PUSH20 0xFFFFFFFFFFFFFFFFFFFFFFFFFFFFFFFFFFFFFFFF AND DUP2 MSTORE POP SWAP1 JUMP JUMPDEST PUSH1 0x0 DUP2 MLOAD SWAP1 POP SWAP2 SWAP1 POP JUMP JUMPDEST PUSH1 0x0 DUP3 DUP3 MSTORE PUSH1 0x20 DUP3 ADD SWAP1 POP SWAP3 SWAP2 POP POP JUMP JUMPDEST PUSH1 0x0 DUP2 SWAP1 POP PUSH1 0x20 DUP3 ADD SWAP1 POP SWAP2 SWAP1 POP JUMP JUMPDEST PUSH1 0x0 DUP2 MLOAD SWAP1 POP SWAP2 SWAP1 POP JUMP JUMPDEST PUSH1 0x0 DUP3 DUP3 MSTORE PUSH1 0x20 DUP3 ADD SWAP1 POP SWAP3 SWAP2 POP POP JUMP JUMPDEST PUSH1 0x0 JUMPDEST DUP4 DUP2 LT ISZERO PUSH2 0x9EF JUMPI DUP1 DUP3 ADD MLOAD DUP2 DUP5 ADD MSTORE PUSH1 0x20 DUP2 ADD SWAP1 POP PUSH2 0x9D4 JUMP JUMPDEST PUSH1 0x0 DUP5 DUP5 ADD MSTORE POP POP POP POP JUMP JUMPDEST PUSH1 0x0 PUSH1 0x1F NOT PUSH1 0x1F DUP4 ADD AND SWAP1 POP SWAP2 SWAP1 POP JUMP JUMPDEST PUSH1 0x0 PUSH2 0xA17 DUP3 PUSH2 0x9B5 JUMP JUMPDEST PUSH2 0xA21 DUP2 DUP6 PUSH2 0x9C0 JUMP JUMPDEST SWAP4 POP PUSH2 0xA31 DUP2 DUP6 PUSH1 0x20 DUP7 ADD PUSH2 0x9D1 JUMP JUMPDEST PUSH2 0xA3A DUP2 PUSH2 0x9FB JUMP JUMPDEST DUP5 ADD SWAP2 POP POP SWAP3 SWAP2 POP POP JUMP JUMPDEST PUSH1 0x0 PUSH2 0xA51 DUP4 DUP4 PUSH2 0xA0C JUMP JUMPDEST SWAP1 POP SWAP3 SWAP2 POP POP JUMP JUMPDEST PUSH1 0x0 PUSH1 0x20 DUP3 ADD SWAP1 POP SWAP2 SWAP1 POP JUMP JUMPDEST PUSH1 0x0 PUSH2 0xA71 DUP3 PUSH2 0x989 JUMP JUMPDEST PUSH2 0xA7B DUP2 DUP6 PUSH2 0x994 JUMP JUMPDEST SWAP4 POP DUP4 PUSH1 0x20 DUP3 MUL DUP6 ADD PUSH2 0xA8D DUP6 PUSH2 0x9A5 JUMP JUMPDEST DUP1 PUSH1 0x0 JUMPDEST DUP6 DUP2 LT ISZERO PUSH2 0xAC9 JUMPI DUP5 DUP5 SUB DUP10 MSTORE DUP2 MLOAD PUSH2 0xAAA DUP6 DUP3 PUSH2 0xA45 JUMP JUMPDEST SWAP5 POP PUSH2 0xAB5 DUP4 PUSH2 0xA59 JUMP JUMPDEST SWAP3 POP PUSH1 0x20 DUP11 ADD SWAP10 POP POP PUSH1 0x1 DUP2 ADD SWAP1 POP PUSH2 0xA91 JUMP JUMPDEST POP DUP3 SWAP8 POP DUP8 SWAP6 POP POP POP POP POP POP SWAP3 SWAP2 POP POP JUMP JUMPDEST PUSH1 0x0 PUSH1 0x20 DUP3 ADD SWAP1 POP DUP2 DUP2 SUB PUSH1 0x0 DUP4 ADD MSTORE PUSH2 0xAF5 DUP2 DUP5 PUSH2 0xA66 JUMP JUMPDEST SWAP1 POP SWAP3 SWAP2 POP POP JUMP JUMPDEST PUSH1 0x0 DUP1 REVERT JUMPDEST PUSH1 0x0 DUP1 REVERT JUMPDEST PUSH1 0x0 DUP1 REVERT JUMPDEST PUSH1 0x0 DUP1 REVERT JUMPDEST PUSH1 0x0 DUP1 REVERT JUMPDEST PUSH1 0x0 DUP1 DUP4 PUSH1 0x1F DUP5 ADD SLT PUSH2 0xB2C JUMPI PUSH2 0xB2B PUSH2 0xB07 JUMP JUMPDEST JUMPDEST DUP3 CALLDATALOAD SWAP1 POP PUSH8 0xFFFFFFFFFFFFFFFF DUP2 GT ISZERO PUSH2 0xB49 JUMPI PUSH2 0xB48 PUSH2 0xB0C JUMP JUMPDEST JUMPDEST PUSH1 0x20 DUP4 ADD SWAP2 POP DUP4 PUSH1 0x1 DUP3 MUL DUP4 ADD GT ISZERO PUSH2 0xB65 JUMPI PUSH2 0xB64 PUSH2 0xB11 JUMP JUMPDEST JUMPDEST SWAP3 POP SWAP3 SWAP1 POP JUMP JUMPDEST PUSH1 0x0 DUP1 PUSH1 0x20 DUP4 DUP6 SUB SLT ISZERO PUSH2 0xB83 JUMPI PUSH2 0xB82 PUSH2 0xAFD JUMP JUMPDEST JUMPDEST PUSH1 0x0 DUP4 ADD CALLDATALOAD PUSH8 0xFFFFFFFFFFFFFFFF DUP2 GT ISZERO PUSH2 0xBA1 JUMPI PUSH2 0xBA0 PUSH2 0xB02 JUMP JUMPDEST JUMPDEST PUSH2 0xBAD DUP6 DUP3 DUP7 ADD PUSH2 0xB16 JUMP JUMPDEST SWAP3 POP SWAP3 POP POP SWAP3 POP SWAP3 SWAP1 POP JUMP JUMPDEST PUSH1 0x0 PUSH20 0xFFFFFFFFFFFFFFFFFFFFFFFFFFFFFFFFFFFFFFFF DUP3 AND SWAP1 POP SWAP2 SWAP1 POP JUMP JUMPDEST PUSH1 0x0 PUSH2 0xBE4 DUP3 PUSH2 0xBB9 JUMP JUMPDEST SWAP1 POP SWAP2 SWAP1 POP JUMP JUMPDEST PUSH2 0xBF4 DUP2 PUSH2 0xBD9 JUMP JUMPDEST DUP3 MSTORE POP POP JUMP JUMPDEST PUSH1 0x0 PUSH1 0x20 DUP3 ADD SWAP1 POP PUSH2 0xC0F PUSH1 0x0 DUP4 ADD DUP5 PUSH2 0xBEB JUMP JUMPDEST SWAP3 SWAP2 POP POP JUMP JUMPDEST PUSH2 0xC1E DUP2 PUSH2 0xBD9 JUMP JUMPDEST DUP3 MSTORE POP POP JUMP JUMPDEST PUSH1 0x0 PUSH1 0xA0 DUP4 ADD PUSH1 0x0 DUP4 ADD MLOAD DUP5 DUP3 SUB PUSH1 0x0 DUP7 ADD MSTORE PUSH2 0xC41 DUP3 DUP3 PUSH2 0xA0C JUMP JUMPDEST SWAP2 POP POP PUSH1 0x20 DUP4 ADD MLOAD DUP5 DUP3 SUB PUSH1 0x20 DUP7 ADD MSTORE PUSH2 0xC5B DUP3 DUP3 PUSH2 0xA0C JUMP JUMPDEST SWAP2 POP POP PUSH1 0x40 DUP4 ADD MLOAD DUP5 DUP3 SUB PUSH1 0x40 DUP7 ADD MSTORE PUSH2 0xC75 DUP3 DUP3 PUSH2 0xA0C JUMP JUMPDEST SWAP2 POP POP PUSH1 0x60 DUP4 ADD MLOAD DUP5 DUP3 SUB PUSH1 0x60 DUP7 ADD MSTORE PUSH2 0xC8F DUP3 DUP3 PUSH2 0xA0C JUMP JUMPDEST SWAP2 POP POP PUSH1 0x80 DUP4 ADD MLOAD PUSH2 0xCA4 PUSH1 0x80 DUP7 ADD DUP3 PUSH2 0xC15 JUMP JUMPDEST POP DUP1 SWAP2 POP POP SWAP3 SWAP2 POP POP JUMP JUMPDEST PUSH1 0x0 PUSH1 0x20 DUP3 ADD SWAP1 POP DUP2 DUP2 SUB PUSH1 0x0 DUP4 ADD MSTORE PUSH2 0xCC9 DUP2 DUP5 PUSH2 0xC24 JUMP JUMPDEST SWAP1 POP SWAP3 SWAP2 POP POP JUMP JUMPDEST PUSH2 0xCDA DUP2 PUSH2 0xBD9 JUMP JUMPDEST DUP2 EQ PUSH2 0xCE5 JUMPI PUSH1 0x0 DUP1 REVERT JUMPDEST POP JUMP JUMPDEST PUSH1 0x0 DUP2 CALLDATALOAD SWAP1 POP PUSH2 0xCF7 DUP2 PUSH2 0xCD1 JUMP JUMPDEST SWAP3 SWAP2 POP POP JUMP JUMPDEST PUSH1 0x0 DUP1 PUSH1 0x0 DUP1 PUSH1 0x0 DUP1 PUSH1 0x0 DUP1 PUSH1 0x0 PUSH1 0xA0 DUP11 DUP13 SUB SLT ISZERO PUSH2 0xD1F JUMPI PUSH2 0xD1E PUSH2 0xAFD JUMP JUMPDEST JUMPDEST PUSH1 0x0 DUP11 ADD CALLDATALOAD PUSH8 0xFFFFFFFFFFFFFFFF DUP2 GT ISZERO PUSH2 0xD3D JUMPI PUSH2 0xD3C PUSH2 0xB02 JUMP JUMPDEST JUMPDEST PUSH2 0xD49 DUP13 DUP3 DUP14 ADD PUSH2 0xB16 JUMP JUMPDEST SWAP10 POP SWAP10 POP POP PUSH1 0x20 DUP11 ADD CALLDATALOAD PUSH8 0xFFFFFFFFFFFFFFFF DUP2 GT ISZERO PUSH2 0xD6C JUMPI PUSH2 0xD6B PUSH2 0xB02 JUMP JUMPDEST JUMPDEST PUSH2 0xD78 DUP13 DUP3 DUP14 ADD PUSH2 0xB16 JUMP JUMPDEST SWAP8 POP SWAP8 POP POP PUSH1 0x40 DUP11 ADD CALLDATALOAD PUSH8 0xFFFFFFFFFFFFFFFF DUP2 GT ISZERO PUSH2 0xD9B JUMPI PUSH2 0xD9A PUSH2 0xB02 JUMP JUMPDEST JUMPDEST PUSH2 0xDA7 DUP13 DUP3 DUP14 ADD PUSH2 0xB16 JUMP JUMPDEST SWAP6 POP SWAP6 POP POP PUSH1 0x60 DUP11 ADD CALLDATALOAD PUSH8 0xFFFFFFFFFFFFFFFF DUP2 GT ISZERO PUSH2 0xDCA JUMPI PUSH2 0xDC9 PUSH2 0xB02 JUMP JUMPDEST JUMPDEST PUSH2 0xDD6 DUP13 DUP3 DUP14 ADD PUSH2 0xB16 JUMP JUMPDEST SWAP4 POP SWAP4 POP POP PUSH1 0x80 PUSH2 0xDE9 DUP13 DUP3 DUP14 ADD PUSH2 0xCE8 JUMP JUMPDEST SWAP2 POP POP SWAP3 SWAP6 SWAP9 POP SWAP3 SWAP6 SWAP9 POP SWAP3 SWAP6 SWAP9 JUMP JUMPDEST PUSH32 0x4E487B7100000000000000000000000000000000000000000000000000000000 PUSH1 0x0 MSTORE PUSH1 0x41 PUSH1 0x4 MSTORE PUSH1 0x24 PUSH1 0x0 REVERT JUMPDEST PUSH32 0x4E487B7100000000000000000000000000000000000000000000000000000000 PUSH1 0x0 MSTORE PUSH1 0x32 PUSH1 0x4 MSTORE PUSH1 0x24 PUSH1 0x0 REVERT JUMPDEST PUSH32 0x4E487B7100000000000000000000000000000000000000000000000000000000 PUSH1 0x0 MSTORE PUSH1 0x22 PUSH1 0x4 MSTORE PUSH1 0x24 PUSH1 0x0 REVERT JUMPDEST PUSH1 0x0 PUSH1 0x2 DUP3 DIV SWAP1 POP PUSH1 0x1 DUP3 AND DUP1 PUSH2 0xE9E JUMPI PUSH1 0x7F DUP3 AND SWAP2 POP JUMPDEST PUSH1 0x20 DUP3 LT DUP2 SUB PUSH2 0xEB1 JUMPI PUSH2 0xEB0 PUSH2 0xE57 JUMP JUMPDEST JUMPDEST POP SWAP2 SWAP1 POP JUMP JUMPDEST PUSH32 0x4E487B7100000000000000000000000000000000000000000000000000000000 PUSH1 0x0 MSTORE PUSH1 0x11 PUSH1 0x4 MSTORE PUSH1 0x24 PUSH1 0x0 REVERT JUMPDEST PUSH1 0x0 DUP2 SWAP1 POP SWAP2 SWAP1 POP JUMP JUMPDEST PUSH1 0x0 PUSH2 0xEFB DUP3 PUSH2 0xEE6 JUMP JUMPDEST SWAP2 POP PUSH32 0xFFFFFFFFFFFFFFFFFFFFFFFFFFFFFFFFFFFFFFFFFFFFFFFFFFFFFFFFFFFFFFFF DUP3 SUB PUSH2 0xF2D JUMPI PUSH2 0xF2C PUSH2 0xEB7 JUMP JUMPDEST JUMPDEST PUSH1 0x1 DUP3 ADD SWAP1 POP SWAP2 SWAP1 POP JUMP JUMPDEST PUSH1 0x0 DUP2 SWAP1 POP SWAP3 SWAP2 POP POP JUMP JUMPDEST DUP3 DUP2 DUP4 CALLDATACOPY PUSH1 0x0 DUP4 DUP4 ADD MSTORE POP POP POP JUMP JUMPDEST PUSH1 0x0 PUSH2 0xF5E DUP4 DUP6 PUSH2 0xF38 JUMP JUMPDEST SWAP4 POP PUSH2 0xF6B DUP4 DUP6 DUP5 PUSH2 0xF43 JUMP JUMPDEST DUP3 DUP5 ADD SWAP1 POP SWAP4 SWAP3 POP POP POP JUMP JUMPDEST PUSH1 0x0 PUSH2 0xF84 DUP3 DUP5 DUP7 PUSH2 0xF52 JUMP JUMPDEST SWAP2 POP DUP2 SWAP1 POP SWAP4 SWAP3 POP POP POP JUMP JUMPDEST PUSH1 0x0 DUP2 SWAP1 POP DUP2 PUSH1 0x0 MSTORE PUSH1 0x20 PUSH1 0x0 KECCAK256 SWAP1 POP SWAP2 SWAP1 POP JUMP JUMPDEST PUSH1 0x0 DUP2 SLOAD PUSH2 0xFB2 DUP2 PUSH2 0xE86 JUMP JUMPDEST PUSH2 0xFBC DUP2 DUP7 PUSH2 0xF38 JUMP JUMPDEST SWAP5 POP PUSH1 0x1 DUP3 AND PUSH1 0x0 DUP2 EQ PUSH2 0xFD7 JUMPI PUSH1 0x1 DUP2 EQ PUSH2 0xFEC JUMPI PUSH2 0x101F JUMP JUMPDEST PUSH1 0xFF NOT DUP4 AND DUP7 MSTORE DUP2 ISZERO ISZERO DUP3 MUL DUP7 ADD SWAP4 POP PUSH2 0x101F JUMP JUMPDEST PUSH2 0xFF5 DUP6 PUSH2 0xF90 JUMP JUMPDEST PUSH1 0x0 JUMPDEST DUP4 DUP2 LT ISZERO PUSH2 0x1017 JUMPI DUP2 SLOAD DUP2 DUP10 ADD MSTORE PUSH1 0x1 DUP3 ADD SWAP2 POP PUSH1 0x20 DUP2 ADD SWAP1 POP PUSH2 0xFF8 JUMP JUMPDEST DUP4 DUP9 ADD SWAP6 POP POP POP JUMPDEST POP POP POP SWAP3 SWAP2 POP POP JUMP JUMPDEST PUSH1 0x0 PUSH2 0x1034 DUP3 DUP5 PUSH2 0xFA5 JUMP JUMPDEST SWAP2 POP DUP2 SWAP1 POP SWAP3 SWAP2 POP POP JUMP JUMPDEST PUSH1 0x0 DUP3 DUP3 MSTORE PUSH1 0x20 DUP3 ADD SWAP1 POP SWAP3 SWAP2 POP POP JUMP JUMPDEST PUSH32 0x4F6E6C7920656C656374696F6E2D636F6D6D697373696F6E2063616E2063616C PUSH1 0x0 DUP3 ADD MSTORE PUSH32 0x6C207468697320636F6E74726163742E00000000000000000000000000000000 PUSH1 0x20 DUP3 ADD MSTORE POP JUMP JUMPDEST PUSH1 0x0 PUSH2 0x10AC PUSH1 0x30 DUP4 PUSH2 0x103F JUMP JUMPDEST SWAP2 POP PUSH2 0x10B7 DUP3 PUSH2 0x1050 JUMP JUMPDEST PUSH1 0x40 DUP3 ADD SWAP1 POP SWAP2 SWAP1 POP JUMP JUMPDEST PUSH1 0x0 PUSH1 0x20 DUP3 ADD SWAP1 POP DUP2 DUP2 SUB PUSH1 0x0 DUP4 ADD MSTORE PUSH2 0x10DB DUP2 PUSH2 0x109F JUMP JUMPDEST SWAP1 POP SWAP2 SWAP1 POP JUMP JUMPDEST PUSH1 0x0 DUP2 SWAP1 POP DUP2 PUSH1 0x0 MSTORE PUSH1 0x20 PUSH1 0x0 KECCAK256 SWAP1 POP SWAP2 SWAP1 POP JUMP JUMPDEST PUSH1 0x0 PUSH1 0x20 PUSH1 0x1F DUP4 ADD DIV SWAP1 POP SWAP2 SWAP1 POP JUMP JUMPDEST PUSH1 0x0 DUP3 DUP3 SHL SWAP1 POP SWAP3 SWAP2 POP POP JUMP JUMPDEST PUSH1 0x0 PUSH1 0x8 DUP4 MUL PUSH2 0x1144 PUSH32 0xFFFFFFFFFFFFFFFFFFFFFFFFFFFFFFFFFFFFFFFFFFFFFFFFFFFFFFFFFFFFFFFF DUP3 PUSH2 0x1107 JUMP JUMPDEST PUSH2 0x114E DUP7 DUP4 PUSH2 0x1107 JUMP JUMPDEST SWAP6 POP DUP1 NOT DUP5 AND SWAP4 POP DUP1 DUP7 AND DUP5 OR SWAP3 POP POP POP SWAP4 SWAP3 POP POP POP JUMP JUMPDEST PUSH1 0x0 DUP2 SWAP1 POP SWAP2 SWAP1 POP JUMP JUMPDEST PUSH1 0x0 PUSH2 0x118B PUSH2 0x1186 PUSH2 0x1181 DUP5 PUSH2 0xEE6 JUMP JUMPDEST PUSH2 0x1166 JUMP JUMPDEST PUSH2 0xEE6 JUMP JUMPDEST SWAP1 POP SWAP2 SWAP1 POP JUMP JUMPDEST PUSH1 0x0 DUP2 SWAP1 POP SWAP2 SWAP1 POP JUMP JUMPDEST PUSH2 0x11A5 DUP4 PUSH2 0x1170 JUMP JUMPDEST PUSH2 0x11B9 PUSH2 0x11B1 DUP3 PUSH2 0x1192 JUMP JUMPDEST DUP5 DUP5 SLOAD PUSH2 0x1114 JUMP JUMPDEST DUP3 SSTORE POP POP POP POP JUMP JUMPDEST PUSH1 0x0 SWAP1 JUMP JUMPDEST PUSH2 0x11CE PUSH2 0x11C1 JUMP JUMPDEST PUSH2 0x11D9 DUP2 DUP5 DUP5 PUSH2 0x119C JUMP JUMPDEST POP POP POP JUMP JUMPDEST JUMPDEST DUP2 DUP2 LT ISZERO PUSH2 0x11FD JUMPI PUSH2 0x11F2 PUSH1 0x0 DUP3 PUSH2 0x11C6 JUMP JUMPDEST PUSH1 0x1 DUP2 ADD SWAP1 POP PUSH2 0x11DF JUMP JUMPDEST POP POP JUMP JUMPDEST PUSH1 0x1F DUP3 GT ISZERO PUSH2 0x1242 JUMPI PUSH2 0x1213 DUP2 PUSH2 0x10E2 JUMP JUMPDEST PUSH2 0x121C DUP5 PUSH2 0x10F7 JUMP JUMPDEST DUP2 ADD PUSH1 0x20 DUP6 LT ISZERO PUSH2 0x122B JUMPI DUP2 SWAP1 POP JUMPDEST PUSH2 0x123F PUSH2 0x1237 DUP6 PUSH2 0x10F7 JUMP JUMPDEST DUP4 ADD DUP3 PUSH2 0x11DE JUMP JUMPDEST POP POP JUMPDEST POP POP POP JUMP JUMPDEST PUSH1 0x0 DUP3 DUP3 SHR SWAP1 POP SWAP3 SWAP2 POP POP JUMP JUMPDEST PUSH1 0x0 PUSH2 0x1265 PUSH1 0x0 NOT DUP5 PUSH1 0x8 MUL PUSH2 0x1247 JUMP JUMPDEST NOT DUP1 DUP4 AND SWAP2 POP POP SWAP3 SWAP2 POP POP JUMP JUMPDEST PUSH1 0x0 PUSH2 0x127E DUP4 DUP4 PUSH2 0x1254 JUMP JUMPDEST SWAP2 POP DUP3 PUSH1 0x2 MUL DUP3 OR SWAP1 POP SWAP3 SWAP2 POP POP JUMP JUMPDEST PUSH2 0x1297 DUP3 PUSH2 0x9B5 JUMP JUMPDEST PUSH8 0xFFFFFFFFFFFFFFFF DUP2 GT ISZERO PUSH2 0x12B0 JUMPI PUSH2 0x12AF PUSH2 0xDF9 JUMP JUMPDEST JUMPDEST PUSH2 0x12BA DUP3 SLOAD PUSH2 0xE86 JUMP JUMPDEST PUSH2 0x12C5 DUP3 DUP3 DUP6 PUSH2 0x1201 JUMP JUMPDEST PUSH1 0x0 PUSH1 0x20 SWAP1 POP PUSH1 0x1F DUP4 GT PUSH1 0x1 DUP2 EQ PUSH2 0x12F8 JUMPI PUSH1 0x0 DUP5 ISZERO PUSH2 0x12E6 JUMPI DUP3 DUP8 ADD MLOAD SWAP1 POP JUMPDEST PUSH2 0x12F0 DUP6 DUP3 PUSH2 0x1272 JUMP JUMPDEST DUP7 SSTORE POP PUSH2 0x1358 JUMP JUMPDEST PUSH1 0x1F NOT DUP5 AND PUSH2 0x1306 DUP7 PUSH2 0x10E2 JUMP JUMPDEST PUSH1 0x0 JUMPDEST DUP3 DUP2 LT ISZERO PUSH2 0x132E JUMPI DUP5 DUP10 ADD MLOAD DUP3 SSTORE PUSH1 0x1 DUP3 ADD SWAP2 POP PUSH1 0x20 DUP6 ADD SWAP5 POP PUSH1 0x20 DUP2 ADD SWAP1 POP PUSH2 0x1309 JUMP JUMPDEST DUP7 DUP4 LT ISZERO PUSH2 0x134B JUMPI DUP5 DUP10 ADD MLOAD PUSH2 0x1347 PUSH1 0x1F DUP10 AND DUP3 PUSH2 0x1254 JUMP JUMPDEST DUP4 SSTORE POP JUMPDEST PUSH1 0x1 PUSH1 0x2 DUP9 MUL ADD DUP9 SSTORE POP POP POP JUMPDEST POP POP POP POP POP POP JUMP INVALID LOG2 PUSH5 0x6970667358 0x22 SLT KECCAK256 0x21 SWAP3 PUSH13 0xC6A2DB2A00E600A4BD74FE11E1 0xAE 0xB4 0xB3 0xD2 0xFB 0xE0 PUSH27 0x57A4F3B6A2516D63A64736F6C6343000811003300000000000000 "
				},
				"gasEstimates": {
					"creation": {
						"codeDepositCost": "1002800",
						"executionCost": "infinite",
						"totalCost": "infinite"
					},
					"external": {
						"getCandidateAddressByPartyName(string)": "infinite",
						"getCandidateByPartyName(string)": "infinite",
						"getPartiesList()": "infinite",
						"setCandidateData(string,string,string,string,address)": "infinite"
					}
				},
				"methodIdentifiers": {
					"getCandidateAddressByPartyName(string)": "8ec9bc6a",
					"getCandidateByPartyName(string)": "a02d3697",
					"getPartiesList()": "37a811a1",
					"setCandidateData(string,string,string,string,address)": "e96f77ee"
				}
			},
			"storageLayout": {
				"storage": [
					{
						"astId": 16,
						"contract": "contracts/Candidate.sol:CandidateContract",
						"label": "candidatesData",
						"offset": 0,
						"slot": "0",
						"type": "t_array(t_struct(CandidateData)12_storage)dyn_storage"
					},
					{
						"astId": 18,
						"contract": "contracts/Candidate.sol:CandidateContract",
						"label": "electionCommissionAddress",
						"offset": 0,
						"slot": "1",
						"type": "t_address"
					}
				],
				"types": {
					"t_address": {
						"encoding": "inplace",
						"label": "address",
						"numberOfBytes": "20"
					},
					"t_array(t_struct(CandidateData)12_storage)dyn_storage": {
						"base": "t_struct(CandidateData)12_storage",
						"encoding": "dynamic_array",
						"label": "struct CandidateContract.CandidateData[]",
						"numberOfBytes": "32"
					},
					"t_string_storage": {
						"encoding": "bytes",
						"label": "string",
						"numberOfBytes": "32"
					},
					"t_struct(CandidateData)12_storage": {
						"encoding": "inplace",
						"label": "struct CandidateContract.CandidateData",
						"members": [
							{
								"astId": 3,
								"contract": "contracts/Candidate.sol:CandidateContract",
								"label": "fname",
								"offset": 0,
								"slot": "0",
								"type": "t_string_storage"
							},
							{
								"astId": 5,
								"contract": "contracts/Candidate.sol:CandidateContract",
								"label": "lname",
								"offset": 0,
								"slot": "1",
								"type": "t_string_storage"
							},
							{
								"astId": 7,
								"contract": "contracts/Candidate.sol:CandidateContract",
								"label": "partyName",
								"offset": 0,
								"slot": "2",
								"type": "t_string_storage"
							},
							{
								"astId": 9,
								"contract": "contracts/Candidate.sol:CandidateContract",
								"label": "partySymbol",
								"offset": 0,
								"slot": "3",
								"type": "t_string_storage"
							},
							{
								"astId": 11,
								"contract": "contracts/Candidate.sol:CandidateContract",
								"label": "ethereumAddress",
								"offset": 0,
								"slot": "4",
								"type": "t_address"
							}
						],
						"numberOfBytes": "160"
					}
				}
			},
			"userdoc": {
				"kind": "user",
				"methods": {},
				"version": 1
			}
		}
	}
}