{
  "contractName": "CandidateContract",
  "abi": [
    {
      "inputs": [
        {
          "internalType": "address",
          "name": "_electionCommissionAddress",
          "type": "address"
        }
      ],
      "stateMutability": "nonpayable",
      "type": "constructor"
    },
    {
      "inputs": [
        {
          "internalType": "string",
          "name": "_fname",
          "type": "string"
        },
        {
          "internalType": "string",
          "name": "_lname",
          "type": "string"
        },
        {
          "internalType": "string",
          "name": "_partyName",
          "type": "string"
        },
        {
          "internalType": "string",
          "name": "_partySymbol",
          "type": "string"
        },
        {
          "internalType": "address",
          "name": "_candidateAddress",
          "type": "address"
        }
      ],
      "name": "setCandidateData",
      "outputs": [],
      "stateMutability": "nonpayable",
      "type": "function"
    },
    {
      "inputs": [
        {
          "internalType": "string",
          "name": "_partyName",
          "type": "string"
        }
      ],
      "name": "getCandidateByPartyName",
      "outputs": [
        {
          "components": [
            {
              "internalType": "string",
              "name": "fname",
              "type": "string"
            },
            {
              "internalType": "string",
              "name": "lname",
              "type": "string"
            },
            {
              "internalType": "string",
              "name": "partyName",
              "type": "string"
            },
            {
              "internalType": "string",
              "name": "partySymbol",
              "type": "string"
            },
            {
              "internalType": "address",
              "name": "ethereumAddress",
              "type": "address"
            }
          ],
          "internalType": "struct CandidateContract.CandidateData",
          "name": "_candidate",
          "type": "tuple"
        }
      ],
      "stateMutability": "view",
      "type": "function"
    },
    {
      "inputs": [
        {
          "internalType": "string",
          "name": "_partyName",
          "type": "string"
        }
      ],
      "name": "getCandidateAddressByPartyName",
      "outputs": [
        {
          "internalType": "address",
          "name": "_candidateAddress",
          "type": "address"
        }
      ],
      "stateMutability": "view",
      "type": "function"
    },
    {
      "inputs": [],
      "name": "getPartiesList",
      "outputs": [
        {
          "internalType": "string[]",
          "name": "parties",
          "type": "string[]"
        }
      ],
      "stateMutability": "view",
      "type": "function"
    }
  ],
  "bytecode": "0x60806040523480156200001157600080fd5b50604051620014c1380380620014c18339818101604052810190620000379190620000e9565b80600160006101000a81548173ffffffffffffffffffffffffffffffffffffffff021916908373ffffffffffffffffffffffffffffffffffffffff160217905550506200011b565b600080fd5b600073ffffffffffffffffffffffffffffffffffffffff82169050919050565b6000620000b18262000084565b9050919050565b620000c381620000a4565b8114620000cf57600080fd5b50565b600081519050620000e381620000b8565b92915050565b6000602082840312156200010257620001016200007f565b5b60006200011284828501620000d2565b91505092915050565b611396806200012b6000396000f3fe608060405234801561001057600080fd5b506004361061004c5760003560e01c806337a811a1146100515780638ec9bc6a1461006f578063a02d36971461009f578063e96f77ee146100cf575b600080fd5b6100596100eb565b6040516100669190610adb565b60405180910390f35b61008960048036038101906100849190610b6c565b610235565b6040516100969190610bfa565b60405180910390f35b6100b960048036038101906100b49190610b6c565b61030a565b6040516100c69190610caf565b60405180910390f35b6100e960048036038101906100e49190610cfd565b610667565b005b606060008054905067ffffffffffffffff81111561010c5761010b610df9565b5b60405190808252806020026020018201604052801561013f57816020015b606081526020019060019003908161012a5790505b50905060005b600080549050811015610231576000818154811061016657610165610e28565b5b9060005260206000209060050201600201805461018290610e86565b80601f01602080910402602001604051908101604052809291908181526020018280546101ae90610e86565b80156101fb5780601f106101d0576101008083540402835291602001916101fb565b820191906000526020600020905b8154815290600101906020018083116101de57829003601f168201915b505050505082828151811061021357610212610e28565b5b6020026020010181905250808061022990610ef0565b915050610145565b5090565b600080600090505b60008054905081101561030257838360405161025a929190610f77565b60405180910390206000828154811061027657610275610e28565b5b90600052602060002090600502016002016040516102949190611028565b6040518091039020036102ef57600081815481106102b5576102b4610e28565b5b906000526020600020906005020160040160009054906101000a900473ffffffffffffffffffffffffffffffffffffffff16915050610304565b80806102fa90610ef0565b91505061023d565b505b92915050565b610312610944565b60005b60008054905081101561065f578383604051610332929190610f77565b60405180910390206000828154811061034e5761034d610e28565b5b906000526020600020906005020160020160405161036c9190611028565b60405180910390200361064c576000818154811061038d5761038c610e28565b5b90600052602060002090600502016040518060a00160405290816000820180546103b690610e86565b80601f01602080910402602001604051908101604052809291908181526020018280546103e290610e86565b801561042f5780601f106104045761010080835404028352916020019161042f565b820191906000526020600020905b81548152906001019060200180831161041257829003601f168201915b5050505050815260200160018201805461044890610e86565b80601f016020809104026020016040519081016040528092919081815260200182805461047490610e86565b80156104c15780601f10610496576101008083540402835291602001916104c1565b820191906000526020600020905b8154815290600101906020018083116104a457829003601f168201915b505050505081526020016002820180546104da90610e86565b80601f016020809104026020016040519081016040528092919081815260200182805461050690610e86565b80156105535780601f1061052857610100808354040283529160200191610553565b820191906000526020600020905b81548152906001019060200180831161053657829003601f168201915b5050505050815260200160038201805461056c90610e86565b80601f016020809104026020016040519081016040528092919081815260200182805461059890610e86565b80156105e55780601f106105ba576101008083540402835291602001916105e5565b820191906000526020600020905b8154815290600101906020018083116105c857829003601f168201915b505050505081526020016004820160009054906101000a900473ffffffffffffffffffffffffffffffffffffffff1673ffffffffffffffffffffffffffffffffffffffff1673ffffffffffffffffffffffffffffffffffffffff1681525050915050610661565b808061065790610ef0565b915050610315565b505b92915050565b600160009054906101000a900473ffffffffffffffffffffffffffffffffffffffff1673ffffffffffffffffffffffffffffffffffffffff163373ffffffffffffffffffffffffffffffffffffffff16146106f7576040517f08c379a00000000000000000000000000000000000000000000000000000000081526004016106ee906110c2565b60405180910390fd5b6106ff610944565b89898080601f016020809104026020016040519081016040528093929190818152602001838380828437600081840152601f19601f82011690508083019250505050505050816000018190525087878080601f016020809104026020016040519081016040528093929190818152602001838380828437600081840152601f19601f82011690508083019250505050505050816020018190525085858080601f016020809104026020016040519081016040528093929190818152602001838380828437600081840152601f19601f82011690508083019250505050505050816040018190525083838080601f016020809104026020016040519081016040528093929190818152602001838380828437600081840152601f19601f82011690508083019250505050505050816060018190525081816080019073ffffffffffffffffffffffffffffffffffffffff16908173ffffffffffffffffffffffffffffffffffffffff1681525050600081908060018154018082558091505060019003906000526020600020906005020160009091909190915060008201518160000190816108ac919061128e565b5060208201518160010190816108c2919061128e565b5060408201518160020190816108d8919061128e565b5060608201518160030190816108ee919061128e565b5060808201518160040160006101000a81548173ffffffffffffffffffffffffffffffffffffffff021916908373ffffffffffffffffffffffffffffffffffffffff160217905550505050505050505050505050565b6040518060a0016040528060608152602001606081526020016060815260200160608152602001600073ffffffffffffffffffffffffffffffffffffffff1681525090565b600081519050919050565b600082825260208201905092915050565b6000819050602082019050919050565b600081519050919050565b600082825260208201905092915050565b60005b838110156109ef5780820151818401526020810190506109d4565b60008484015250505050565b6000601f19601f8301169050919050565b6000610a17826109b5565b610a2181856109c0565b9350610a318185602086016109d1565b610a3a816109fb565b840191505092915050565b6000610a518383610a0c565b905092915050565b6000602082019050919050565b6000610a7182610989565b610a7b8185610994565b935083602082028501610a8d856109a5565b8060005b85811015610ac95784840389528151610aaa8582610a45565b9450610ab583610a59565b925060208a01995050600181019050610a91565b50829750879550505050505092915050565b60006020820190508181036000830152610af58184610a66565b905092915050565b600080fd5b600080fd5b600080fd5b600080fd5b600080fd5b60008083601f840112610b2c57610b2b610b07565b5b8235905067ffffffffffffffff811115610b4957610b48610b0c565b5b602083019150836001820283011115610b6557610b64610b11565b5b9250929050565b60008060208385031215610b8357610b82610afd565b5b600083013567ffffffffffffffff811115610ba157610ba0610b02565b5b610bad85828601610b16565b92509250509250929050565b600073ffffffffffffffffffffffffffffffffffffffff82169050919050565b6000610be482610bb9565b9050919050565b610bf481610bd9565b82525050565b6000602082019050610c0f6000830184610beb565b92915050565b610c1e81610bd9565b82525050565b600060a0830160008301518482036000860152610c418282610a0c565b91505060208301518482036020860152610c5b8282610a0c565b91505060408301518482036040860152610c758282610a0c565b91505060608301518482036060860152610c8f8282610a0c565b9150506080830151610ca46080860182610c15565b508091505092915050565b60006020820190508181036000830152610cc98184610c24565b905092915050565b610cda81610bd9565b8114610ce557600080fd5b50565b600081359050610cf781610cd1565b92915050565b600080600080600080600080600060a08a8c031215610d1f57610d1e610afd565b5b60008a013567ffffffffffffffff811115610d3d57610d3c610b02565b5b610d498c828d01610b16565b995099505060208a013567ffffffffffffffff811115610d6c57610d6b610b02565b5b610d788c828d01610b16565b975097505060408a013567ffffffffffffffff811115610d9b57610d9a610b02565b5b610da78c828d01610b16565b955095505060608a013567ffffffffffffffff811115610dca57610dc9610b02565b5b610dd68c828d01610b16565b93509350506080610de98c828d01610ce8565b9150509295985092959850929598565b7f4e487b7100000000000000000000000000000000000000000000000000000000600052604160045260246000fd5b7f4e487b7100000000000000000000000000000000000000000000000000000000600052603260045260246000fd5b7f4e487b7100000000000000000000000000000000000000000000000000000000600052602260045260246000fd5b60006002820490506001821680610e9e57607f821691505b602082108103610eb157610eb0610e57565b5b50919050565b7f4e487b7100000000000000000000000000000000000000000000000000000000600052601160045260246000fd5b6000819050919050565b6000610efb82610ee6565b91507fffffffffffffffffffffffffffffffffffffffffffffffffffffffffffffffff8203610f2d57610f2c610eb7565b5b600182019050919050565b600081905092915050565b82818337600083830152505050565b6000610f5e8385610f38565b9350610f6b838584610f43565b82840190509392505050565b6000610f84828486610f52565b91508190509392505050565b60008190508160005260206000209050919050565b60008154610fb281610e86565b610fbc8186610f38565b94506001821660008114610fd75760018114610fec5761101f565b60ff198316865281151582028601935061101f565b610ff585610f90565b60005b8381101561101757815481890152600182019150602081019050610ff8565b838801955050505b50505092915050565b60006110348284610fa5565b915081905092915050565b600082825260208201905092915050565b7f4f6e6c7920656c656374696f6e2d636f6d6d697373696f6e2063616e2063616c60008201527f6c207468697320636f6e74726163742e00000000000000000000000000000000602082015250565b60006110ac60308361103f565b91506110b782611050565b604082019050919050565b600060208201905081810360008301526110db8161109f565b9050919050565b60008190508160005260206000209050919050565b60006020601f8301049050919050565b600082821b905092915050565b6000600883026111447fffffffffffffffffffffffffffffffffffffffffffffffffffffffffffffffff82611107565b61114e8683611107565b95508019841693508086168417925050509392505050565b6000819050919050565b600061118b61118661118184610ee6565b611166565b610ee6565b9050919050565b6000819050919050565b6111a583611170565b6111b96111b182611192565b848454611114565b825550505050565b600090565b6111ce6111c1565b6111d981848461119c565b505050565b5b818110156111fd576111f26000826111c6565b6001810190506111df565b5050565b601f82111561124257611213816110e2565b61121c846110f7565b8101602085101561122b578190505b61123f611237856110f7565b8301826111de565b50505b505050565b600082821c905092915050565b600061126560001984600802611247565b1980831691505092915050565b600061127e8383611254565b9150826002028217905092915050565b611297826109b5565b67ffffffffffffffff8111156112b0576112af610df9565b5b6112ba8254610e86565b6112c5828285611201565b600060209050601f8311600181146112f857600084156112e6578287015190505b6112f08582611272565b865550611358565b601f198416611306866110e2565b60005b8281101561132e57848901518255600182019150602085019450602081019050611309565b8683101561134b5784890151611347601f891682611254565b8355505b6001600288020188555050505b50505050505056fea264697066735822122054da29326616e28e76306103ec3ea224a9fab3dbad47fe50553c6acc6fc5536264736f6c63430008110033",
  "immutableReferences": {},
  "source": "// SPDX-License-Identifier: MIT\npragma solidity >= 0.8.16;\n\ncontract CandidateContract{\n\n    struct CandidateData{\n        string fname;\n        string lname;\n        string partyName;\n        string partySymbol;\n        address ethereumAddress;\n    }\n\n    CandidateData [] candidatesData;\n    address electionCommissionAddress;\n    constructor(address _electionCommissionAddress) {\n        electionCommissionAddress = _electionCommissionAddress;\n    }\n\n    function setCandidateData(string calldata _fname, string calldata _lname, \n    string calldata _partyName, string calldata _partySymbol, \n    address _candidateAddress) external \n    {    \n        require(msg.sender == electionCommissionAddress, \"Only election-commission can call this contract.\");\n        CandidateData memory obj;\n\n        obj.fname = _fname;\n        obj.lname = _lname;\n        obj.partyName = _partyName;\n        obj.partySymbol = _partySymbol;\n        obj.ethereumAddress = _candidateAddress;   \n\n        candidatesData.push(obj);\n    }\n\n    function getCandidateByPartyName(string calldata _partyName) public view returns (CandidateData memory _candidate)\n    {\n        for (uint i = 0; i < candidatesData.length; i++)\n        {\n            if(keccak256(bytes(candidatesData[i].partyName))==keccak256(bytes(_partyName)))\n            {\n                return candidatesData[i];\n            }\n        }\n    } \n\n    function getCandidateAddressByPartyName(string calldata _partyName) public view returns(address _candidateAddress)\n    {\n        for(uint i = 0; i < candidatesData.length; i++)\n        {\n            if(keccak256(bytes(candidatesData[i].partyName))== keccak256(bytes(_partyName)))\n            {\n                return candidatesData[i].ethereumAddress;\n            }\n        }\n    }\n\n    function getPartiesList() external view returns (string [] memory parties)\n    {\n        parties = new string [] (candidatesData.length);\n        for(uint i = 0; i < candidatesData.length;i++)\n        {\n            parties[i] = candidatesData[i].partyName;\n        }\n    }\n\n}",
  "sourcePath": "/home/sadam/solidity-projects/voting-system/voting-system/contracts/Candidate.sol",
  "compiler": {
    "name": "solc",
    "version": "0.8.17+commit.8df45f5f.Emscripten.clang"
  },
  "schemaVersion": "3.4.11",
  "updatedAt": "2023-02-18T10:20:11.604Z",
  "devdoc": {
    "kind": "dev",
    "methods": {},
    "version": 1
  },
  "userdoc": {
    "kind": "user",
    "methods": {},
    "version": 1
  }
}