{
  "contractName": "ElectionCommissionContract",
  "abi": [
    {
      "inputs": [],
      "stateMutability": "nonpayable",
      "type": "constructor"
    },
    {
      "inputs": [],
      "name": "getCandidateContractAddress",
      "outputs": [
        {
          "internalType": "address",
          "name": "candidateContractAddress",
          "type": "address"
        }
      ],
      "stateMutability": "view",
      "type": "function",
      "constant": true
    },
    {
      "inputs": [],
      "name": "getVoterContractAddress",
      "outputs": [
        {
          "internalType": "address",
          "name": "voterContractAddress",
          "type": "address"
        }
      ],
      "stateMutability": "view",
      "type": "function",
      "constant": true
    },
    {
      "inputs": [
        {
          "internalType": "string",
          "name": "_fname",
          "type": "string"
        },
        {
          "internalType": "string",
          "name": "_lname",
          "type": "string"
        },
        {
          "internalType": "string",
          "name": "_partyName",
          "type": "string"
        },
        {
          "internalType": "string",
          "name": "_partySymbol",
          "type": "string"
        },
        {
          "internalType": "address",
          "name": "_candidateAddress",
          "type": "address"
        }
      ],
      "name": "insertNewCandidate",
      "outputs": [],
      "stateMutability": "nonpayable",
      "type": "function"
    }
  ],
  "bytecode": "0x608060405234801561001057600080fd5b50336000806101000a81548173ffffffffffffffffffffffffffffffffffffffff021916908373ffffffffffffffffffffffffffffffffffffffff1602179055503060405161005e90610160565b61006891906101bb565b604051809103906000f080158015610084573d6000803e3d6000fd5b50600160006101000a81548173ffffffffffffffffffffffffffffffffffffffff021916908373ffffffffffffffffffffffffffffffffffffffff160217905550600160009054906101000a900473ffffffffffffffffffffffffffffffffffffffff166040516100f49061016d565b6100fe91906101bb565b604051809103906000f08015801561011a573d6000803e3d6000fd5b50600260006101000a81548173ffffffffffffffffffffffffffffffffffffffff021916908373ffffffffffffffffffffffffffffffffffffffff1602179055506101d6565b6114c18061079d83390190565b61143380611c5e83390190565b600073ffffffffffffffffffffffffffffffffffffffff82169050919050565b60006101a58261017a565b9050919050565b6101b58161019a565b82525050565b60006020820190506101d060008301846101ac565b92915050565b6105b8806101e56000396000f3fe608060405234801561001057600080fd5b50600436106100415760003560e01c806306a28b5114610046578063680f318c14610062578063c5ce8bcf14610080575b600080fd5b610060600480360381019061005b91906102f5565b61009e565b005b61006a6101d4565b6040516100779190610400565b60405180910390f35b6100886101fe565b6040516100959190610400565b60405180910390f35b60008054906101000a900473ffffffffffffffffffffffffffffffffffffffff1673ffffffffffffffffffffffffffffffffffffffff163373ffffffffffffffffffffffffffffffffffffffff161461012c576040517f08c379a00000000000000000000000000000000000000000000000000000000081526004016101239061049e565b60405180910390fd5b600160009054906101000a900473ffffffffffffffffffffffffffffffffffffffff1673ffffffffffffffffffffffffffffffffffffffff1663e96f77ee8a8a8a8a8a8a8a8a8a6040518a63ffffffff1660e01b81526004016101979998979695949392919061050b565b600060405180830381600087803b1580156101b157600080fd5b505af11580156101c5573d6000803e3d6000fd5b50505050505050505050505050565b6000600160009054906101000a900473ffffffffffffffffffffffffffffffffffffffff16905090565b6000600260009054906101000a900473ffffffffffffffffffffffffffffffffffffffff16905090565b600080fd5b600080fd5b600080fd5b600080fd5b600080fd5b60008083601f84011261025757610256610232565b5b8235905067ffffffffffffffff81111561027457610273610237565b5b6020830191508360018202830111156102905761028f61023c565b5b9250929050565b600073ffffffffffffffffffffffffffffffffffffffff82169050919050565b60006102c282610297565b9050919050565b6102d2816102b7565b81146102dd57600080fd5b50565b6000813590506102ef816102c9565b92915050565b600080600080600080600080600060a08a8c03121561031757610316610228565b5b60008a013567ffffffffffffffff8111156103355761033461022d565b5b6103418c828d01610241565b995099505060208a013567ffffffffffffffff8111156103645761036361022d565b5b6103708c828d01610241565b975097505060408a013567ffffffffffffffff8111156103935761039261022d565b5b61039f8c828d01610241565b955095505060608a013567ffffffffffffffff8111156103c2576103c161022d565b5b6103ce8c828d01610241565b935093505060806103e18c828d016102e0565b9150509295985092959850929598565b6103fa816102b7565b82525050565b600060208201905061041560008301846103f1565b92915050565b600082825260208201905092915050565b7f596f7520617265206e6f742061646d696e206f662074686520456c656374696f60008201527f6e20436f6d6d697373696f6e20636f6e74726163740000000000000000000000602082015250565b600061048860358361041b565b91506104938261042c565b604082019050919050565b600060208201905081810360008301526104b78161047b565b9050919050565b82818337600083830152505050565b6000601f19601f8301169050919050565b60006104ea838561041b565b93506104f78385846104be565b610500836104cd565b840190509392505050565b600060a0820190508181036000830152610526818b8d6104de565b9050818103602083015261053b81898b6104de565b905081810360408301526105508187896104de565b905081810360608301526105658185876104de565b905061057460808301846103f1565b9a995050505050505050505056fea26469706673582212209aa903b197acfdad1ee400397d63a2b1264fe62fd325b792d293ff13b168a3d764736f6c6343000811003360806040523480156200001157600080fd5b50604051620014c1380380620014c18339818101604052810190620000379190620000e9565b80600160006101000a81548173ffffffffffffffffffffffffffffffffffffffff021916908373ffffffffffffffffffffffffffffffffffffffff160217905550506200011b565b600080fd5b600073ffffffffffffffffffffffffffffffffffffffff82169050919050565b6000620000b18262000084565b9050919050565b620000c381620000a4565b8114620000cf57600080fd5b50565b600081519050620000e381620000b8565b92915050565b6000602082840312156200010257620001016200007f565b5b60006200011284828501620000d2565b91505092915050565b611396806200012b6000396000f3fe608060405234801561001057600080fd5b506004361061004c5760003560e01c806337a811a1146100515780638ec9bc6a1461006f578063a02d36971461009f578063e96f77ee146100cf575b600080fd5b6100596100eb565b6040516100669190610adb565b60405180910390f35b61008960048036038101906100849190610b6c565b610235565b6040516100969190610bfa565b60405180910390f35b6100b960048036038101906100b49190610b6c565b61030a565b6040516100c69190610caf565b60405180910390f35b6100e960048036038101906100e49190610cfd565b610667565b005b606060008054905067ffffffffffffffff81111561010c5761010b610df9565b5b60405190808252806020026020018201604052801561013f57816020015b606081526020019060019003908161012a5790505b50905060005b600080549050811015610231576000818154811061016657610165610e28565b5b9060005260206000209060050201600201805461018290610e86565b80601f01602080910402602001604051908101604052809291908181526020018280546101ae90610e86565b80156101fb5780601f106101d0576101008083540402835291602001916101fb565b820191906000526020600020905b8154815290600101906020018083116101de57829003601f168201915b505050505082828151811061021357610212610e28565b5b6020026020010181905250808061022990610ef0565b915050610145565b5090565b600080600090505b60008054905081101561030257838360405161025a929190610f77565b60405180910390206000828154811061027657610275610e28565b5b90600052602060002090600502016002016040516102949190611028565b6040518091039020036102ef57600081815481106102b5576102b4610e28565b5b906000526020600020906005020160040160009054906101000a900473ffffffffffffffffffffffffffffffffffffffff16915050610304565b80806102fa90610ef0565b91505061023d565b505b92915050565b610312610944565b60005b60008054905081101561065f578383604051610332929190610f77565b60405180910390206000828154811061034e5761034d610e28565b5b906000526020600020906005020160020160405161036c9190611028565b60405180910390200361064c576000818154811061038d5761038c610e28565b5b90600052602060002090600502016040518060a00160405290816000820180546103b690610e86565b80601f01602080910402602001604051908101604052809291908181526020018280546103e290610e86565b801561042f5780601f106104045761010080835404028352916020019161042f565b820191906000526020600020905b81548152906001019060200180831161041257829003601f168201915b5050505050815260200160018201805461044890610e86565b80601f016020809104026020016040519081016040528092919081815260200182805461047490610e86565b80156104c15780601f10610496576101008083540402835291602001916104c1565b820191906000526020600020905b8154815290600101906020018083116104a457829003601f168201915b505050505081526020016002820180546104da90610e86565b80601f016020809104026020016040519081016040528092919081815260200182805461050690610e86565b80156105535780601f1061052857610100808354040283529160200191610553565b820191906000526020600020905b81548152906001019060200180831161053657829003601f168201915b5050505050815260200160038201805461056c90610e86565b80601f016020809104026020016040519081016040528092919081815260200182805461059890610e86565b80156105e55780601f106105ba576101008083540402835291602001916105e5565b820191906000526020600020905b8154815290600101906020018083116105c857829003601f168201915b505050505081526020016004820160009054906101000a900473ffffffffffffffffffffffffffffffffffffffff1673ffffffffffffffffffffffffffffffffffffffff1673ffffffffffffffffffffffffffffffffffffffff1681525050915050610661565b808061065790610ef0565b915050610315565b505b92915050565b600160009054906101000a900473ffffffffffffffffffffffffffffffffffffffff1673ffffffffffffffffffffffffffffffffffffffff163373ffffffffffffffffffffffffffffffffffffffff16146106f7576040517f08c379a00000000000000000000000000000000000000000000000000000000081526004016106ee906110c2565b60405180910390fd5b6106ff610944565b89898080601f016020809104026020016040519081016040528093929190818152602001838380828437600081840152601f19601f82011690508083019250505050505050816000018190525087878080601f016020809104026020016040519081016040528093929190818152602001838380828437600081840152601f19601f82011690508083019250505050505050816020018190525085858080601f016020809104026020016040519081016040528093929190818152602001838380828437600081840152601f19601f82011690508083019250505050505050816040018190525083838080601f016020809104026020016040519081016040528093929190818152602001838380828437600081840152601f19601f82011690508083019250505050505050816060018190525081816080019073ffffffffffffffffffffffffffffffffffffffff16908173ffffffffffffffffffffffffffffffffffffffff1681525050600081908060018154018082558091505060019003906000526020600020906005020160009091909190915060008201518160000190816108ac919061128e565b5060208201518160010190816108c2919061128e565b5060408201518160020190816108d8919061128e565b5060608201518160030190816108ee919061128e565b5060808201518160040160006101000a81548173ffffffffffffffffffffffffffffffffffffffff021916908373ffffffffffffffffffffffffffffffffffffffff160217905550505050505050505050505050565b6040518060a0016040528060608152602001606081526020016060815260200160608152602001600073ffffffffffffffffffffffffffffffffffffffff1681525090565b600081519050919050565b600082825260208201905092915050565b6000819050602082019050919050565b600081519050919050565b600082825260208201905092915050565b60005b838110156109ef5780820151818401526020810190506109d4565b60008484015250505050565b6000601f19601f8301169050919050565b6000610a17826109b5565b610a2181856109c0565b9350610a318185602086016109d1565b610a3a816109fb565b840191505092915050565b6000610a518383610a0c565b905092915050565b6000602082019050919050565b6000610a7182610989565b610a7b8185610994565b935083602082028501610a8d856109a5565b8060005b85811015610ac95784840389528151610aaa8582610a45565b9450610ab583610a59565b925060208a01995050600181019050610a91565b50829750879550505050505092915050565b60006020820190508181036000830152610af58184610a66565b905092915050565b600080fd5b600080fd5b600080fd5b600080fd5b600080fd5b60008083601f840112610b2c57610b2b610b07565b5b8235905067ffffffffffffffff811115610b4957610b48610b0c565b5b602083019150836001820283011115610b6557610b64610b11565b5b9250929050565b60008060208385031215610b8357610b82610afd565b5b600083013567ffffffffffffffff811115610ba157610ba0610b02565b5b610bad85828601610b16565b92509250509250929050565b600073ffffffffffffffffffffffffffffffffffffffff82169050919050565b6000610be482610bb9565b9050919050565b610bf481610bd9565b82525050565b6000602082019050610c0f6000830184610beb565b92915050565b610c1e81610bd9565b82525050565b600060a0830160008301518482036000860152610c418282610a0c565b91505060208301518482036020860152610c5b8282610a0c565b91505060408301518482036040860152610c758282610a0c565b91505060608301518482036060860152610c8f8282610a0c565b9150506080830151610ca46080860182610c15565b508091505092915050565b60006020820190508181036000830152610cc98184610c24565b905092915050565b610cda81610bd9565b8114610ce557600080fd5b50565b600081359050610cf781610cd1565b92915050565b600080600080600080600080600060a08a8c031215610d1f57610d1e610afd565b5b60008a013567ffffffffffffffff811115610d3d57610d3c610b02565b5b610d498c828d01610b16565b995099505060208a013567ffffffffffffffff811115610d6c57610d6b610b02565b5b610d788c828d01610b16565b975097505060408a013567ffffffffffffffff811115610d9b57610d9a610b02565b5b610da78c828d01610b16565b955095505060608a013567ffffffffffffffff811115610dca57610dc9610b02565b5b610dd68c828d01610b16565b93509350506080610de98c828d01610ce8565b9150509295985092959850929598565b7f4e487b7100000000000000000000000000000000000000000000000000000000600052604160045260246000fd5b7f4e487b7100000000000000000000000000000000000000000000000000000000600052603260045260246000fd5b7f4e487b7100000000000000000000000000000000000000000000000000000000600052602260045260246000fd5b60006002820490506001821680610e9e57607f821691505b602082108103610eb157610eb0610e57565b5b50919050565b7f4e487b7100000000000000000000000000000000000000000000000000000000600052601160045260246000fd5b6000819050919050565b6000610efb82610ee6565b91507fffffffffffffffffffffffffffffffffffffffffffffffffffffffffffffffff8203610f2d57610f2c610eb7565b5b600182019050919050565b600081905092915050565b82818337600083830152505050565b6000610f5e8385610f38565b9350610f6b838584610f43565b82840190509392505050565b6000610f84828486610f52565b91508190509392505050565b60008190508160005260206000209050919050565b60008154610fb281610e86565b610fbc8186610f38565b94506001821660008114610fd75760018114610fec5761101f565b60ff198316865281151582028601935061101f565b610ff585610f90565b60005b8381101561101757815481890152600182019150602081019050610ff8565b838801955050505b50505092915050565b60006110348284610fa5565b915081905092915050565b600082825260208201905092915050565b7f4f6e6c7920656c656374696f6e2d636f6d6d697373696f6e2063616e2063616c60008201527f6c207468697320636f6e74726163742e00000000000000000000000000000000602082015250565b60006110ac60308361103f565b91506110b782611050565b604082019050919050565b600060208201905081810360008301526110db8161109f565b9050919050565b60008190508160005260206000209050919050565b60006020601f8301049050919050565b600082821b905092915050565b6000600883026111447fffffffffffffffffffffffffffffffffffffffffffffffffffffffffffffffff82611107565b61114e8683611107565b95508019841693508086168417925050509392505050565b6000819050919050565b600061118b61118661118184610ee6565b611166565b610ee6565b9050919050565b6000819050919050565b6111a583611170565b6111b96111b182611192565b848454611114565b825550505050565b600090565b6111ce6111c1565b6111d981848461119c565b505050565b5b818110156111fd576111f26000826111c6565b6001810190506111df565b5050565b601f82111561124257611213816110e2565b61121c846110f7565b8101602085101561122b578190505b61123f611237856110f7565b8301826111de565b50505b505050565b600082821c905092915050565b600061126560001984600802611247565b1980831691505092915050565b600061127e8383611254565b9150826002028217905092915050565b611297826109b5565b67ffffffffffffffff8111156112b0576112af610df9565b5b6112ba8254610e86565b6112c5828285611201565b600060209050601f8311600181146112f857600084156112e6578287015190505b6112f08582611272565b865550611358565b601f198416611306866110e2565b60005b8281101561132e57848901518255600182019150602085019450602081019050611309565b8683101561134b5784890151611347601f891682611254565b8355505b6001600288020188555050505b50505050505056fea264697066735822122054da29326616e28e76306103ec3ea224a9fab3dbad47fe50553c6acc6fc5536264736f6c6343000811003360806040523480156200001157600080fd5b5060405162001433380380620014338339818101604052810190620000379190620000e9565b80600160006101000a81548173ffffffffffffffffffffffffffffffffffffffff021916908373ffffffffffffffffffffffffffffffffffffffff160217905550506200011b565b600080fd5b600073ffffffffffffffffffffffffffffffffffffffff82169050919050565b6000620000b18262000084565b9050919050565b620000c381620000a4565b8114620000cf57600080fd5b50565b600081519050620000e381620000b8565b92915050565b6000602082840312156200010257620001016200007f565b5b60006200011284828501620000d2565b91505092915050565b611308806200012b6000396000f3fe608060405234801561001057600080fd5b506004361061004c5760003560e01c80630642d7e1146100515780634dd6c17e1461006d578063567fdd9b1461009d5780635c134d66146100ce575b600080fd5b61006b60048036038101906100669190610a1e565b6100ff565b005b61008760048036038101906100829190610af6565b610324565b6040516100949190610b5c565b60405180910390f35b6100b760048036038101906100b29190610af6565b610481565b6040516100c5929190610bf6565b60405180910390f35b6100e860048036038101906100e39190610cb0565b6107ab565b6040516100f6929190610cff565b60405180910390f35b6000600160009054906101000a900473ffffffffffffffffffffffffffffffffffffffff1673ffffffffffffffffffffffffffffffffffffffff16638ec9bc6a836040518263ffffffff1660e01b815260040161015c9190610d2f565b602060405180830381865afa158015610179573d6000803e3d6000fd5b505050506040513d601f19601f8201168201806040525081019061019d9190610d66565b9050600073ffffffffffffffffffffffffffffffffffffffff168173ffffffffffffffffffffffffffffffffffffffff160361020e576040517f08c379a000000000000000000000000000000000000000000000000000000000815260040161020590610e05565b60405180910390fd5b610216610894565b83816000018190525033816020019073ffffffffffffffffffffffffffffffffffffffff16908173ffffffffffffffffffffffffffffffffffffffff16815250506000808373ffffffffffffffffffffffffffffffffffffffff1673ffffffffffffffffffffffffffffffffffffffff16815260200190815260200160002081908060018154018082558091505060019003906000526020600020906002020160009091909190915060008201518160000190816102d49190611031565b5060208201518160010160006101000a81548173ffffffffffffffffffffffffffffffffffffffff021916908373ffffffffffffffffffffffffffffffffffffffff160217905550505050505050565b600080600160009054906101000a900473ffffffffffffffffffffffffffffffffffffffff1673ffffffffffffffffffffffffffffffffffffffff16638ec9bc6a85856040518363ffffffff1660e01b8152600401610384929190611130565b602060405180830381865afa1580156103a1573d6000803e3d6000fd5b505050506040513d601f19601f820116820180604052508101906103c59190610d66565b9050600073ffffffffffffffffffffffffffffffffffffffff168173ffffffffffffffffffffffffffffffffffffffff1603610436576040517f08c379a000000000000000000000000000000000000000000000000000000000815260040161042d906111a0565b60405180910390fd5b6000808273ffffffffffffffffffffffffffffffffffffffff1673ffffffffffffffffffffffffffffffffffffffff1681526020019081526020016000208054905091505092915050565b6060600080600160009054906101000a900473ffffffffffffffffffffffffffffffffffffffff1673ffffffffffffffffffffffffffffffffffffffff16638ec9bc6a86866040518363ffffffff1660e01b81526004016104e3929190611130565b602060405180830381865afa158015610500573d6000803e3d6000fd5b505050506040513d601f19601f820116820180604052508101906105249190610d66565b9050600073ffffffffffffffffffffffffffffffffffffffff168173ffffffffffffffffffffffffffffffffffffffff1603610595576040517f08c379a000000000000000000000000000000000000000000000000000000000815260040161058c9061120c565b60405180910390fd5b60005b6000808373ffffffffffffffffffffffffffffffffffffffff1673ffffffffffffffffffffffffffffffffffffffff168152602001908152602001600020805490508110156107a1573373ffffffffffffffffffffffffffffffffffffffff166000808473ffffffffffffffffffffffffffffffffffffffff1673ffffffffffffffffffffffffffffffffffffffff16815260200190815260200160002082815481106106485761064761122c565b5b906000526020600020906002020160010160009054906101000a900473ffffffffffffffffffffffffffffffffffffffff1673ffffffffffffffffffffffffffffffffffffffff160361078e576000808373ffffffffffffffffffffffffffffffffffffffff1673ffffffffffffffffffffffffffffffffffffffff16815260200190815260200160002081815481106106e5576106e461122c565b5b90600052602060002090600202016000018181805461070390610e54565b80601f016020809104026020016040519081016040528092919081815260200182805461072f90610e54565b801561077c5780601f106107515761010080835404028352916020019161077c565b820191906000526020600020905b81548152906001019060200180831161075f57829003601f168201915b505050505091509350935050506107a4565b80806107999061128a565b915050610598565b50505b9250929050565b600060205281600052604060002081815481106107c757600080fd5b9060005260206000209060020201600091509150508060000180546107eb90610e54565b80601f016020809104026020016040519081016040528092919081815260200182805461081790610e54565b80156108645780601f1061083957610100808354040283529160200191610864565b820191906000526020600020905b81548152906001019060200180831161084757829003601f168201915b5050505050908060010160009054906101000a900473ffffffffffffffffffffffffffffffffffffffff16905082565b604051806040016040528060608152602001600073ffffffffffffffffffffffffffffffffffffffff1681525090565b6000604051905090565b600080fd5b600080fd5b600080fd5b600080fd5b6000601f19601f8301169050919050565b7f4e487b7100000000000000000000000000000000000000000000000000000000600052604160045260246000fd5b61092b826108e2565b810181811067ffffffffffffffff8211171561094a576109496108f3565b5b80604052505050565b600061095d6108c4565b90506109698282610922565b919050565b600067ffffffffffffffff821115610989576109886108f3565b5b610992826108e2565b9050602081019050919050565b82818337600083830152505050565b60006109c16109bc8461096e565b610953565b9050828152602081018484840111156109dd576109dc6108dd565b5b6109e884828561099f565b509392505050565b600082601f830112610a0557610a046108d8565b5b8135610a158482602086016109ae565b91505092915050565b60008060408385031215610a3557610a346108ce565b5b600083013567ffffffffffffffff811115610a5357610a526108d3565b5b610a5f858286016109f0565b925050602083013567ffffffffffffffff811115610a8057610a7f6108d3565b5b610a8c858286016109f0565b9150509250929050565b600080fd5b600080fd5b60008083601f840112610ab657610ab56108d8565b5b8235905067ffffffffffffffff811115610ad357610ad2610a96565b5b602083019150836001820283011115610aef57610aee610a9b565b5b9250929050565b60008060208385031215610b0d57610b0c6108ce565b5b600083013567ffffffffffffffff811115610b2b57610b2a6108d3565b5b610b3785828601610aa0565b92509250509250929050565b6000819050919050565b610b5681610b43565b82525050565b6000602082019050610b716000830184610b4d565b92915050565b600081519050919050565b600082825260208201905092915050565b60005b83811015610bb1578082015181840152602081019050610b96565b60008484015250505050565b6000610bc882610b77565b610bd28185610b82565b9350610be2818560208601610b93565b610beb816108e2565b840191505092915050565b60006040820190508181036000830152610c108185610bbd565b9050610c1f6020830184610b4d565b9392505050565b600073ffffffffffffffffffffffffffffffffffffffff82169050919050565b6000610c5182610c26565b9050919050565b610c6181610c46565b8114610c6c57600080fd5b50565b600081359050610c7e81610c58565b92915050565b610c8d81610b43565b8114610c9857600080fd5b50565b600081359050610caa81610c84565b92915050565b60008060408385031215610cc757610cc66108ce565b5b6000610cd585828601610c6f565b9250506020610ce685828601610c9b565b9150509250929050565b610cf981610c46565b82525050565b60006040820190508181036000830152610d198185610bbd565b9050610d286020830184610cf0565b9392505050565b60006020820190508181036000830152610d498184610bbd565b905092915050565b600081519050610d6081610c58565b92915050565b600060208284031215610d7c57610d7b6108ce565b5b6000610d8a84828501610d51565b91505092915050565b7f7468657265206973206e6f2063616e64696461746520666f722074686973207060008201527f6172747920696e20636f6e747261637473000000000000000000000000000000602082015250565b6000610def603183610b82565b9150610dfa82610d93565b604082019050919050565b60006020820190508181036000830152610e1e81610de2565b9050919050565b7f4e487b7100000000000000000000000000000000000000000000000000000000600052602260045260246000fd5b60006002820490506001821680610e6c57607f821691505b602082108103610e7f57610e7e610e25565b5b50919050565b60008190508160005260206000209050919050565b60006020601f8301049050919050565b600082821b905092915050565b600060088302610ee77fffffffffffffffffffffffffffffffffffffffffffffffffffffffffffffffff82610eaa565b610ef18683610eaa565b95508019841693508086168417925050509392505050565b6000819050919050565b6000610f2e610f29610f2484610b43565b610f09565b610b43565b9050919050565b6000819050919050565b610f4883610f13565b610f5c610f5482610f35565b848454610eb7565b825550505050565b600090565b610f71610f64565b610f7c818484610f3f565b505050565b5b81811015610fa057610f95600082610f69565b600181019050610f82565b5050565b601f821115610fe557610fb681610e85565b610fbf84610e9a565b81016020851015610fce578190505b610fe2610fda85610e9a565b830182610f81565b50505b505050565b600082821c905092915050565b600061100860001984600802610fea565b1980831691505092915050565b60006110218383610ff7565b9150826002028217905092915050565b61103a82610b77565b67ffffffffffffffff811115611053576110526108f3565b5b61105d8254610e54565b611068828285610fa4565b600060209050601f83116001811461109b5760008415611089578287015190505b6110938582611015565b8655506110fb565b601f1984166110a986610e85565b60005b828110156110d1578489015182556001820191506020850194506020810190506110ac565b868310156110ee57848901516110ea601f891682610ff7565b8355505b6001600288020188555050505b505050505050565b600061110f8385610b82565b935061111c83858461099f565b611125836108e2565b840190509392505050565b6000602082019050818103600083015261114b818486611103565b90509392505050565b7f63616e646964617465206e6f7420666f756e6421000000000000000000000000600082015250565b600061118a601483610b82565b915061119582611154565b602082019050919050565b600060208201905081810360008301526111b98161117d565b9050919050565b7f6e6f207375636820706172747920657869737473000000000000000000000000600082015250565b60006111f6601483610b82565b9150611201826111c0565b602082019050919050565b60006020820190508181036000830152611225816111e9565b9050919050565b7f4e487b7100000000000000000000000000000000000000000000000000000000600052603260045260246000fd5b7f4e487b7100000000000000000000000000000000000000000000000000000000600052601160045260246000fd5b600061129582610b43565b91507fffffffffffffffffffffffffffffffffffffffffffffffffffffffffffffffff82036112c7576112c661125b565b5b60018201905091905056fea2646970667358221220e8dd7dccbee641088a474c03b3286ce559b513aab75276d18670c1c2528d1bfa64736f6c63430008110033",
  "immutableReferences": {},
  "source": "// SPDX-License-Identifier:MIT\npragma solidity >= 0.8.16;\nimport \"./Candidate.sol\";\nimport \"./Voter.sol\";\n\ncontract ElectionCommissionContract{\n\n    address ecAdmin;\n    CandidateContract candidateContract;\n    VoterContract voterContract;\n\n    constructor() {\n        ecAdmin = msg.sender;\n        candidateContract = new CandidateContract(address (this));\n        voterContract = new VoterContract(address(candidateContract));\n    }\n\n    modifier is_ecAdmin(){\n        require(msg.sender == ecAdmin, \"You are not admin of the Election Commission contract\");\n        _;\n    }\n\n    function getCandidateContractAddress() public view returns (address candidateContractAddress){\n        return address(candidateContract);\n    }\n\n\n    // function getCandidateContractAddress() public view returns (address){\n    //     return (candidateContract);\n    // }\n\n    function getVoterContractAddress() public view returns (address voterContractAddress){\n        return address(voterContract);\n    }\n\n\n    // function getVoterContractAddress() public view returns (address){\n    //     return (voterContract);\n    // }\n\n    function insertNewCandidate(string calldata _fname, string calldata _lname,\n    string calldata _partyName, string calldata _partySymbol, address _candidateAddress )\n    external is_ecAdmin\n    {\n        candidateContract.setCandidateData(_fname,_lname,_partyName,_partySymbol,_candidateAddress);\n    }\n\n}",
  "sourcePath": "/home/sadam/solidity-projects/voting-system/voting-system/contracts/ElectionCommission.sol",
  "compiler": {
    "name": "solc",
    "version": "0.8.17+commit.8df45f5f.Emscripten.clang"
  },
  "schemaVersion": "3.4.11",
  "updatedAt": "2023-02-26T21:07:16.257Z",
  "networkType": "ethereum",
  "devdoc": {
    "kind": "dev",
    "methods": {},
    "version": 1
  },
  "userdoc": {
    "kind": "user",
    "methods": {},
    "version": 1
  }
}