{
  "contractName": "VoterContract",
  "abi": [
    {
      "inputs": [
        {
          "internalType": "address",
          "name": "_candidateAddress",
          "type": "address"
        }
      ],
      "stateMutability": "nonpayable",
      "type": "constructor"
    },
    {
      "inputs": [
        {
          "internalType": "address",
          "name": "",
          "type": "address"
        },
        {
          "internalType": "uint256",
          "name": "",
          "type": "uint256"
        }
      ],
      "name": "voters",
      "outputs": [
        {
          "internalType": "string",
          "name": "nicop",
          "type": "string"
        },
        {
          "internalType": "address",
          "name": "ethereumAddress",
          "type": "address"
        }
      ],
      "stateMutability": "view",
      "type": "function"
    },
    {
      "inputs": [
        {
          "internalType": "string",
          "name": "_nicop",
          "type": "string"
        },
        {
          "internalType": "string",
          "name": "_partyName",
          "type": "string"
        }
      ],
      "name": "insertVoteByParty",
      "outputs": [],
      "stateMutability": "nonpayable",
      "type": "function"
    },
    {
      "inputs": [
        {
          "internalType": "string",
          "name": "_partyName",
          "type": "string"
        }
      ],
      "name": "getVotesByParty",
      "outputs": [
        {
          "internalType": "uint256",
          "name": "totatVotes",
          "type": "uint256"
        }
      ],
      "stateMutability": "view",
      "type": "function"
    },
    {
      "inputs": [
        {
          "internalType": "string",
          "name": "_partyName",
          "type": "string"
        }
      ],
      "name": "verifyMyVote",
      "outputs": [
        {
          "internalType": "string",
          "name": "nicop",
          "type": "string"
        },
        {
          "internalType": "uint256",
          "name": "voterIndex",
          "type": "uint256"
        }
      ],
      "stateMutability": "view",
      "type": "function"
    }
  ],
  "bytecode": "0x60806040523480156200001157600080fd5b5060405162001433380380620014338339818101604052810190620000379190620000e9565b80600160006101000a81548173ffffffffffffffffffffffffffffffffffffffff021916908373ffffffffffffffffffffffffffffffffffffffff160217905550506200011b565b600080fd5b600073ffffffffffffffffffffffffffffffffffffffff82169050919050565b6000620000b18262000084565b9050919050565b620000c381620000a4565b8114620000cf57600080fd5b50565b600081519050620000e381620000b8565b92915050565b6000602082840312156200010257620001016200007f565b5b60006200011284828501620000d2565b91505092915050565b611308806200012b6000396000f3fe608060405234801561001057600080fd5b506004361061004c5760003560e01c80630642d7e1146100515780634dd6c17e1461006d578063567fdd9b1461009d5780635c134d66146100ce575b600080fd5b61006b60048036038101906100669190610a1e565b6100ff565b005b61008760048036038101906100829190610af6565b610324565b6040516100949190610b5c565b60405180910390f35b6100b760048036038101906100b29190610af6565b610481565b6040516100c5929190610bf6565b60405180910390f35b6100e860048036038101906100e39190610cb0565b6107ab565b6040516100f6929190610cff565b60405180910390f35b6000600160009054906101000a900473ffffffffffffffffffffffffffffffffffffffff1673ffffffffffffffffffffffffffffffffffffffff16638ec9bc6a836040518263ffffffff1660e01b815260040161015c9190610d2f565b602060405180830381865afa158015610179573d6000803e3d6000fd5b505050506040513d601f19601f8201168201806040525081019061019d9190610d66565b9050600073ffffffffffffffffffffffffffffffffffffffff168173ffffffffffffffffffffffffffffffffffffffff160361020e576040517f08c379a000000000000000000000000000000000000000000000000000000000815260040161020590610e05565b60405180910390fd5b610216610894565b83816000018190525033816020019073ffffffffffffffffffffffffffffffffffffffff16908173ffffffffffffffffffffffffffffffffffffffff16815250506000808373ffffffffffffffffffffffffffffffffffffffff1673ffffffffffffffffffffffffffffffffffffffff16815260200190815260200160002081908060018154018082558091505060019003906000526020600020906002020160009091909190915060008201518160000190816102d49190611031565b5060208201518160010160006101000a81548173ffffffffffffffffffffffffffffffffffffffff021916908373ffffffffffffffffffffffffffffffffffffffff160217905550505050505050565b600080600160009054906101000a900473ffffffffffffffffffffffffffffffffffffffff1673ffffffffffffffffffffffffffffffffffffffff16638ec9bc6a85856040518363ffffffff1660e01b8152600401610384929190611130565b602060405180830381865afa1580156103a1573d6000803e3d6000fd5b505050506040513d601f19601f820116820180604052508101906103c59190610d66565b9050600073ffffffffffffffffffffffffffffffffffffffff168173ffffffffffffffffffffffffffffffffffffffff1603610436576040517f08c379a000000000000000000000000000000000000000000000000000000000815260040161042d906111a0565b60405180910390fd5b6000808273ffffffffffffffffffffffffffffffffffffffff1673ffffffffffffffffffffffffffffffffffffffff1681526020019081526020016000208054905091505092915050565b6060600080600160009054906101000a900473ffffffffffffffffffffffffffffffffffffffff1673ffffffffffffffffffffffffffffffffffffffff16638ec9bc6a86866040518363ffffffff1660e01b81526004016104e3929190611130565b602060405180830381865afa158015610500573d6000803e3d6000fd5b505050506040513d601f19601f820116820180604052508101906105249190610d66565b9050600073ffffffffffffffffffffffffffffffffffffffff168173ffffffffffffffffffffffffffffffffffffffff1603610595576040517f08c379a000000000000000000000000000000000000000000000000000000000815260040161058c9061120c565b60405180910390fd5b60005b6000808373ffffffffffffffffffffffffffffffffffffffff1673ffffffffffffffffffffffffffffffffffffffff168152602001908152602001600020805490508110156107a1573373ffffffffffffffffffffffffffffffffffffffff166000808473ffffffffffffffffffffffffffffffffffffffff1673ffffffffffffffffffffffffffffffffffffffff16815260200190815260200160002082815481106106485761064761122c565b5b906000526020600020906002020160010160009054906101000a900473ffffffffffffffffffffffffffffffffffffffff1673ffffffffffffffffffffffffffffffffffffffff160361078e576000808373ffffffffffffffffffffffffffffffffffffffff1673ffffffffffffffffffffffffffffffffffffffff16815260200190815260200160002081815481106106e5576106e461122c565b5b90600052602060002090600202016000018181805461070390610e54565b80601f016020809104026020016040519081016040528092919081815260200182805461072f90610e54565b801561077c5780601f106107515761010080835404028352916020019161077c565b820191906000526020600020905b81548152906001019060200180831161075f57829003601f168201915b505050505091509350935050506107a4565b80806107999061128a565b915050610598565b50505b9250929050565b600060205281600052604060002081815481106107c757600080fd5b9060005260206000209060020201600091509150508060000180546107eb90610e54565b80601f016020809104026020016040519081016040528092919081815260200182805461081790610e54565b80156108645780601f1061083957610100808354040283529160200191610864565b820191906000526020600020905b81548152906001019060200180831161084757829003601f168201915b5050505050908060010160009054906101000a900473ffffffffffffffffffffffffffffffffffffffff16905082565b604051806040016040528060608152602001600073ffffffffffffffffffffffffffffffffffffffff1681525090565b6000604051905090565b600080fd5b600080fd5b600080fd5b600080fd5b6000601f19601f8301169050919050565b7f4e487b7100000000000000000000000000000000000000000000000000000000600052604160045260246000fd5b61092b826108e2565b810181811067ffffffffffffffff8211171561094a576109496108f3565b5b80604052505050565b600061095d6108c4565b90506109698282610922565b919050565b600067ffffffffffffffff821115610989576109886108f3565b5b610992826108e2565b9050602081019050919050565b82818337600083830152505050565b60006109c16109bc8461096e565b610953565b9050828152602081018484840111156109dd576109dc6108dd565b5b6109e884828561099f565b509392505050565b600082601f830112610a0557610a046108d8565b5b8135610a158482602086016109ae565b91505092915050565b60008060408385031215610a3557610a346108ce565b5b600083013567ffffffffffffffff811115610a5357610a526108d3565b5b610a5f858286016109f0565b925050602083013567ffffffffffffffff811115610a8057610a7f6108d3565b5b610a8c858286016109f0565b9150509250929050565b600080fd5b600080fd5b60008083601f840112610ab657610ab56108d8565b5b8235905067ffffffffffffffff811115610ad357610ad2610a96565b5b602083019150836001820283011115610aef57610aee610a9b565b5b9250929050565b60008060208385031215610b0d57610b0c6108ce565b5b600083013567ffffffffffffffff811115610b2b57610b2a6108d3565b5b610b3785828601610aa0565b92509250509250929050565b6000819050919050565b610b5681610b43565b82525050565b6000602082019050610b716000830184610b4d565b92915050565b600081519050919050565b600082825260208201905092915050565b60005b83811015610bb1578082015181840152602081019050610b96565b60008484015250505050565b6000610bc882610b77565b610bd28185610b82565b9350610be2818560208601610b93565b610beb816108e2565b840191505092915050565b60006040820190508181036000830152610c108185610bbd565b9050610c1f6020830184610b4d565b9392505050565b600073ffffffffffffffffffffffffffffffffffffffff82169050919050565b6000610c5182610c26565b9050919050565b610c6181610c46565b8114610c6c57600080fd5b50565b600081359050610c7e81610c58565b92915050565b610c8d81610b43565b8114610c9857600080fd5b50565b600081359050610caa81610c84565b92915050565b60008060408385031215610cc757610cc66108ce565b5b6000610cd585828601610c6f565b9250506020610ce685828601610c9b565b9150509250929050565b610cf981610c46565b82525050565b60006040820190508181036000830152610d198185610bbd565b9050610d286020830184610cf0565b9392505050565b60006020820190508181036000830152610d498184610bbd565b905092915050565b600081519050610d6081610c58565b92915050565b600060208284031215610d7c57610d7b6108ce565b5b6000610d8a84828501610d51565b91505092915050565b7f7468657265206973206e6f2063616e64696461746520666f722074686973207060008201527f6172747920696e20636f6e747261637473000000000000000000000000000000602082015250565b6000610def603183610b82565b9150610dfa82610d93565b604082019050919050565b60006020820190508181036000830152610e1e81610de2565b9050919050565b7f4e487b7100000000000000000000000000000000000000000000000000000000600052602260045260246000fd5b60006002820490506001821680610e6c57607f821691505b602082108103610e7f57610e7e610e25565b5b50919050565b60008190508160005260206000209050919050565b60006020601f8301049050919050565b600082821b905092915050565b600060088302610ee77fffffffffffffffffffffffffffffffffffffffffffffffffffffffffffffffff82610eaa565b610ef18683610eaa565b95508019841693508086168417925050509392505050565b6000819050919050565b6000610f2e610f29610f2484610b43565b610f09565b610b43565b9050919050565b6000819050919050565b610f4883610f13565b610f5c610f5482610f35565b848454610eb7565b825550505050565b600090565b610f71610f64565b610f7c818484610f3f565b505050565b5b81811015610fa057610f95600082610f69565b600181019050610f82565b5050565b601f821115610fe557610fb681610e85565b610fbf84610e9a565b81016020851015610fce578190505b610fe2610fda85610e9a565b830182610f81565b50505b505050565b600082821c905092915050565b600061100860001984600802610fea565b1980831691505092915050565b60006110218383610ff7565b9150826002028217905092915050565b61103a82610b77565b67ffffffffffffffff811115611053576110526108f3565b5b61105d8254610e54565b611068828285610fa4565b600060209050601f83116001811461109b5760008415611089578287015190505b6110938582611015565b8655506110fb565b601f1984166110a986610e85565b60005b828110156110d1578489015182556001820191506020850194506020810190506110ac565b868310156110ee57848901516110ea601f891682610ff7565b8355505b6001600288020188555050505b505050505050565b600061110f8385610b82565b935061111c83858461099f565b611125836108e2565b840190509392505050565b6000602082019050818103600083015261114b818486611103565b90509392505050565b7f63616e646964617465206e6f7420666f756e6421000000000000000000000000600082015250565b600061118a601483610b82565b915061119582611154565b602082019050919050565b600060208201905081810360008301526111b98161117d565b9050919050565b7f6e6f207375636820706172747920657869737473000000000000000000000000600082015250565b60006111f6601483610b82565b9150611201826111c0565b602082019050919050565b60006020820190508181036000830152611225816111e9565b9050919050565b7f4e487b7100000000000000000000000000000000000000000000000000000000600052603260045260246000fd5b7f4e487b7100000000000000000000000000000000000000000000000000000000600052601160045260246000fd5b600061129582610b43565b91507fffffffffffffffffffffffffffffffffffffffffffffffffffffffffffffffff82036112c7576112c661125b565b5b60018201905091905056fea2646970667358221220e8dd7dccbee641088a474c03b3286ce559b513aab75276d18670c1c2528d1bfa64736f6c63430008110033",
  "immutableReferences": {},
  "source": "// SPDX-License-Identifier: MIT\npragma solidity >= 0.8.16;\n\nimport './Candidate.sol';\n\ncontract VoterContract{\n    \n    struct VoterData{\n        string nicop;\n        address ethereumAddress;\n    }\n\n    mapping (address => VoterData[]) public voters;\n\n    CandidateContract candidateContract;\n\n    constructor(address _candidateAddress){\n        candidateContract = CandidateContract(_candidateAddress);\n    }\n\n    function insertVoteByParty(string memory _nicop, string memory _partyName) public{\n        address ethereum_candidate_address = candidateContract.getCandidateAddressByPartyName(_partyName);    \n        require (ethereum_candidate_address!=address(0), \"there is no candidate for this party in contracts\");\n\n        VoterData memory vData;\n        vData.nicop = _nicop;\n        vData.ethereumAddress = msg.sender;\n        voters[ethereum_candidate_address].push(vData);\n    }\n\n    function getVotesByParty(string calldata _partyName) public view returns (uint totatVotes)\n    {\n        address ethereum_candidate_address = candidateContract.getCandidateAddressByPartyName(_partyName);    \n        require (ethereum_candidate_address!=address(0), \"candidate not found!\");\n        return voters[ethereum_candidate_address].length;\n    }\n\n    function verifyMyVote(string calldata _partyName) public view returns(string memory nicop, uint voterIndex){\n         address ethereum_candidate_address = candidateContract.getCandidateAddressByPartyName(_partyName);    \n        require (ethereum_candidate_address!=address(0), \"no such party exists\");\n        for(uint i = 0; i < voters[ethereum_candidate_address].length; i++)\n        {\n            if(voters[ethereum_candidate_address][i].ethereumAddress == msg.sender){\n                return (voters[ethereum_candidate_address][i].nicop, i);\n            }\n        }\n    }\n}",
  "sourcePath": "/home/sadam/solidity-projects/voting-system/voting-system/contracts/Voter.sol",
  "compiler": {
    "name": "solc",
    "version": "0.8.17+commit.8df45f5f.Emscripten.clang"
  },
  "schemaVersion": "3.4.11",
  "updatedAt": "2023-02-26T21:06:25.117Z",
  "devdoc": {
    "kind": "dev",
    "methods": {},
    "version": 1
  },
  "userdoc": {
    "kind": "user",
    "methods": {},
    "version": 1
  }
}